:020000040800F2
:10000000403D0020753100088D7E000861310008F8
:100010006131000861310008613100080000000012
:10002000000000000000000000000000893200080D
:1000300061310008000000000D3200083D41000859
:10004000253400082534000825340008253400082C
:10005000253400082534000825340008253400081C
:10006000253400082534000825340008253400080C
:1000700025340008253400082534000825340008FC
:1000800025340008253400082534000825340008EC
:1000900025340008253400082534000825340008DC
:1000A00025340008253400082534000825340008CC
:1000B00025340008253400082534000825340008BC
:1000C00025340008253400082534000825340008AC
:1000D000253400082534000825340008253400089C
:1000E000253400082534000825340008253400088C
:1000F000253400082534000825340008253400087C
:10010000253400082534000825340008253400086B
:10011000253400082534000825340008253400085B
:10012000253400082534000825340008253400084B
:10013000253400082534000825340008253400083B
:10014000253400082534000825340008253400082B
:10015000253400082534000825340008253400081B
:10016000253400082534000825340008253400080B
:1001700025340008253400082534000825340008FB
:1001800025340008253400082534000825340008EB
:1001900025340008253400082534000825340008DB
:1001A00025340008253400082534000825340008CB
:1001B00025340008253400082534000825340008BB
:1001C00025340008253400082534000825340008AB
:0801D000253400082534000865
:1001D8007BB972B90029BEBF00204FF0004106E08C
:1001E80008BF00281CBF6FF000414FF0FF3000F03F
:1001F80057B8ADF1080C6DE904CE002909DB002BD6
:100208001ADB00F04FF8DDF804E0DDE9022304B062
:100218007047404261EB4101002B1BDB00F042F8C4
:10022800DDF804E0DDE9022304B0404261EB41015E
:10023800524263EB43037047524263EB430300F0BF
:1002480031F8DDF804E0DDE9022304B0404261EB57
:1002580041017047524263EB430300F023F8DDF895
:1002680004E0DDE9022304B0524263EB4303704724
:1002780053B94AB9002908BF00281CBF4FF0FF3105
:100288004FF0FF3000F00CB8ADF1080C6DE904CE6A
:1002980000F008F8DDF804E0DDE9022304B0704757
:1002A800704700BF2DE9F04786468C460846089EF1
:1002B800154674461946002B40F0C2808542B2FAB2
:1002C80082F245D94AB1C2F1200300FA02FC2EFAA3
:1002D80003F3954043EA0C0C94404FEA154EA8B23C
:1002E800BCFBFEF8230C0EFB18CC08FB00F943EA14
:1002F8000C43994528D9EB1808F1FF3704D29945E2
:1003080002D9A8F102072B44A3EB0903A4B2B3FB5B
:10031800FEFC0EFB1C330CFB00F044EA0344A04235
:1003280014D92C190CF1FF3304D2A04202D9ACF134
:1003380002032C44241A43EA07401EB1D440002388
:1003480034607360BDE8F0874746DDE76346F1E750
:1003580092BB431B01214FEA154EAFB2B3FBFEFC23
:10036800200C0EFB1C330CFB07F840EA03439845AE
:1003780062D9EB180CF1FF3004D2984502D9ACF1E0
:1003880002002B44A3EB0803A4B2B3FBFEFC0EFB54
:100398001C330CFB07F744EA0344A7424ED92C1937
:1003A8000CF1FF3304D2A74202D9ACF102032C446A
:1003B800E41B43EA0040C0E7C2F1200320FA03F13E
:1003C800954090402EFA03F303434FEA154EAFB21F
:1003D800B1FBFEFC0EFB1C10190C0CFB07F841EAE4
:1003E8000041884504FA02F422D969180CF1FF305B
:1003F80004D2884502D9ACF102002944A1EB0801D6
:100408009BB2B1FBFEFC0EFB1C110CFB07F743EA89
:1004180001439F420ED9EB180CF1FF3104D29F42E1
:1004280002D9ACF102012B44DB1B41EA004192E7FF
:100438006046E3E76146F7E76046A3E76346B7E748
:10044800834206D916B9002108467BE7C6E900E0D1
:10045800F9E7B3FA83F78FB9834201D3724508D815
:10046800BEEB020460EB030301209C461EB9002189
:1004780068E73846FAE7C6E9004CF8E7C7F1200C08
:10048800BB4022FA0CF41C432EFA0CF120FA0CF3B0
:10049800B84001434FEA14490EFA07F5B3FBF9F8DF
:1004A8001FFA84FE09FB18300B0C08FB0EFA43EA0E
:1004B80000439A4502FA07F240D9E31808F1FF30E1
:1004C80004D29A4502D9A8F102002344A3EB0A03F7
:1004D80089B2B3FBF9F809FB183308FB0EFE41EAB1
:1004E80003418E452CD9611808F1FF3304D28E459B
:1004F80002D9A8F10203214443EA0040A0FB029874
:10050800A1EB0E014145CE46434602D306D14D45E7
:1005180004D2B9EB020E68EB04030138002EA6D012
:10052800B5EB0E0261EB030101FA0CFC22FA07F3AA
:100538004CEA0303F940C6E9003198E74046C5E7AD
:100548004346D9E710F8012B11F8013B012A28BFCF
:100558009A42F7D0D01A7047034611F8012B03F8D6
:10056800012B002AF9D17047034613F8012B002A02
:10057800FBD1181A013870472DE9F04704468AB0B4
:100588008846174608F098FC0A220023FFF770FEF9
:10059800B8F1010F06460D4608D1CDE900012A4AF7
:1005A8000821204607F00AF8002012E07F68274853
:1005B8003946FFF7C7FF78B125483946FFF7C2FF2C
:1005C80050B12046234A3B46012106F0F7FF6FF061
:1005D80004000AB0BDE8F0873046294618A3D3E9DD
:1005E8000023FFF7F5FD06460D46104619461A4A40
:1005F8000023FFF7EDFD80460F46104619464EF6DC
:1006080060220023FFF7E4FD82468946104619461A
:100618004FF47A720023FFF7DBFDCDE904A9CDE999
:100628000601CDE90823CDE90287CDE900650B4A2B
:100638000821204606F0C2FFB6E700BFAFF30080EE
:10064800005C260500000000E6A60008F7A60008E2
:10065800FAA6000803A7000880EE36001AA70008CB
:1006680008B5034A082106F0A9FF002008BD00BF0D
:100678001CA50008034B044819680131196006F0ED
:10068800E9BC00BF3806002062A500082DE9F0414A
:1006980004460D46006808F0C3F930B923681A48C3
:1006A8001968BDE8F04106F0D5BC4FF4003120468A
:1006B80006F0B9FC0646E0B925EAE5710A2781FB90
:1006C80007754FF00108206821790269126808FA55
:1006D80001F106F00103114218BF83F0010383B151
:1006E8008368DB68984701363846294604F0A4FE3B
:1006F800E9E7237A22790146BDE8F041034806F08C
:10070800A9BC83681B69EDE766A5000885A50008F4
:10071800024800224FF47A71FFF7B8BFB49D000871
:1007280010B5FFF7F5FFBDE81040034842F210721C
:10073800002304F095BB00BF1000002070B5234CC7
:10074800204608F06DF928B92168214806F082FC96
:10075800002070BD4FF480311E4806F064FC01464D
:1007680028B122681C480D2306F074FCF0E7A56840
:100778002369AE699EB11B6813F4005F4FF00D0149
:1007880014BF4FF000734FF080634FF0A072204603
:10079800B047014630B1226810480D23E4E76FF0F6
:1007A8005701F8E70E490F4B4B604FF400538B602D
:1007B800EB6913B101222046984721680A480D22A7
:1007C80006F048FC094806F045FCC1E78C9600088D
:1007D800B6A50008989D0008DCA5000805A6000835
:1007E8003C0600207D0600083BA600085EA600081F
:1007F8000149024808F0DEB9190700081000002076
:10080800074808B506F026FCFFF7F2FF054804F094
:10081800BBFA4FF0FF314FF0FF3004F00DFEF8E760
:100828008AA60008000000202DE9F04107460E4680
:10083800154600F08FF8C36804461BB943691A7857
:10084800002A41D10023E3606368BB4256F82320A5
:1008580008DB324B6361204600F062F84FF0FF304E
:10086800BDE8F081511C616192F80080B8F12D0F4C
:10087800EFD1911C61615178A1602D2904D1927842
:100888006AB901336360E4E749B9244B63614146BF
:10089800284608F0ACFC0028DDD0C4F80880D4F85D
:1008A80008802846414608F0A2FCB8F13A0F63696F
:1008B80000D070B91B7813B96368013363602046B0
:1008C80000F02EF83F20CBE75A1C42611B7883606A
:1008D800E5E742783A2A0BD0002222611B7813B947
:1008E800636801336360204600F01AF8A068B7E730
:1008F80018786268094928B901329742626004DDB4
:1009080056F82230C4E90431EAE761612D783A2DBE
:100918002046D5D100F004F82846A1E790A80008A1
:10092800074B02681A60074B42681A60064B8268D8
:100938001A60064BC2681A60054B02691A60704754
:100948003C00002038000020500600204C06002003
:10095800480600200048704720000020014B1B6813
:10096800184700BF40000020014B1860704700BFC7
:100978004000002030B585B004460D461022002105
:10098800684608F0CEFD02238DF802302A46044B53
:1009980001932146684605F0EDF905B030BD00BF6A
:1009A8006509000880B505460E461746984604F0C6
:1009B8005BFD034608F0C6FDDFF81890044649F8C9
:1009C8000030424630463946A84754F8090002F03C
:1009D800E9FB00BF080000000D4B0E4A1A600E4AE2
:1009E800536843F0010353600C4B9A6D42F08052F8
:1009F8009A659B6D0A4A82B003F080530193019B6C
:100A08009368002043F48043936002B0704700BFAE
:100A1800E00000200024F400002004E00010024060
:100A280000700040034A536823F00203536000201B
:100A3800704700BF002004E0014B036000207047AE
:100A4800C09D000813B5044603F0C6FFC0F3072392
:100A58000193C0F307430093044A030E082120467C
:100A680006F0ACFD002002B010BD00BFCDA6000806
:100A780010B5044603F006FC084A03460821204640
:100A880006F09CFD064A2046082106F097FD054819
:100A9800214603F00FFE002010BD00BF68A7000824
:100AA80087A70008B10A0008F0B59BB004460D46B8
:100AB800D0F8AC6007F0D5FF024608F043FD374B8D
:100AC8001958374B002A18BF1346CDE90043354A59
:100AD800354B28468C4218BF1346344A082106F085
:100AE8006DFDD4E90A23CDE9022394F90E30009371
:100AF800237B2F4A0821284606F060FD202212A9F0
:100B0800204603F025FE626F00920346082128461E
:100B1800284A06F053FD06A9204607F0B9FF18BB7E
:100B28000CA807F0BFFF10BB069FDDF81CE064218E
:100B3800A7FB010CDDE90C2301FB0EC1FFF798FBB5
:100B48001D4A00903B460821284606F037FD05A9B6
:100B5800204607F096FF034678B1184A0821284630
:100B680006F02CFD1BB0F0BD0CA807F09BFF144A43
:100B78000821284606F022FDE9E7059A6423B11A00
:100B8800CDE900214B430F4AB3FBF6F30821CDE929
:100B980002632846334606F011FDE3E7080000002B
:100BA80093A700080FB0000891A7000896A70008AF
:100BB800A2A70008CEA70008E5A700082DA80008EE
:100BC8000AA800085AA80008F0B5002593B0044602
:100BD80029460AAF1C220BA808F0A3FC144E1A22BF
:100BE8002021384608F09DFC2146124803F062FD9A
:100BF80009AA4FF40061304607F037FF09996422CB
:100C0800C1F5006042434FF40063D20ACDE9040302
:100C1800CDE9023106922046CDE90057064AA6F1F1
:100C28004003082106F0CAFC284613B0F0BD00BFF7
:100C3800C02F0020A10C000891A8000810B5044698
:100C480003F03EFB034A03460821204606F0B6FCA3
:100C5800002010BDDAA8000837B51346002201921B
:100C6800054601AA58680A2101F0CCFB019C4CB941
:100C780020EAE0700A2180FB010104F0DDFB204638
:100C880003B030BD2346034A0121284606F096FCEE
:100C9800019CF4E7F0A80008F0B50446D0F8AC6071
:100CA80089B00D4607A907F0ECFE034630B1104A9B
:100CB8000821284606F082FC09B0F0BD204607F05E
:100CC800D0FE0C4F079A002818BF0746B11A6423B4
:100CD800CDE902214B43CDE90076B3FBF6F3064A92
:100CE800CDE9046308212346284606F067FCE3E7BC
:100CF8002DA8000893A7000810A900082DE9F043C3
:100D080087B00546684603F0A5FB009E184A194FB0
:100D1800DFF86480DFF86490142303FB0066082181
:100D2800284606F04BFC009CB44203D3002007B0D1
:100D3800BDE8F08323680BB11A7832B923463A46E6
:100D4800142101A804F07AFE01AB42460821284686
:100D580006F034FC204607F063FE094B094A0028D8
:100D680008BF4B460821284606F028FC1434DBE768
:100D780032AA00083CAA000841AA000829AA0008CB
:100D880023AA000896B000088B1E022B2DE9F0411B
:100D980007468846144637D860681022002104F0B8
:100DA800E9FEB8F1020F064607D1264A202308219A
:100DB800384606F003FC336816E00A220021A068D2
:100DC80004F0D8FEC5B21F4A2B460821384606F063
:100DD800F5FBB8F1040F1AD0102D0DD0202DEAD054
:100DE800082D0CD13378DBB2174A0821384606F0B3
:100DF800E5FB0020BDE8F08133889BB2F4E7134A95
:100E08000821384606F0DAFB6FF01500F2E7E068D3
:100E18001022002104F0AEFE0D4A034604460821C4
:100E2800384606F0CBFB102D06D0202D07D0082D14
:100E3800E5D1E4B23470DCE7A4B23480D9E7346099
:100E4800D7E700BF7AAA0008A5AA00088FAA000859
:100E5800B6AA00082DE9F04F584BDFF864A1914677
:100E68004FF0FF35012285B0074688461A602026D4
:100E78002C46494652464046FFF7D6FC411C07D14E
:100E88006A1C52D14F4A0121384606F097FB1DE0F3
:100E9800732820D0772833D0612817D1DFF828B1FC
:100EA8001022DBF80000002104F064FE054600284B
:100EB800DFD108F047FB454B1B58162BD9D1DBF87F
:100EC8000030434A0121384606F078FB6FF01500E0
:100ED80005B0BDE8F08FDFF8F0B00022DBF80000C5
:100EE800114604F047FE04460028C2D108F02AFB48
:100EF800364B1B58162BBCD1DBF80030354AE1E7DE
:100F0800DFF8C4B00022DBF80000114604F032FE1E
:100F180006460028ADD108F015FB2C4B1B58162BA4
:100F2800A7D1DBF800302C4ACCE7631C01D12B4A4F
:100F3800A9E75FFA86F8C6F3C406002C3CD06B46D6
:100F480029461A46A6EB050C0CE0B8F1100F1DD087
:100F5800B8F1200F20D0B8F1080F2AD108781870FE
:100F680031443344A64203D80CEB01001028ECD9D5
:100F7800102CA14628BF4FF0100929464B46384689
:100F880001F034F81035A4EB0904D6E7088880B2DC
:100F98001870000A5870E3E7086818704FEA102EB6
:100FA80083F801E04FEA104E000E83F802E0D87093
:100FB800D6E70B4A082167E7204689E73800002072
:100FC80004AB00080BAB0008480600200C0000002A
:100FD800CAAA0008DDAA0008F0AA000828AB000881
:100FE8008FAA000870B5104E044633780D4681B1BB
:100FF8002BB1BDE870400D4A012106F0DFBA01238C
:1010080033700B4A0821204606F0D8FA01233370C2
:1010180004E083F001033370002BF2D12946204607
:10102800BDE8704006F0EFBAB00A002042AB0008F5
:101038007DAB000870B504463C480378182B02D1F4
:101048000B78112B31D0013A0B468D18AB4225D1C4
:101058008B5C0A780370A2F13003092B344C04D955
:1010680022F02003413B052B04D823683149CA5498
:10107800013323602368022B34D110222D4800212C
:1010880004F078FD2C4A136803F8010B13602B4A0F
:101098001368013313600023236023E013F8016B06
:1010A800182ED3D11E78112ED0D1244D244A2B6866
:1010B8000821204606F082FA20460021FFF792FF19
:1010C800204B187870B9204A2B681168042B0ADC69
:1010D80008B111602B6013F003010BD1126813687B
:1010E8001BBA136070BD086800BA41F8040B043BD2
:1010F8000120EBE75B4203F0030358BF5942022982
:1011080004D1126813885BBA9BB2EAE70329E9D1D4
:10111800106802681104C2F3074301F47F010B430E
:1011280002F47F4213430360DCE700BFB10A0020EA
:1011380054060020B30A002060060020580600204C
:10114800A7AB0008B20A00205C0600202DE9F84F82
:101158000C462B49DFF8AC80DFF8AC90DFF8ACB078
:1011680000230B602A4988F8003006460B601546B4
:10117800012C2F4655F804AF1ED902224946504685
:1011880008F042F880B99AF80220003A18BF012204
:10119800924420490222504608F036F830B901231B
:1011A80088F80030013CE3E70022F1E74946504661
:1011B800FFF7C8F9A8B9043700221146786804F087
:1011C80069FC154B002211461860786804F062FC2F
:1011D800124B134918603046FFF704FF0020BDE8A2
:1011E800F88F9AF800202D2AE6D19AF80120002AD3
:1011F800E2D053465A460821304606F0DFF9D1E7D7
:1012080054060020B20A0020C1AB0008C7AB000892
:1012180058060020C4AB0008600600205C060020C9
:101228003D10000813B5094807F0FAFB58B1084A01
:1012380006491268074800240094012300F0BAFD0B
:10124800204602B010BD6FF01200FAE7C8960008F9
:10125800F89E0008509A000810B54468C4E90012C6
:10126800A36042684023D364114B13630023082111
:10127800C2E90E33C2E91133C2E90633C2E90933C0
:10128800D16214680B49536313641161536113628B
:10129800C2F88830A36823B19B6C13B10649204675
:1012A8009847A3689B6A0BB120469847002010BD59
:1012B800C8830020C08300205573000810B58168DA
:1012C8000446083101F076FBA168034A204608313C
:1012D800BDE8104001F014BB3CAD000838B5836888
:1012E800D3F86432DB0704461AD4406803685B68A5
:1012F8009847054620B9E06806F001FDA3681D710E
:10130800A3685B6B13B1294620469847A36808F089
:1013180019F90022C3F80C23034B185801F042FFB7
:101328006FF00F05ECE700BF08000000014906F068
:10133800C1B800BF8FA80008F7B504468068D0F888
:1013480064325A070D4605D5002106F0D7F8E06843
:1013580006F0A7FCE368DB6873B9002D39D0A668EE
:1013680006F14207384606F09FF8002833D0394680
:1013780006F5A170FFF7F0F8A268E0680DF1060322
:101388004232294606F090FC58B9A06800F5A171D0
:101398004230FFF7E1F8A068423006F085F8ADF872
:1013A8000600204606F0A1FAA368D3F860329B062F
:1013B80003D50A49606906F07DF8204601F0C6F8B1
:1013C800A268BDF80630D387A2682046938706F046
:1013D80036FA03B0F0BD86F84201CDE7C89A000896
:1013E8002DE9F04F9FB004463422002111A808F0DF
:1013F80098F80023CDE90533A368204642330293C9
:1014080006F079FA204606F003FA10B96069FFF78A
:101418008DFFA06814220021083008F082F82046C9
:1014280000F0B8FFA168E0688A8F4231002606F014
:1014380072FC204606F0F1FC4FF0FF37B2460396E7
:101448000DF14408B3463546B146DDE90532012AB7
:101458006CD00B2B6DD857BBBBF1000F09D02046C1
:1014680006F0FBFCA2680C23423211A905A800F083
:1014780045FEB9F1000F0CD099F81130FE2B08D1B8
:10148800059B1EAA02EB830252F8342C0AB10133E1
:101498000593A068059D4369002B40F0B680CEB146
:1014A800C3689E422DD00D9600F1080524E0029AEB
:1014B8000223414606A800F021FE0699D8F8042028
:1014C8000292034631B101290AD148B16C4A20463B
:1014D80006F0B9FA6FF0070528461FB0BDE8F08F8F
:1014E800059B002B34D0D8F8000001F083FA98B19E
:1014F80066B1A5680D9608350CAE0FCE0FC53368DA
:101508002B602046FFF7DAFE0125E5E75D4A012159
:10151800204606F098FADDE7059BCBB1D8F8002005
:101528002946204601F018FC022809D1059B0B2BFF
:1015380092D9069B022B8FD1534B544A0121C6E7FF
:10154800032805D0059B013305934FF0010B7CE779
:10155800039B33B9D8F8001007AA484606F0E0F80C
:10156800054608F10408013F9DB3EB68BBF1000F85
:1015780008D0F3B1204606F0BEF9204606F05FF920
:10158800434AC4E7ABB1A368DDF814A0AE4603F143
:10159800080CBEE80F00ACE80F00DEF80030CCF80D
:1015A8000030AB682BB96B7CFE2B04BF2F7C07F196
:1015B800FF37D5F804C0BCF1000F08D0AE46BEE82E
:1015C8000F000CAE0FC6DEF8003033606646A94641
:1015D80003E0059B53B101230393069B17B9022B24
:1015E8007FF433AF059B013305932EE7A368DB69CE
:1015F80013B1DB68002BEED1264B0093264A119BD2
:101608000121204606F01FFAE5E7037EA5EB0A054F
:10161800B3B1417E4FF6FF72FF2918BF0A469D42BB
:1016280002D313449D420BD983681C4A01212046EA
:1016380006F009FA2046FFF741FE6FF015054BE763
:10164800012105F050FFA06800F53E7005F06FFF1E
:10165800A36811AA294602EB8A025B6920469847CB
:101668000546A0684FF0FF324FF0FF3300F53E709B
:1016780005F02DFFA068002105F035FF2CE700BF1D
:101688004AAD00085EAD0008BFAD000816A7000807
:101698007CAD0008ABAD0008AEB00008E3AD0008B3
:1016A80010B5836802221A7183689B6B0446BBB924
:1016B80005F0BDFE8368D3F86432DB040BD5032143
:1016C800084B094A06F0BFF9A0686FF4805100F58D
:1016D800197005F0C4FE2046BDE8104001F080B83E
:1016E80010BD00BFFEAD000843AA00082DE9F04F69
:1016F80004468068A9B0012100F5197005F0A0FE24
:10170800A3681B79022B20D100230993A368606882
:101718009E6B03681D6909AB0EB310221BA9A8476D
:10172800099B93B1A068012105F0DDFE099A1BA968
:101738002046B047A068002105F0D5FEA3689B6B42
:10174800002BE3D12046FFF7ABFFA0686FF0010143
:1017580000F5197029B0BDE8F04F05F080BE0122F0
:101768000DF12301A847099B002BEED09DF923100A
:101778009DF82330A2680029C8DB5179032900F2BB
:101788000A83DFE811F004008902A10208030D2B87
:1017980055D00A2B32D0B2F864126FF3CA01A2F8FE
:1017A8006412092BA0685FD013D8002BAED0082B89
:1017B80000F0D7815A1C8949A068D2B28A5C12F01D
:1017C800970F00F0DA81012105F098FE9DF82310AB
:1017D800FAE01B2B45D07F2BECD1D0F860329D0767
:1017E80094D5012105F08AFEA368D3F86032190761
:1017F80000F1BF81204606F068F987E7D2F8641245
:10180800C1F3C70129B1D2F86412C1F3C7010A298B
:10181800D0D1B2F8641263F3CA01A2F86412A568C1
:10182800A98FC1B9284605F069FEE06806F039FAC3
:101838006069FFF77BFD2046FFF732FF66E7D2F8C5
:101848006412C1F3C7010029E3D0D2F86412C1F3CE
:10185800C7010D29DCE72046FFF7C2FDC5F81003D4
:10186800E9E70123437151E7D0F860329A077FF521
:101878004DAF012105F042FEA068838FFF2B3FF496
:1018880045AFC28F00F1420100F5A17007F021FEBB
:10189800A368DA8F1344002583F84251A2681BA974
:1018A8000C2302F5A1720BA800F028FC0B990C2957
:1018B8003FF62CAF28AB03EB8103DFF824A143F8F4
:1018C800345CA368DA8F134493F841301AF8033074
:1018D80019B11B0752D401294FD100250A950A9B3B
:1018E80028AA02EB8303002653F834BC584605F0B7
:1018F800DBFD374681460496B04616AA414628467F
:1019080000F0D8FC0346002844D1012ED4F8088002
:1019180068D10A9B28AA02EB830353F8340C05F01C
:10192800C3FD08F1080206463946284600F0C2FC05
:101938000568284605F0B8FD864205D0821B92B29C
:10194800A919204606F0BFF8A068C38F034493F88E
:1019580042301AF8031011F0080139D1D0F860327A
:10196800DF0730D505F0D4FD2021204600F002FF26
:10197800A068012105F0CCFDC8E6013900200CABB8
:10198800009301900AAB1BAA05F0F5FE0546002856
:10199800A5D1BBE61B6803934A465946184607F08B
:1019A80033FC68B9039B1846FEF7DEFD049B8342AF
:1019B80038BF03469BB2002E08BF47460493013642
:1019C80008F1010899E72021204600F0D3FE9DE6A2
:1019D8000121204605F065FF98E600BFA9B7000879
:1019E800AAB7000805907FF691AE0A9A28AB03EBD8
:1019F8008202B94652F8343C0393184605F054FD68
:101A0800059B0690A8F830300596A268494608322A
:101A1800284600F04FFC039BD0F800B009F10109FB
:101A28004BB1BBF1000F06D0069A1946584607F08D
:101A3800EBFB0028E9D1D4F808A0BBF1000F4ED188
:101A4800AAF830B0059B013B0593DED16069FFF72A
:101A58006DFC204600F0C4FE0A9B28AA02EB830313
:101A680007F1010953F8340C05F01EFD394611AA97
:101A78008046284600F01EFC0746A0683968FF2209
:101A880000F5A17007F0D2FB3B6803934FF6FF7790
:101A9800BA4616AA4946284609F1010B00F00AFC85
:101AA800002852D0A168036801F24111002211F800
:101AB80001EF985C704503D110B101325245F6D15F
:101AC800B8F1000F01D0424507DBBA4206F1FF36F4
:101AD800A8BF3A46012E97B237D0D946D9E7AF48C2
:101AE80005F0E2FC049B00EB0308BAF82A301FFA61
:101AF80088F81B1A584693FBF8F39BB2079305F036
:101B0800D3FCBAF83010079BB1FBF3F2A8EB00083E
:101B1800481C03FB121189B21FFA88F8AAF8300092
:101B280061B99E4B9E4ACDF800B00621204605F0CB
:101B38008AFF4146204600F0B7FC83E7994A5B4696
:101B48000621204605F07FFFF3E7002F3FF4DEADC6
:101B58000399A7EB080292B24144204605F0B3FF6F
:101B6800D4E5D0F860329E077FF5D0AD012105F0AD
:101B7800C5FC204605F0C4FFC8E5D0F860229207EE
:101B88007FF5C4AD013B162B3FF6C0AD01A252F85C
:101B980023F000BF711D0008F91B0008011C000894
:101BA800FD170008651D00081F1C00081517000810
:101BB800151700081517000815170008271C000836
:101BC8002F1C000815170008591C000815170008D5
:101BD800631C0008151700081517000815170008DA
:101BE80015170008671C000815170008911C000845
:101BF800204605F087FE89E5204605F07CFE204654
:101C080005F006FE10B96069FFF790FBA068012196
:101C180005F074FC0FE6204605F07CFE76E52046CC
:101C280005F081FE72E5D0F860329F0603D55E4963
:101C3800606905F03FFCA368D3F860329E0603D5BF
:101C48005A49606905F036FC204600F0C9FD5DE59B
:101C580000212046FFF770FB58E50121F9E72046EF
:101C680005F043FE204605F0E2FB0121A06805F0DF
:101C780045FCA368D3F860329D067FF547AD4C4913
:101C8800606905F017FC41E5204600F0D9FCA06822
:101C9800012105F033FC39E55B2B02D10223537196
:101CA80034E5D2F86022900706D5622B08D14FF0B0
:101CB800FF31204600F00EFCA36800225A7125E58A
:101CC800662BF9D10121F4E700215171A268D2F8FD
:101CD800601289077FF51AAD313B1B2B3FF616AD15
:101CE80001A151F823F000BF6D1D0008791D0008FF
:101CF8008D1D0008611D000815170008151700083C
:101D080015170008151700081517000815170008FB
:101D180015170008151700081517000815170008EB
:101D28001517000815170008631C0008591C00083F
:101D38001F1C0008F91B000815170008651D00087E
:101D480015170008711D0008151700081517000859
:101D5800151700087D1D000803235371204605F060
:101D6800CAFDD3E403235371204605F0BEFDCDE43C
:101D780003235371A068D0F8601201F0010181F0CB
:101D88000101F7E503235371A368D3F860329B0779
:101D98007FF5BCAC2EE5002381E700BF0EB000083C
:101DA80042AE000843AA0008CD9A0008D29A00085B
:101DB800C89A00082DE9F043044680688846D0F8A0
:101DC8000C1389B015461F46002967D14FF4457298
:101DD80007F0A7FBA36822681A60E06806F003F81A
:101DE800A06800F53E7006F09EFE4FF42A794FF485
:101DF8001A76A068304407F0C5F9A0680022831954
:101E080001214844103607F093F9B6F52A7F09F105
:101E18001409EED1A36900261E60A068022100F50E
:101E2800197005F00DFBA36850225A85A368182283
:101E38001A85D4F80890D9F8000005F035FB89F820
:101E48002C00A368174A66F38205C3F860526068DD
:101E5800036841461D682346A8470546D0B9A368CC
:101E680001221A71D4E9090100220023CDE90623D1
:101E78000E230393109B0495CDE9017300940A4B3C
:101E88004FF4005202F02AFDA368C3F80C03216A3C
:101E980002F04EFC284609B0BDE8F0836FF07705E4
:101EA800F8E700BFDB740008091F000810B50446F6
:101EB80080680379012B1DD14FF0FF324FF0FF33BB
:101EC80000F53E7005F003FB2046082100F07AFB80
:101ED800206805F0E9FA18B10849606905F0EAFADE
:101EE8002046FFF7DDFBA06800F53E7005F01FFBFC
:101EF800002010BD6FF08500FBE700BF8EA800082A
:101F0800F8B504464068036800219B689847002894
:101F18003FD12046FFF7CAFF00283AD11D4E1E4F79
:101F2800A06800F52A704FF0FF324FF0FF3303210D
:101F380003F00CFC0546A0684FF0FF324FF0FF336A
:101F480000F53E7075B105F0C2FA20462B46134ADB
:101F5800012105F078FDA068BDE8F84000F53E7065
:101F680005F0E5BA05F0B3FA32460221204605F03D
:101F780085FA20463A46294605F080FA60680368E3
:101F88005B6903B19847A06800F53E7005F0CFFA89
:101F9800C6E7F8BDE5120008F516000848AE0008C7
:101FA80010B50D4A0446082105F008FB20460B4AE7
:101FB800082105F003FB2046094A082105F0FEFA2E
:101FC8002046084A082105F0F9FA2046064A002169
:101FD80000F096FC002010BD5FAE00089DAE000822
:101FE800FCAE000850AF0008EAAF0008F8B51E467E
:101FF80017460B462F4A0821044605F0DFFA6EB350
:102008003B782D4A0821204605F0D8FA01256A07B1
:1020180004D12A4A0821204605F0D0FAAE4223D935
:102028007B5D254A0821204605F0C8FA0135102DA8
:10203800EDD1234A0821204605F0C0FAD6B91F4A37
:102048000821204605F0BAFA0125AE422B4613D8DE
:102058001A4A0821204605F0B1FA19E0194A082160
:10206800204605F0ABFA0125164A0821204605F05E
:10207800A5FADBE700252B46FB5C134AD25C12F07D
:10208800970F08BF2E23114A0821204605F096FA1B
:102098000135102D07D06B07D7D1084A08212046F3
:1020A80005F08CFAD1E72046094ABDE8F840082136
:1020B80005F084BA00B0000807B000080FB00008A7
:1020C80011B000080DB00008AAB7000833B0000826
:1020D80013B0000810B5044613460A4601460648E0
:1020E80001F0C0FA23691B7923B12046BDE81040EE
:1020F80005F08FBA10BD00BF337600082DE9F04F08
:1021080085B00026DFF8A8A1019107461446994634
:102118000660B3462378002B00F0C6801AF8033017
:1021280013F0080304D004F801BBF3E70026F1E735
:102138003A68511C3960019941F822403A684A4589
:1021480000F0B2801E4621780029E3D0A6B90E46D9
:1021580023461C46272E04D05C2E20D0222E40F089
:102168009780204605F07FFA611C0246204607F05A
:10217800BEF921780029CDD0B142A04604F101046E
:102188001BD1404605F06FFA21460246404607F04B
:10219800AEF998F800604446002ED9D1BAE7204637
:1021A80005F061FA651C02462946204607F09FF9AA
:1021B80066782C46002ECDD1ACE75C2998F8011042
:1021C800D8D1B1428C4608D1404605F04CFA214698
:1021D8000246404607F08BF9B5E7302925D100259E
:1021E800022218F802C0ACF13000C0B2072819D892
:1021F800ED000132EDB2052A45EA0005F1D1511E84
:10220800414440460392029105F02DFA039A02993F
:10221800023A821A404607F06AF998F8011088F8DD
:102228000050A7E7D2B2022AE9D1BCF1780F2AD12F
:102238000025022018F80020A2F1300C5FFA8CFC6F
:10224800BCF1090F09D82D01EDB24CEA05050228A9
:1022580001D00422D3E70320ECE7A2F1610CBCF122
:10226800050F05D82D01EDB2573A1543EDB2EEE74B
:10227800A2F1410CBCF1050F03D82D01EDB2373A9C
:10228800F3E7022802D108F1010473E70322B6E755
:102298001AF806301B073FF549AF6678631C002E15
:1022A8007FF457AF1C4635E7304605B0BDE8F08FE0
:1022B800AAB7000838B50B46154648B91449154A57
:1022C800521AB3EB920F05D251F82350284638BD65
:1022D80084680CB90025F9E70F4A94420AD30F4ADB
:1022E800944207D218462268294690472B68002B4B
:1022F800ECD1EFE70A4A944202D30A4A944205D342
:10230800246814225343E518E358F0E70133F8E74B
:102318007C9A0008A89A0008BC9A0008BC9A000891
:10232800A89A0008BC9A00082DE9F843074648B166
:1023380005F099F90025DFF8589004462E46631EEB
:102348009D4201DBBDE8F883284601353B5C19F85E
:1023580003301B07ADB2F2D529468BB2A342EED2A9
:102368007B5C19F8038018F0080803D001360131A6
:10237800B6B2F2E7002EE2D08AB2A21A0130A41B4C
:1023880001323944384407F0B2F8A4B24646D6E7D9
:10239800AAB70008F8B5846894F84230054653B9DE
:1023A800AB689A8FDA87F8BD013A92B2A2872AB948
:1023B80084F84220F4E7124E04F14200A28F8318F9
:1023C80013F8013CF35C13F00803EDD183549AB27F
:1023D80010FA83F110F802C016F80CC01CF0080FB0
:1023E8001F4603F10103F2D1BFB2002FD8D0A68F48
:1023F800731C9A1AF61B07F07AF8A687D0E700BF75
:10240800AAB70008F7B51646027800232D2A044615
:10241800019305D16FF015033360002003B0F0BDC0
:1024280007F090F80B4F0546C3510A46204601A90C
:1024380003F0A0FBEB59222B02D16FF02103EBE74D
:10244800002BE7D1019BA342E4D01B78002BE5D0F9
:10245800E0E700BF0C0000008368D3F860329B06F9
:1024680003D50249406905F0B4B97047D89A000805
:10247800014905F0AEB900BF8FA800080A1E0DDC9F
:102488000ED042238168D1F86012890608D5002A47
:1024980004494069B8BF524205F09BB94123F1E7AE
:1024A800704700BF2FB000080A1E0DDC0ED0442371
:1024B8008168D1F86012890608D5002A0449406964
:1024C800B8BF524205F085B94323F1E7704700BF12
:1024D8002FB000082DE9F0410C1E064631DA64429F
:1024E80024B24FF0FF35DFF86080A4B2AFB212E03B
:1024F800B368DA8F03F1420C9B8F1146002071B943
:10250800B5F1FF3F00D073B9891A09B2304605F01A
:10251800C8F9013CA4B2002CEAD1BDE8F0818B4295
:1025280001D1012DF0D01CF801E018F80EE01EF0E2
:10253800070F04D10028E7D1394489B2DFE7012029
:10254800FAE70125CFE700BFAAB700082DE9F04751
:102558008568DFF86890044605F14200FEF704F844
:10256800002395F82C7086B29846A268558DED1B0D
:10257800B54209DB002E1FDD423360691049BDE812
:10258800F0471A4405F025B91D442A44423392F80D
:1025980042A082F84280A26860691A44494605F060
:1025A80018F9A3682B4483F842A0A3685B8DDB1B52
:1025B800F61A00272B46D8E7BDE8F08716A70008CB
:1025C80043AA000808290A4617D8836893F82E10EA
:1025D800914212D083F82E208368082AD3F86032FB
:1025E80005D0990609D50549406905F0F2B89B065A
:1025F80003D50349406905F0ECB8704736B00008C8
:10260800DD9A000838B50D4609780446FFF7DAFF69
:102618006A78072A11D8A36893F82F1091420CD032
:1026280083F82F20A368D3F860329B0605D560692C
:102638000249BDE8384005F0CCB838BD3FB00008C5
:10264800F8B583689A8F0446002A51D0D98F00299B
:102658004ED0413103F142050B441846A84206D337
:10266800014611F80169202E39D0A84239D286B224
:102678009DB2AB1B9BB2591C471CD21A0144384669
:1026880006F035FFA268938F711B13FA81F39387C5
:10269800A3689A8F1344002283F8422009B2204687
:1026A80005F0FFF8A368D3F860329A0603D51149FC
:1026B800606905F08EF83B460F4A0821204605F070
:1026C800C2F92046FFF7C8FEA368D3F860329B061C
:1026D8000ED560690949BDE8F84005F07AB80846A2
:1026E800BCE7014611F80169202EC0D00846BCE7B6
:1026F800F8BD00BFE29A000843AA0008E69A00085D
:102708002DE9F04104460D4617460AB1FFF7A4FE2D
:10271800A368DA8FD3F86012423213444A071FD5F0
:102728001846FDF721FFDFF84480064696B9A368EE
:102738009A8FDA87A06805F059F820B107B115B16A
:102748006069FFF795FE6942204609B2BDE8F0418D
:1027580005F0A7B86069414605F03BF8013EE5E79A
:10276800034A0821204605F06EF9E0E791A7000822
:1027780043AA000813B583688DF80710D3F86022C0
:102788000446D00722D5D98F9A8F8A421ED0481C7A
:10279800D8870B449DF8072083F84220A368D3F814
:1027A8006012890710D5D3F8603260690B4913F0BD
:1027B800040F18BF2A2205F00CF8204605F028F867
:1027C80010B16069FFF754FE02B010BD01220DF18F
:1027D8000701204605F044F9F6E700BF33B00008CA
:1027E80010B58368094A1B680446022105F02BF9D5
:1027F800A368D3F860329B0707D52046FFF7A6FEEB
:102808002046BDE8104005F029B810BD43AA0008CD
:10281800014905F086B900BF8FA800082DE9F047E7
:10282800054690460E46002965D0DFF8D090002472
:10283800335D19F803301A071ED43046FDF794FEAD
:10284800AB685A8D80B2001BA2EB0803984206EBD6
:10285800040A13D95146002711F8010B19F800C0D2
:102868001CF0080F02D00A282DD03B4608EB0700C1
:10287800824227D90137EFE70134D9E753460027C9
:10288800B84214D013F8012B0A2A19D1686904F048
:10289800C0FE51463A46284605F06AF86869FFF7CF
:1028A800B7FF0134414628463C44FFF7FDFD6869FF
:1028B800311905F036F96869BDE8F047FFF7A8BF98
:1028C8000137DDE71F46686904F0A3FE3A46514622
:1028D800284605F04DF83C44335D19F803301B07D2
:1028E80007D46869FFF794FF41462846FFF7DCFDE7
:1028F800A3E70134F0E7BDE8F08700BFAAB70008F6
:102908002DE9F04F0E46002189B0044617460D46C2
:1029180003AA304601F10108FFF7CCFCB0B995B124
:1029280027B13A460821204605F08DF81E4FDFF8FA
:102938007C90DFF87CA0002103AA304601F1010851
:10294800FFF7B8FC60B909B0BDE8F08F006810B1B6
:10295800FDF70AFE80B2854238BF05464146D7E7F3
:1029680003688BB11A787AB1D0F804B04A46CDE939
:10297800005308213B46204605F065F8BBF1000FDF
:1029880004D16069FFF744FF4146D5E75246204627
:102998003B46082105F057F86A1D92B25946204671
:1029A800FFF73CFFF0E700BF61B0000848B000083F
:1029B8004FB00008F7B50F6805460E46A7B1384670
:1029C800FDF7D2FD84B2094B00932846084A3B46DE
:1029D800082105F038F8E21C716892B2284603B065
:1029E800BDE8F040FFF71ABF3C46ECE75DB00008D1
:1029F80043AE000810B507490446FDF7A3FD38B1FA
:102A080005492046FDF79EFDB0FA80F0400910BD4B
:102A18000120FCE753B0000856B0000810B58368E1
:102A2800D3F860329B06044603D50649406905F091
:102A38008BF8A36850225A85A36818221A850020AB
:102A480010BD00BFEA9A000808B58369034A1B68ED
:102A5800082104F0B3FD002008BD00BF64B00008E1
:102A68002DE9F3410F4A104C104EDFF8448008213D
:102A7800054604F0A3FD0023B44203F1010703D384
:102A8800002002B0BDE8F0812A6A0192A2681268AB
:102A980000929BB242460821284604F08FFD2C3450
:102AA8003B46E9E774B00008509A00087C9A000891
:102AB8008CB0000808B5024904F08DFD002008BD5F
:102AC80090A800087FB50F4E04460025A268E0686C
:102AD8000DF10E0302F5A172012105F0E5F8BDF82C
:102AE8000E00A36850B103F5A173009332462B463C
:102AF8000821204604F062FD0135E7E783F842012A
:102B080004B070BD9DB0000810B5044604F073FD14
:102B1800034A03460821204604F050FD002010BD5A
:102B2800BDAB0008022907B50DD1536801930E4BC0
:102B3800009313680D4A012104F040FD6FF0150061
:102B480003B05DF804FB8368094AD3F8603213F0D8
:102B5800020F4FF00801074B08BF1346064A04F05E
:102B68002DFD0020ECE700BFB4B00008ABB00008B2
:102B7800A7B0000807AA0008C9B0000810B5836804
:102B8800D3F860329A06044603D50749406904F031
:102B9800DBFFA368D3F860329B0603D5034960695D
:102BA80004F0D2FF002010BDF19A0008F69A000840
:102BB800F0B5012985B004460CD053680193604BE9
:102BC800009313685F4A012104F0F8FC6FF01500C8
:102BD80005B0F0BD8368D3F86032990603D55A4929
:102BE800406904F0B1FF6FF0F9012046FFF746FC99
:102BF800FA212046FFF758FCA06800254FF48072A0
:102C0800294600F5A1708DF80B5006F08AFC4F4953
:102C1800606904F099FF606904F0FBFC4FF47A7670
:102C28006068036801221F690DF10B0103ABB84707
:102C3800039BF3B9013E4FF47A70B6B201F0F2FB90
:102C4800002EEDD1A368D3F860329B0603D5404926
:102C5800606904F079FFA36850225A85A368182296
:102C68001A8520463B4A032104F0A8FC6FF00700B0
:102C7800AEE79DF80B20A3681B2A53D093F84211A6
:102C88001B29CDD1522A4DD15A19002382F842313D
:102C9800A66896F843215B2A2BD106F24310022539
:102CA80010F8011F2A463B2905F10105ADB223D1D1
:102CB800FF2AC7D002F5A17216FA82F1002211F894
:102CC800010F18BB86F84201FA2AA16828BFFA2228
:102CD8004A85FA2BA26828BFFA231385A368D3F87C
:102CE80060329A0603D51A49606904F02DFF002066
:102CF8006EE786F84231A5E703EB8303303901EB31
:102D08004301B5F5807F8BB2CAD19BE7013502EB51
:102D18008202ADB2303800EB4200B5F5807F82B256
:102D2800CDD18FE72B440135ADB2092D83F842216F
:102D38007FF676AFA368002283F8422182E700BFBE
:102D4800B4B00008ABB00008FC9A000814B1000841
:102D5800009B0008DAB000082DE9F04F074689B05B
:102D68001546894621B1104605F043F800285BD185
:102D7800032455E05C463CE029460AF5A17006F0BC
:102D880071FA0646002854D0FDF7EEFB82B2601CAB
:102D980001323146304406F0AAFB224659463046F5
:102DA80006F097FB4FF020033355BAF84030013353
:102DB8001C44AAF8404008F10108002401994B1C62
:102DC80003AA48460193FFF775FA0646E8B1316849
:102DD8000022284605F0C8F90028EFD1D6F800B03F
:102DE800D7F808A0BBF1000FC4D05846FDF7BCFBCC
:102DF80084B2BAF840302344FF2BBDDD0E4A2B467F
:102E08000321384604F01FFE0124B8F1000F07D053
:102E1800B8682A4600F1400100F5A17004F059FC99
:102E2800204609B0BDE8F08F4FF000084146022463
:102E3800C5E70224E9E700BFDCB5000830BFFFF7AB
:102E4800FDBF00BF124B134A2DE9F041D518DFF83A
:102E58004880013DB5FBF3F55D43104B08EB0304D7
:102E6800013CB4FBF3F403FB04540E1B07460C4966
:102E7800304606F02EFB701942460021083E06F047
:102E880050FBC7F8B86004F10800BDE8F08100BF46
:102E9800010000000000000008000000040000001D
:102EA800BC9A0008044B9968D869884203D0034942
:102EB8004FF080520A607047F004002004ED00E0F3
:102EC80070B5264B15469A6A12F0100F9A6A14BF0D
:102ED8001124102412F0080F9A6A18BF12249207BE
:102EE80006460AD5586B9A6A140634D519B19A6AF7
:102EF80022F080029A62132401E06FF01500174B4C
:102F08009A6A12F0010F9A6A18BF142412F0200F5F
:102F18009A6A18BF1524D20602D49B6A9B070AD561
:102F28000E4B5B68190506D5314600F01FFA10B143
:102F380080F309880224094B9A6A920642BF5A6AAA
:102F480022F400525A629A6A42F0FF029A620023FF
:102F58002B70204670BD6FF01500CCE700ED00E047
:102F6800134B9A6A12F0007F9A6A14BF1E201D2024
:102F780012F0807F9A6A18BF1F2012F4002F9A6AF5
:102F880018BF212012F4802F9A6A18BF222012F449
:102F9800003F9A6A18BF232012F4803F9A6A6FEAAA
:102FA80002426FEA12429A6218BF2420704700BF9B
:102FB80000ED00E010B5194B0246986A9C6A10F4BF
:102FC800805F14BF1720162014F4006F9C6A18BF86
:102FD8001820A40509D5986B986A000404D51AB17D
:102FE8009A6A22F400429A6219200C4B9A6A12F4E7
:102FF800806F9A6A18BF1A20D2050CD49B6A13F402
:10300800005F18BF1C20054A936A43F47F4393620C
:1030180000230B7010BD1B20F5E700BF00ED00E09A
:10302800F0B5484B5B688BB00446C3F30803002532
:1030380085F31188BFF36F8F02F07F40B0F17F4FA7
:1030480011D102F00C0008280DD010074CBF0C4617
:1030580001250022033B8DF80720032B05D8DFE864
:1030680003F0246367602C46F3E700239DF80720EC
:10307800CAB902AE04F1200720686168324603C26B
:103088000834BC421646F7D1099A002D54D0C2F331
:10309800080121B96FEA52226FEA4222099202A975
:1030A800184604F0E9FE0BB0F0BD264BDA6A91072A
:1030B800DBD4DA6A002AD8DBDA6A5200D5D55A6935
:1030C800A16942F480725A61BFF34F8FBFF36F8FCB
:1030D8005A6931F8021C22F480725A61BFF34F8F8B
:1030E800BFF36F8F4DF6027291420AD09A6AD2B23C
:1030F8004AB10DF1070201212046FFF7E1FE034620
:10310800B4E72368B2E79A6A12F47F4F05D00DF14D
:1031180007010120FFF74EFFF1E79B6AB3F5803FF7
:10312800A3D3FFF71DFFEAE70DF107020021E3E74C
:103138000DF107010020EDE722F4FF7222F00102F1
:10314800ACE700BF00ED00E0024A536943F010030A
:103158005361704700ED00E0EFF30880EFF3098159
:1031680001B57246FFF75CFF01BD00BF102080F378
:1031780011880B484FF0AA014FF4046205F067FC70
:1031880007484FF40461401880F30988EFF314806E
:103198000221084380F31488BFF36F8F00F0A6F86C
:1031A800802F0020084B9B6883420BD1EFF30583E7
:1031B80043B1064B5A6842F080525A605A6A22F468
:1031C80000425A6205F019BEF004002000ED00E04C
:1031D8000A4A93686FF00A01C3F8C0100849C3F897
:1031E800BC004B6843F080534B60002383F3118885
:1031F800BFF36F8F9368D3F8C0007047F0040020C6
:1032080000ED00E001B505F041FCBDE801401949B9
:103218008A684FF040001044EFF3098C80E8F01FF3
:10322800102080F31288BFF36F8F134F4FF00066A2
:10323800CA698A603E604FF0B804141920680F4CC0
:103248002060D2F8BC000023C2F8BC3080F311889B
:1032580004B5104600F002F9BDE8044002F1400050
:1032680090E8F01F8CF3098801B501F0AFFBBDE8C9
:1032780001407047F004002004ED00E07C090020C4
:103288001EF0040F0CBFEFF30880EFF3098081698B
:1032980011F8021C0229FFD001B504F0EFFD01BDB1
:1032A80040B2002807DB044A4109012300F01F004F
:1032B800834042F82130704700E100E040B2002826
:1032C800A8BF00F1604001F10101B8BF064B4FEA09
:1032D8000111ACBF00F5614000F00F00C9B2B4BFE6
:1032E800195480F80013704714ED00E00F4A08B530
:1032F8000F4B22F07F029A60BFF34F8FBFF36F8F9F
:10330800D3F8882022F47002C3F88820EFF31483DE
:1033180023F0040383F31488BFF36F8F01F0FCF8E4
:1033280002F0BAF800F06EF801F056F90000000853
:1033380000ED00E042F8203C009B42F81C3C0A49A2
:10334800019B42F8183C029B42F8143C21F0010111
:103358004FF0807342F8043C42F8081C0023203ADE
:103368000266C0F8BC307047AD0900080A4A034637
:10337800906878B113F1160FD0F8A80005D0A0F125
:1033880040029A4205D8834203D2814228BF0020D6
:1033980070470020704700BFF004002008B50D4BAF
:1033A80098600D4B04461546D0F8B8201A600E46B2
:1033B80001F00CFB204600F051F8284686F30988F6
:1033C800002163B681F31188BFF36F8F00220023B9
:1033D800FDF7E8FAF00400207C09002001491022DA
:1033E8000A60704710ED00E072B6404080F3118823
:1033F800BFF36F8FBFF34F8F30BF62B6BFF36F8FCE
:10340800704700BF044800231021C2180133662BFF
:1034180082F80013F9D1704700E100E001B5EFF33D
:103428000580A0F110004FEAC0000449014409C911
:103438009847BDE80140024908470000F096000897
:10344800AD2E0008024B034A0348012100F042B8A0
:10345800000002200000002004A20008D0F8A820E4
:10346800054B403A1A60054A4021C3E90112184643
:10347800012100F039B800BF8009002000000B15B9
:10348800084AC2F898000B6823F01F03034343F06F
:103498001003C2F89C308B6843F00103C2F8A030D7
:1034A800704700BF00ED00E0044B0522C3F89420EC
:1034B800BFF34F8FBFF36F8F704700BF00ED00E081
:1034C800BFF35F8F024B0022C3F89420704700BF00
:1034D80000ED00E010B5034C0123227804F0EDFC68
:1034E800207010BDD30A002008B5094A00231278BD
:1034F80004F0E3FC10F1160F03D0064B0022072856
:1035080000DD08BDC3F89800C3F8A0200130F6E735
:10351800D30A002000ED00E0F0B5454D2C68082CDA
:1035280085B000F28280FFF7CBFF00200C26844292
:103538000DD1404D404F2C706846FDF77DFA0024B0
:103548000646A6420AD1FFF7AFFF00201CE06968D3
:1035580006FB0011FFF794FF0130E8E7009800EB45
:1035680004114FEA041CCB683B40B3F5000F4AD066
:103578000CD8B3F5001F30D0B3F5800F38D0B3F5B1
:10358800801F12D06FF0150005B0F0BDB3F1807F39
:1035980042D0B3F1007FF5D150F80C3088684A6802
:1035A80004F07BFC40F4802009E050F80C30886877
:1035B8004A6804F072FC40F0885040F430200390D0
:1035C80028780728CDE90123DCD801A9FFF758FF9F
:1035D8002B7801332B700134B3E750F80C3088682E
:1035E8004A6804F05AFC40F0885040F40020E6E7AE
:1035F80050F80C3088684A6804F04FFC40F0E060EE
:1036080040F40030DBE750F80C3088684A6804F072
:1036180044FC40F08270D2E750F80C3088684A6861
:1036280004F03BFC40F08870C9E74FF0FF30ABE78F
:1036380010A20008D30A00200000F0FF08B5024BD2
:103648001B689847002008BD8C090020034B044ADA
:103658001860937843F00203937070478C09002038
:1036680084000020F0B587B007460E4614460021B6
:10367800102268461D4605F054FF02238DF80230DB
:103688002A46054B019321466846CDE9047602F0A7
:1036980071FB07B0F0BD00BF1F7F000808B50649E1
:1036A800064821F00701C1F1005202F5003203F08B
:1036B8000AFD002008BD00BF0F84002090090020EB
:1036C8000B0706D5034B1B5C03F00303012B08BF54
:1036D80020307047AAB700082DE9F0410F4E104F6F
:1036E800054600244FF001082B7853FA84F01F2870
:1036F8000DDC726908FA00F333EA020207D173613C
:1037080057F830301BB107EBC002516898476A7808
:103718000134E3B29A42E7D2BDE8F08100040140E7
:103728009C090020044B184400230133994200F8F7
:10373800012BFADC704700BFF400002010B4064BE0
:10374800064902460C6818560123934023430B6030
:1037580010BCFFF7A5BD00BFF40000200004014025
:103768001F2806DC034901220B68824023EA020372
:103778000B6070470004014003292AD8DFE801F0F4
:10378800020E141F134B01229968824021EA02019C
:103798009960D96821EA0202DA6070470D4B01226C
:1037A800996882401143F3E70A4B0122D9688240A5
:1037B8001143D960996821EA02029A60704701238F
:1037C80003FA00F0034B9A6802439A60DA681043E0
:1037D800D86070470004014030B50A4B53F83040B8
:1037E8008C4204D103EBC0056D68954205D034B90D
:1037F80043F8301003EBC0035A60002030BD6FF06F
:103808000F00FBE79C090020034B002243F83020FF
:1038180003EBC0035A6070479C09002010B5214B88
:1038280018680B68082B144616D00B2B0BD89BB1C5
:10383800013B0A2B10D8DFE803F0163331162E1699
:10384800170F1A252500582B0ED008D84C2B0BD053
:10385800502B09D0482B07D06FF0850006E05C2B71
:1038680002D0602BF7E700202060002010BD00F098
:10387800BDF80623B0FBF3F0552358430723B0FBEC
:10388800F3F0F1E700F0B2F80623B0FBF3F05523AC
:1038980058434008E8E74FF4FA40E5E70248E3E711
:1038A8000248E1E7E000002000366E01006CDC020F
:1038B800F8B54A4C4A4F00F0B7F800F017FDA36876
:1038C800484AC3F303131578D35C05F01F0503F0CA
:1038D8001F0320FA03F647FA05F5AE4202D228463E
:1038E80000F03AFD236823F480232360236843F41F
:1038F8008033236023689A03FCD5D4F8943043F0CE
:103908000103C4F89430D4F894309B07FBD5D4F85D
:10391800983043F00103C4F89830D4F898309807E9
:10392800FBD5A36803F00C030C2B18D123685905A9
:1039380006D4236843F48073236023685A05FCD5B2
:10394800A36823F0030343F00103A360A36803F013
:103958000C03042BFAD1A36823F0F003A3602368B7
:1039680023F080732360E36823F0605323F400336B
:1039780043F06053E360E36843F48033E360E36853
:1039880023F4C003E360E36843F48013E36000F0CA
:1039980031F8236843F08073236023689B01FCD5CA
:1039A800A36823F0F003A360A36843F00303A360B4
:1039B800A36803F00C030C2BFAD1AE4202D32846BD
:1039C80000F0CAFC084B1F60A36823F4E063A360FF
:1039D800A36823F46053A3600020F8BD00100240E0
:1039E80080FE210A09B70008E0000020004870475F
:1039F80000366E010A4AD2F8803023F48073C2F888
:103A0800803002F5D032074BD1680B4043F4AA430B
:103A180043F05303D360D36843F08073D360704797
:103A2800007000400C80FFF9064B9A6D42F08052FE
:103A38009A659B6D82B003F080530193019B02B09D
:103A4800704700BF0010024008B5074804F0E8FFBF
:103A580038B10648FFF7FAFD0448FCF785FF002057
:103A680008BD6FF01200FBE7C8960008793A000815
:103A78000A2838B5074D044604D1AB680D215B68A8
:103A880028469847AB6803485B68E1B298472046E8
:103A980038BD00BFC896000838B5036904465860A9
:103AA800084D284604F0BCFF40B16168AB680C3192
:103AB8001B682846984700EAE07038BD6FF012008E
:103AC800FBE700BF00960008F7B51746B7F5001FDB
:103AD800466802690C461D4628D101F003030433E9
:103AE8009B000F229A4042EA910202F0030302333C
:103AF800354951F82310130C93FAA3F3B3FA83F35F
:103B080001EA124203F01F0322FA03F3B2689A4251
:103B180009D12046FFF724FE2046FFF775FE002155
:103B28002046FFF729FE002003B0F0BDB7F5800F4F
:103B380044D026492046FFF74FFE002841D1244AA9
:103B4800B66892E803006B4683E803002148826860
:103B5800194612689047D8B904F0030304339B0050
:103B68000F21994041EA940101F003039B0003F1FE
:103B7800804303F580330A0C986892FAA2F2B2FAED
:103B880082F202F01F0220EA114196400E439E6025
:103B9800B5F1806F0ED0B5F1C06F0DD005F17E4341
:103BA8005942594149002046FFF7E6FD2046FFF7F4
:103BB800C5FDB8E70121F6E70321F4E76FF08500BA
:103BC800B2E76FF00F00AFE700000140ED84000896
:103BD800C09A0008009600082DE9F0471E4F0446D9
:103BE80000EBC1060025B44201D1002014E0206892
:103BF800C30600F01F0911D4656845F02005C0F31D
:103C0800471AC0F343200A2823D857F82080B8F170
:103C1800000F0DD16FF01200BDE8F087B9F1100F59
:103C280004D0B9F1110FEAD16568E8E73025E6E775
:103C3800404604F0F5FE0028ECD04B462A460AF030
:103C48000F01404604F065FC002804F10804CADAB4
:103C5800E2E76FF01500DFE7E0A20008012912D0C3
:103C6800022907D089B90068094BC01A18BF01207A
:103C7800000370470068064B984214BF4FF4405049
:103C88004FF400507047002070474FF400507047C1
:103C9800008000404268116801F1080353E8003FC2
:103CA80043F0010301F1080C4CE800300028F3D17F
:103CB800136810498B420FD0A1F574418B420BD089
:103CC80001F580618B4207D001F580618B4203D0FA
:103CD80001F580618B4203D1596841F04001596078
:103CE800126852E8003F43F4807342E8003100292B
:103CF800F7D17047003801404268116801F10803A4
:103D080053E8003F23F0010301F1080C4CE80030B0
:103D18000028F3D1136810498B420FD0A1F57441E4
:103D28008B420BD001F580618B4207D001F5806191
:103D38008B4203D001F580618B4203D1596821F091
:103D480040015960126852E8003F23F4807342E84A
:103D580000310029F7D170470038014070B51D4681
:103D6800094B002633F812203346FCF781FA090282
:103D780041EA10616C08000220182A46334641F1D6
:103D88000001FCF775FA70BD04A500082DE9F341A0
:103D98000369466818688368DB680C46F168C3B134
:103DA80001AA9847002814DB3368244A934235D186
:103DB800019FDFF88C8000252346AAB238460021EF
:103DC800FFF7CCFFA0F54070404505D901350C2D13
:103DD800F2D102B0BDE8F081184AD36A23F00F038C
:103DE8002B43D3623668002CF3D0164B33F81520DA
:103DF800002319463846FCF73BFA090241EA1061EC
:103E080063080002C01822464FF0000341F1000188
:103E1800FCF72EFAC0F31300F060DAE71A6822F410
:103E280000421A603268019B002CD2D003EB540385
:103E3800B3FBF4F39BB2D360CBE700BF0080004034
:103E4800FFFC0F0004A500082DE9F8430A7903696F
:103E580045685F68012A06460C465CD0931ED3F17C
:103E6800000848EB03084FEA882861792846FFF7DD
:103E7800F5FE94F80690B9F1020F03464ED0B9F159
:103E8800040F4FD0002A57D0033A012A4CD94FF4D7
:103E98008050B3F5805F51D0B3F5405F50D0002B10
:103EA8000CBF0123032399423ED1414604F091FB04
:103EB800814539D1E379CBB1012B43D12B68234A12
:103EC800934213D0A2F5744293420FD002F5806258
:103ED80093420BD002F58062934207D002F58062CC
:103EE800934203D002F5405293421DD12A681368C9
:103EF80023F0010313602146304604F0F5FC2A68DC
:103F0800136843F00103136094E8030087E8030093
:103F18000020BDE8F8834FF4C068A6E73AB94FF02F
:103F28008050B6E7002AB2D06FF08500F1E7033A77
:103F3800012AF9D90020ACE71046AAE70023B2E726
:103F48000223B0E7032BB9D0EEE700BF00380140E9
:103F5800F7B50469466805465348206004F060FDDB
:103F680018B96FF0120003B0F0BD2068F1688368DB
:103F78001B6898470028F6DBF06901AA002104F0C5
:103F8800DDFA0028EFDB019B002219791868FFF79A
:103F980023FE0028E7DB6C682B6922685F681368DA
:103FA80023F001031360606804F03AFD0028D8D0BC
:103FB800D4E901018368DB6803B19847226852E8B5
:103FC800003F43F00C0342E800310029F7D139469D
:103FD800284604F089FC237D23B12268936843F0C6
:103FE80008039360637D23B12268536843F4004358
:103FF8005360A37D23B12268536843F48033536030
:10400800E37D23B12268536843F400335360227E72
:104018002368002A33D0254A934213D0A2F574426C
:1040280093420FD002F5806293420BD002F5806272
:10403800934207D002F58062934203D002F54052C2
:1040480093422DD16B681A68936843F48043936058
:104058002268617E136823F0787343EA4153136042
:104068002268A17E136823F4F81343EA014313601E
:10407800E37E23B12268936843F400439360226887
:10408800136843F0010313602368DA699102FCD5D1
:10409800DA695202FCD52846336A9847002062E75D
:1040A8006FF015005FE700BF009600080038014078
:1040B80010B54FF0E0230F499C691A6908689B699D
:1040C8000D4902F4803234B993B903464AB90A68F3
:1040D8001044C01A10BD002B08BF03460AB9A342FA
:1040E800F5D90A6802440A604FF0E0221269EEE747
:1040F8000446F3E7900A00208C0A00200A4B10229D
:1041080083F82320094B44F268221A60084B0020E8
:1041180018604FF0E02344F267225A6198611A69E7
:1041280042F007021A61704700ED00E0900A002093
:104138008C0A002010B5FFF7BBFF104B1049D3E9DC
:1041480000420868001942F10002C3E900020D4A62
:1041580000230B60D2E9004144F26823001BB0FB46
:10416800F3F043431B1941F10001C2E9003101F0AA
:1041780069FABDE81040FEF795BE00BF580300205D
:104188008C0A0020500300202DE9F041DFF8E08080
:1041980099B1421C0BD14FF0E022136923F00103BF
:1041A80013614FF07F43C8F80030BDE8F081D8F8BC
:1041B8000060012807DC00270BE0431CD8F80060EA
:1041C800F7D140F2D93040F2DA339842A8BF184606
:1041D800471E4FF01003EFF3118583F31288BFF3E6
:1041E8006F8FFFF765FF234C4FF0E0239969D4E9FF
:1041F8000023801843F10003C4E900031E4B00228A
:104208001A601E4B1A68831A2ED444F2682C0CFBD1
:10421800073303F584436733B3FBFCF7131A0CFB2E
:10422800073340F22642934238BF1346144A93425A
:1042380028BF13464FF0E022C8F80030013B9069D0
:104248005361002393618142A1EB0003D4E900127A
:1042580038BF9B195B1842F10002C4E9003285F3AC
:104268001188BFF36F8FA0E740F22643E2E700BF53
:10427800900A0020580300208C0A002050030020D8
:104288002882FF0038B54FF01003EFF3118583F350
:104298001288BFF36F8F084B1C68084B1B68E41A21
:1042A800FFF706FF85F31188BFF36F8F44F2682389
:1042B8002044B0FBF3F038BD580300205003002021
:1042C80038B54FF01003EFF3118583F31288BFF36D
:1042D8006F8F054B1C68FFF7EBFE85F31188BFF362
:1042E8006F8F204438BD00BF58030020174B9A68D1
:1042F80002F00C02042A23D09A6802F00C02082A61
:1043080020D09A6802F00C020C2A1DD1D968DA680C
:10431800D868DB6801F00301C3F341630329C2F3E2
:104328000312C0F3062003F101030CBF0849094931
:104338005B000132B1FBF2F25043B0FBF3F070477F
:104348000448704702487047002070470010024038
:1043580000366E010024F400254B421E9A4245D8CF
:10436800244B1B6803F4C063B3F5007F2BD1224BA9
:1043780098422DD8214B98422CD8214B98422BD8C3
:10438800204B98422AD8204B984229D81F4B984254
:1043980028D81F4B984227D81E4B984294BF00201C
:1043A80001201D4A136823F00F03034313601368A9
:1043B80003F00F0398421CBF136803F00F03C01AE1
:1043C80018BF01207047154B98420DD8144BE4E7ED
:1043D8000820E6E70720E4E70620E2E70520E0E713
:1043E8000420DEE70320DCE70220DAE7012070473B
:1043F8007FFE210A0070004000688909003B5808C8
:10440800000E270700E1F50500B4C40400879303F4
:10441800005A6202002D3101002002400024F400FD
:1044280000127A0038B5044678B1FFF749FF05460F
:104438000648074AA4FB00010023FBF719FF0446BE
:10444800FFF73EFF431BA342FAD338BD80FE210A83
:1044580040420F00034A044B02609B1A1420B3FB2E
:10446800F0F0704700960008F096000838B54FF055
:104478001003EFF3118583F31288BFF36F8F064B98
:104488009C6804F0E1FA85F31188BFF36F8F20462A
:10449800BDE83840FEF786BEF0040020104B70B52A
:1044A80053F82040013053F82060A64200D870BD70
:1044B800D4E9003595B153B12846984738B100285A
:1044C800B8BF4042EB68FF28A8BFFF201870EA6811
:1044D800537843F0010353700834E6E79847FBE745
:1044E80004A4000808B50A4B012203201A70FFF73C
:1044F800D5FF01F071FA0420FFF7D0FF00F01AFA97
:10450800FCF77EF9034A137B23F00103137308BDFC
:10451800D40A00202804002008B50348034A0021D3
:10452800121A04F094FA08BD30010020D80A0020BD
:104538002DE9F041214E224F224986B0C82303FBC2
:104548000066214B05934FF001080F231C2505FB3E
:1045580000750446CDE903384FF4C0700023CDE957
:1045680001334FF4A072194B009500FB041130463B
:1045780000F036F9737B164AEE6023F00403737378
:104588004FF4046304FB033313446B60E31C07EB31
:10459800031307EB0417AB610E4B2C7487F83880B4
:1045A800BFF35B8F53E8001F414443E80012002A21
:1045B800F8D1BFF35B8F06B0BDE8F081600300203F
:1045C800F0040020C037002019B70008078B000846
:1045D800802F0020940A002080B50020B8B0FFF793
:1045E8005DFF2D4B83F308882C4D2D4E6B692D4FA5
:1045F80043F400736B610024F02385F82230EC77D4
:104608002C766C76AC7685F820406B6A43F4E02310
:104618006B62FEF799FDFEF7E1FE4FF0FF33AB62E8
:10462800EB6206ADFEF778FFFEF70CFF40F20113D0
:104638002846ADF82430CDE9304401F0C7F9B5601B
:1046480004F0EDF90120FFF729FF0220164DFFF7CE
:1046580025FF00F067FE154BF5610593012314490A
:104668000094CDE903434FF480623B46CDE9014411
:10467800284600F0B5F86A7B064622F00402284670
:104688006A7304F008FB2046FFF752FF3A463146AA
:104698002846FEF783FE00BFC037002000ED00E08B
:1046A800F0040020ED440008280400201EB700088C
:1046B80040390020F8B505460E464FF01003EFF3D9
:1046C800118783F31288BFF36F8F074B9C6A24B955
:1046D80087F31188BFF36F8FF8BD20463146A8478E
:1046E800D4F88440F3E700BFF00400204FF0100333
:1046F800EFF3118183F31288BFF36F8F0B4A936A2C
:10470800834208D1D3F88430936281F31188BFF3D0
:104718006F8F70471346002BF7D0D3F8842082425E
:10472800F8D1D0F88420C3F88420EEE7F004002004
:1047380010B5044608B9054B9C681F2204F188008F
:1047480004F074FD002084F8A70010BDF0040020D8
:104758002DE9F74F0C46D1B3CAB3477BDFF8748015
:10476800561E08466FB34FF000094D464FF0010A38
:104778000AFA09FB17EA0B0F1DD0D8F80410721BB0
:104788008A4228BF0A46D8F80010019204F0A1FE18
:10479800019A37EA0B07154404EB050011D0A6EB84
:1047A800050BBBF1010F28BF4FF0010B0A495A4610
:1047B80004F08FFE5D4409F1010908F10808601949
:1047C800D6E700230370204603B0BDE8F08F034806
:1047D800FAE700BF1CA4000823B7000890A8000847
:1047E8002DE9F04F85B0984600F16803C0E91A3307
:1047F8000732129B037322F0070A0423002601F1F3
:10480800400B43730AF14005119B837304465246DB
:10481800C0E906660F468660C6730D445846AA214D
:10482800DDF84C9004F07DFE29462046FEF70AFB91
:104838000730109B20F00700C4F8B000C4E92ABA7A
:1048480002930F9B01932D1A0E9B00932A46434611
:1048580039462046FEF76EFD0E9BA3670F9BE36764
:10486800109B6666C4F87480C4F880304FF010025C
:10487800EFF3118382F31288BFF36F8F164FBA6A72
:10488800C4F88420BC6283F31188BFF36F8FB9F139
:10489800000F0FD01F22494604F1880004F0C6FC1F
:1048A80084F8A760BB6843B9C4F8B430284605B09B
:1048B800BDE8F08F84F88890F4E7D3F8B430C4F8F2
:1048C800B4301022002104F1300004F02AFE012344
:1048D80084F83830EAE700BFF0040020F0B587B06C
:1048E80000250595109D04950F9D03950E9D029535
:1048F800DDE912760D9D01950C9D00950446FFF7A4
:104908006FFFB6F1FF3F08BFB7F1FF3F05D056EA8A
:10491800070305D1204600F0B7FC204607B0F0BDDC
:1049280003493A46334604F1180000F015FEF4E74F
:10493800398D000870B5224C224D86B02646AE420D
:1049480004F130040AD300F0BDFC1D4C1E4EAC42ED
:1049580020D306B0BDE8704000F0C8BC54F80C3C49
:10496800059354F8103C049354F8143C039354F8FA
:10497800183C029354F81C3C019354F8203C0093D3
:1049880054E90A2354E90C01FFF72AFF54F8303C94
:104998005E66D3E7D4E90A23B3F1FF3F08BFB2F15B
:1049A800FF3F05D052EA0301206803D100F06CFCF8
:1049B8003034CCE73146183000F0CEFDF8E700BFC0
:1049C800209A0008509A0008398D0008014B986811
:1049D80000F040BFF0040020004870470063050362
:1049E8002DE9F341044617461E464FF01003EFF336
:1049F800118883F31288BFF36F8FC368334A7BB182
:104A080080689168884219D057EA060318D188F35C
:104A18001188BFF36F8F6FF00F0002B0BDE8F0810F
:104A2800916891F90E1021610133E3609368A360E6
:104A380088F31188BFF36F8F0020EEE72169F2E752
:104A480091F90E1090F90E309942A8BF19466FF0EF
:104A58007E029142B8BF11468B422EDD04F05BF80E
:104A68000546CDE900761A482246414600F096FBF5
:104A78000028E1D04FF01003EFF3118683F312887A
:104A8800BFF36F8FA068D0B1236821699C420AD018
:104A98004BB193F90E309942A8BF19466FF07E03C7
:104AA8009942B8BF194604F036F840B10848314673
:104AB80000F0D8FB6FF00A00AFE70025D1E7002D22
:104AC800F4D186F31188BFF36F8FF3E7F004002069
:104AD800D50A002038B58368044673B31A4A926829
:104AE80093422DD1C368012B03D9013BC360002039
:104AF80038BD4FF01003EFF3118583F31288BFF32D
:104B08006F8F0169806804F006F8204604F02BF9DD
:104B1800A06060B190F90E2022610022C0F8C02088
:104B280004F0B9F80948294600F09CFBDFE7E0608B
:104B380085F31188BFF36F8FD9E76FF01500D7E7BA
:104B48004FF0FF30D4E700BFF0040020D50A002062
:104B580038B504464FF01003EFF3118583F312883C
:104B6800BFF36F8F04F0FFF850B10022C0F8C020E7
:104B780004F091F829460848BDE8384000F072BBB7
:104B8800D4E902329A4218BF0133A360022104F12A
:104B9800100004F0DCFAEDE7D50A00202DE9F04F0B
:104BA8004A4E85B004464FF0FF384FF0FF394FF0BA
:104BB8001003EFF3118783F31288BFF36F8FD4F8D4
:104BC800C8508DB9022104F1E00003F0B3FF0028BA
:104BD80043D10023CDE90089029304F1D00239467C
:104BE8003B4800F047FCE2E7D4F8CC202B68C4F837
:104BF800C830954208BFC4F8CC30D4F8E03043F050
:104C08000203C4F8E030EB6823F0040343F0010327
:104C1800EB606B6887F31188BFF36F8F284698475E
:104C28004FF01003EFF3118B83F31288BFF36F8FEC
:104C3800EB68990723F0010219D4EA60D4F8E03050
:104C480023F00203C4F8E0308BF31188BFF36F8FB1
:104C5800DB05ACD400F06EFBA9E704F1D80500220F
:104C68000121284604F0EAF80028F8D1B1E73068B5
:104C780023F00303EB600028E0D00027D0F800A061
:104C88003B460028DAD04268954201460CD10168BB
:104C98009FB972683160824200D1716040F8083B68
:104CA800FFF756FF39460023BAF1000F0BD0DAF8A8
:104CB800002050460F469246E3E739607268824208
:104CC80008BF7760EAE75246F3E700BF980A00207A
:104CD800D50A0020F8B5C3689A0704460F46C3F3FF
:104CE80040062CD45B071AD40B680BB983680B6099
:104CF800E368DD0744BFA3683B603D684CBF0226FC
:104D08000126002D3AD01F4B9B68AB420AD0D5F83C
:104D1800E030D807C3F3800214D46FF012060023E2
:104D28003B6025E003F097FED5F8E0300028F0D18D
:104D3800D907C3F3C002F0D552B15B0708D46FF0AE
:104D48000F06ECE7002AFAD1C3F3C003002BF6D113
:104D580000232360D5F8CC3063B9C5E9324428462E
:104D680003F002FFE36843F00403E3603B68A360D9
:104D78003046F8BD1C60C5F8CC40F0E76FF015066A
:104D8800CDE700BFF00400200146014803F02FBF23
:104D980050050020F0B589B004460020C4E932006F
:104DA8000E9D04F1D000C4E9340004F1D800C4E930
:104DB80036001DB32879002840F2011008BF0120F1
:104DC800C4F8E00000204FF0FF364FF0FF37CDE980
:104DD8000330CDE90100CDE90667094B0094204670
:104DE800FFF77CFD25B1296811B12046FFF7A0FC2B
:104DF800204609B0BDE8F04003F035BE0120DFE7EA
:104E0800A54B0008F7B50C46019016461D464FF015
:104E18001003EFF3118783F31288BFF36F8F0846EF
:104E280003F093FE55EA060309D101A92046FFF7CE
:104E380051FF87F31188BFF36F8F03B0F0BDE368AC
:104E4800064943F00803E360019BA36204F11000E4
:104E580032462B4600F080FB0120EAE77F8B0008F2
:104E680001460148FFF7CEBF50050020C3897F2BBC
:104E780012D80A4B1B6863B1094B90F90E201B68C6
:104E88009A4209DB437BDB0606D1064BC31A18BFDF
:104E9800012303F0010070470023FAE7A80A002065
:104EA800A40A002060030020044BC01A044BC01061
:104EB8005843044B01221A54704700BF30050020A4
:104EC800ABAAAAAAD50A002070B50E4B0E4C1E7CC0
:104ED80006EB460304EBC3040546204603F0D2FF65
:104EE8000A4B002228469A55FFF7C0FF48B1084BE5
:104EF80008491A68013A2046D317BDE8704000F007
:104F08002BBB70BDF004002030050020D50A00201E
:104F1800A80A0020B14E000838B50D4D2B4653F8AD
:104F2800204F9C4200D004B9EC68AB6838B95A7B72
:104F3800D20604D1A26912B9DA897F2A05D89C421F
:104F480002D02046FFF7C0FF2346EB6138BD00BF03
:104F5800F004002070B590F90D20437B002A01462B
:104F680004DA03F07F03437303F052FE4B7B154AC8
:104F780063F07F0310464B7350F8203F546A834216
:104F880008BF002323B9C1E90004216051620CE085
:104F980091F90E5093F90E60B5420ED0AE420CDD79
:104FA8005868C1E90030016059609068431A584256
:104FB800BDE870405841FFF7AFBF9C42E3D01B6883
:104FC800E0E700BFF004002070B490F90D30427B98
:104FD800002B29DBD30627D183692BBB134962F049
:104FE8007F0242730A4652F8204F944218BF234664
:104FF8004C6A23B9C0E90024206048620CE090F9AB
:105008000E5093F90E60B5420AD0AE4208DD5A68D8
:10501800C0E900321060586070BC0020FFF77CBF08
:10502800A342E7D01B68E4E770BC7047F004002097
:1050380008B590F90D20437B002A014604DA03F0F5
:105048007F03437303F0E4FD044B9868431A584206
:105058005841BDE80840FFF75FBF00BFF0040020DB
:1050680070B515461C46064603F0EDFDB4F1FF3F4A
:1050780008BFB5F1FF3F08D02A46234606F11800BD
:105088000249BDE8704000F067BA70BD398D00086C
:105098002DE9F041002A437B0E460CBF1021082160
:1050A800194204460AD10B43DD0903F09F0211D1CE
:1050B8004273082914D00120FFF72EFF1E4B9B686E
:1050C800A34232D1EFF305837BBB3046BDE8F04104
:1050D800FEF77EB803F01F03437303F099FDE8E77A
:1050E800A36813B1204603F09BFD04F1180003F0F8
:1050F800C9FE04F168074FF00008A56EBD4200D054
:1051080035B90120FFF708FF2046FFF7EFFAD5E78A
:10511800284603F085FD05F1180003F0B3FEC5F835
:10512800C0802846FFF750FFE7E786F31188BFF3F2
:105138006F8FBDE8F08100BFF004002038B54FF054
:105148001003EFF3118583F31288BFF36F8F104BB1
:10515800104A9C681068A04206D1FFF7B5FE85F397
:105168001188BFF36F8F38BD00211B7C11600A4A7C
:10517800D35C002BF3D02046FFF778FE0028EED052
:10518800637BDB0602D12046FFF7E4FE2046E4E716
:10519800F0040020A00A0020D50A002070B50C48B1
:1051A8000C4D86682E600C461146DDE904234FF04D
:1051B8001006EFF3118586F31288BFF36F8F8068AE
:1051C800FFF74EFF2046BDE87040FEF701B800BF6C
:1051D800F0040020A00A0020F8B504464FF01003A0
:1051E800EFF3118683F31288BFF36F8F437BDA06E0
:1051F80049B219D18569BDB903F07F03437303F040
:1052080007FD437B164A817363F07F03437313469C
:1052180053F8200F984218BF0546506A5DB9C4E993
:1052280000300460546211E0A173002086F31188F5
:10523800BFF36F8FF8BD95F90E70B9420BD08F424E
:1052480009DD6B68C4E900531C606C600120FFF73E
:1052580063FE0120EAE7A842E1D02D68DEE700BF3F
:10526800F004002049B9EFF3058030B9054BDA693D
:105278009B689A4201D0FDF7ABBF81F31188BFF359
:105288006F8F7047F004002010B54FF01002EFF355
:10529800118482F31288BFF36F8F427B510704D4C5
:1052A80084F31188BFF36F8F10BD22F0040242739C
:1052B800FFF78AFE21460248BDE81040FFF7D2BF3B
:1052C800D60A00204FF01003EFF3118183F3128800
:1052D800BFF36F8F044B9A68D37B013BD37381F381
:1052E8001188BFF36F8F7047F004002010B54FF09E
:1052F8001003EFF3118483F31288BFF36F8F084B09
:105308009A68D37B0133D3730020FFF705FE84F33B
:105318001188BFF36F8FBDE8104003F064BD00BF74
:10532800F0040020024B03F12002C3E90822704771
:10533800F0040020F8B54FF01003EFF3118583F364
:105348001288BFF36F8F19498868437B03F07F0386
:10535800437303F05DFC8B685A7B084662F07F025A
:105368005A7350F8202F4C6A824208BF002222B993
:10537800C3E9000423604B620CE093F90E6092F9D4
:105388000E70BE420ED0B7420CDD5168C3E9002151
:105398000B6053600120FFF7BFFD2846BDE8F840C9
:1053A800FDF716BFA242E3D01268E0E7F004002040
:1053B80050EA01032DE9F04105460E4603D1FFF7F7
:1053C800B9FF00202CE0831C71F1FF332ADB03F0C6
:1053D8006FFD2C184FF01003EFF3118883F3128838
:1053E800BFF36F8F114F124BB8681860FFF720FE9C
:1053F800B86810492A463346183000F0ADF8BA6844
:10540800537B43F0100353734046FDF7E1FE03F06E
:105418004FFD201A63EB0303012873F10003D0DB6F
:10542800BDE8F0816FF00104241AD3E7F0040020EE
:10543800A00A0020398D0008B1F1FF3F08BFB0F184
:10544800FF3F08B506D1074B986803F034FC4FF0CE
:10545800FF3008BDFFF7ACFF0A220023C117FAF797
:1054680007FFF6E7F0040020014B9868704700BF7B
:10547800F0040020D3B5DDE90667089CCDE9006794
:10548800FFF78CFE1CB1034B9B685B69236002B07D
:10549800D0BD00BFF004002008B50648064A0749F9
:1054A800121A03F0D6FABDE80840054A054906482D
:1054B80003F0CFBA0000002030010020BCB800087B
:1054C80000000000BCB8000800000020034B1B6867
:1054D8000BB9FEF7D7BE0020704700BFAC0A00200A
:1054E80010B50E4B1C689C4204D1FFF7EFFF6FF01C
:1054F800004010BDFFF7EAFF002CF8D0D4E90432D1
:105508001B1A62EBE072B3F1004F72F10001EEDAA0
:10551800002AACBF18460020EBE700BFE4000020DB
:1055280030B570B10B4B5B6898420AD0036843B141
:10553800D3E90421D0E90445121941EB0501C3E977
:105548000421D0E9003213605A600023C0E9003317
:1055580030BD00BFE4000020B3F1FF3F08BFB2F147
:10556800FF3FF8B504461D4616465CD081604FF0F3
:105578001003EFF3118783F31288BFF36F8F0132A3
:1055880075F1FF3324DA2D49D1E900206FF00103CA
:105598009B1A4FF0FF3262EB00009E1B60EB050088
:1055A800012E70F1000301DA01260020C4E904602D
:1055B800234ED6F800C07568B44508BF4FF0000CFC
:1055C800BCF1000F0DD1C4E900652C6074601CE0CB
:1055D800FFF77CFF013645F10005361845EBE07012
:1055E800E4E7DCE90420D4E90431934271EB000ECE
:1055F8001ADAD21ADCF8043060EB0100CCE9042096
:10560800C4E900C31C60CCF804403368B34206D038
:105618009C4204D1FFF764FF0021FEF7B5FD87F334
:105628001188BFF36F8FF8BD9B1A61EB0001AC4581
:10563800C4E90431C7D0DCF800C0C1E74805002040
:10564800E40000202DE9F84F4FF01003EFF3118C20
:1056580083F31288BFF36F8FDFF8B0A0DFF8B09044
:105668002C4FC9F80000DAF800000024504508BFA4
:1056780000200025D7E90021D9F80030E04680B3A2
:10568800D0E9046C4FEAE37EB3427EEB0C0B05DAFB
:10569800F61A6CEB0E04C0E9046422E0B21841EB80
:1056A800E671C0E90445C7E90021FFF739FF88F32F
:1056B8001188BFF36F8F836898474FF01003EFF39B
:1056C800118883F31288BFF36F8FD9F80030DAF8A6
:1056D80000009B1B5045C446C9F80030CAD1D7E921
:1056E80000219A1841EBE3730024C7E90023C9F8A5
:1056F8000040FFF7F5FE2146FEF746FD88F31188C6
:10570800BFF36F8FBDE8F84FFFF718BDE400002026
:10571800AC0A00204805002010B54FF01003EFF345
:10572800118483F31288BFF36F8FFFF7CFFE064A09
:105738000346D2E90001181841EBE37184F311889C
:10574800BFF36F8F10BD00BF480500202DE9F34758
:105758001D46294B9F68012387F8703087F8713000
:1057680052EA050316460CBF0123002307F1700215
:10577800804603F020FC81464FF01003EFF3118AB6
:1057880083F31288BFF36F8F97F8704064B90146AE
:105798005246404603F0AFFB8AF31188BFF36F8F80
:1057A800204602B0BDE8F087002387F8703056EA3B
:1057B800050306D18AF31188BFF36F8F6FF00A04CF
:1057C800EEE7CDE900650D4A0D485146FFF7E6FCC6
:1057D80004464FF01003EFF3118583F31288BFF3EB
:1057E8006F8F2A464946404603F085FB85F31188AA
:1057F800BFF36F8FD4E700BFF0040020EC00002057
:10580800D60A002038B503464FF01002EFF3118591
:1058180082F31288BFF36F8FC16001218160006835
:10582800834206D185F31188BFF36F8F0024204689
:1058380038BDD0E9003213605A600023C0E9003354
:1058480003F030FC294604460148FFF70BFDEEE75C
:10585800D60A002008B5FEF733FD034B012838BFF0
:105868000120586108BD00BFF004002070B54FF05A
:105878001003EFF3118683F31288BFF36F8F104D77
:105888006C69ACB1FEF71CFDAB6893F838200128B1
:105898002CBFC4EB0001C4F1010132B1D3E90C20E3
:1058A800521840F10000C3E90C20054803F077FCCA
:1058B80000236B6186F31188BFF36F8F70BD00BF43
:1058C800F00400202DE9F04106460C464FF0100385
:1058D800EFF3118783F31288BFF36F8FC0EBC00318
:1058E8009B00194D17D1FEF7EBFCAB68696993F87B
:1058F8003820012838BF01208046411A32B1D3E947
:105908000C20521840F10000C3E90C200E4803F0A7
:1059180046FCC5F81480AA69D2E900321C21C4E902
:10592800023201FB0655E868D0E90C105B1842EB1F
:105938000002C4E90410C4E9003287F31188BFF3F8
:105948006F8FBDE8F08100BFF00400202DE9F04121
:1059580004460D464FF01003EFF3118783F31288C6
:10596800BFF36F8FDFF86080D8F80830834217D113
:10597800FEF7A6FCD8F8141094F83830012838BF80
:1059880001200646411A33B1D4E90C325B1842F1C2
:105998000002C4E90C320C4803F001FCC8F814609A
:1059A800D4E90C23C5E90023C5E90223002200231A
:1059B800C5E90423D4E90C23C5E9002387F311883A
:1059C800BFF36F8FBDE8F081F0040020014BC0F8F1
:1059D800B43070471C010020014801F03BBB00BFF8
:1059E8005EB7000838B5064C064DAC4201D300201E
:1059F80038BDD4E90112204603F0E1FB1434F4E782
:105A08001C010020300100201FB5094B029302AB96
:105A180000240093074908488DF80C404FF0FF33E5
:105A28004FF48062FFF7B6F9204604B010BD00BFFE
:105A3800A0B70008803D0020500500200CB430B508
:105A480089B005460C461C22002101A803F069FD17
:105A580002238DF806300E4B0293059523462CB190
:105A6800B4F1004F28BF4FF00043013B1D440DAA7D
:105A78000C99069501A8009200F07CF914B1059BD9
:105A880000221A7009B0BDE8304002B0704700BF6C
:105A98003B950008242A2DE9F041044601D8012A43
:105AA80048D103F04FFD324B16221A5001B10C6059
:105AB80000252846BDE8F0810546284610F8013B38
:105AC800A3F10906042EF7D9202BF5D02B2B33D0C0
