:020000040800F2
:10000000802D0020B931000825810008A5310008A5
:10001000A5310008A5310008A53100080000000046
:10002000000000000000000000000000CD320008C9
:10003000A531000800000000513200087D42000890
:10004000693400086934000869340008693400081C
:10005000693400086934000869340008693400080C
:1000600069340008693400086934000869340008FC
:1000700069340008693400086934000869340008EC
:1000800069340008693400086934000869340008DC
:1000900069340008693400086934000869340008CC
:1000A00069340008693400086934000869340008BC
:1000B00069340008693400086934000869340008AC
:1000C000693400086934000869340008693400089C
:1000D000693400086934000869340008693400088C
:1000E000693400086934000869340008693400087C
:1000F000693400086934000869340008693400086C
:10010000693400086934000869340008693400085B
:10011000693400086934000869340008693400084B
:10012000693400086934000869340008693400083B
:10013000693400086934000869340008693400082B
:10014000693400086934000869340008693400081B
:10015000693400086934000869340008693400080B
:1001600069340008693400086934000869340008FB
:1001700069340008693400086934000869340008EB
:1001800069340008693400086934000869340008DB
:1001900069340008693400086934000869340008CB
:1001A00069340008693400086934000869340008BB
:1001B00069340008693400086934000869340008AB
:1001C000693400086934000869340008693400089B
:0801D0006934000869340008DD
:1001D8007BB972B90029BEBF00204FF0004106E08C
:1001E80008BF00281CBF6FF000414FF0FF3000F03F
:1001F80057B8ADF1080C6DE904CE002909DB002BD6
:100208001ADB00F04FF8DDF804E0DDE9022304B062
:100218007047404261EB4101002B1BDB00F042F8C4
:10022800DDF804E0DDE9022304B0404261EB41015E
:10023800524263EB43037047524263EB430300F0BF
:1002480031F8DDF804E0DDE9022304B0404261EB57
:1002580041017047524263EB430300F023F8DDF895
:1002680004E0DDE9022304B0524263EB4303704724
:1002780053B94AB9002908BF00281CBF4FF0FF3105
:100288004FF0FF3000F00CB8ADF1080C6DE904CE6A
:1002980000F008F8DDF804E0DDE9022304B0704757
:1002A800704700BF2DE9F04786468C460846089EF1
:1002B800154674461946002B40F0C2808542B2FAB2
:1002C80082F245D94AB1C2F1200300FA02FC2EFAA3
:1002D80003F3954043EA0C0C94404FEA154EA8B23C
:1002E800BCFBFEF8230C0EFB18CC08FB00F943EA14
:1002F8000C43994528D9EB1808F1FF3704D29945E2
:1003080002D9A8F102072B44A3EB0903A4B2B3FB5B
:10031800FEFC0EFB1C330CFB00F044EA0344A04235
:1003280014D92C190CF1FF3304D2A04202D9ACF134
:1003380002032C44241A43EA07401EB1D440002388
:1003480034607360BDE8F0874746DDE76346F1E750
:1003580092BB431B01214FEA154EAFB2B3FBFEFC23
:10036800200C0EFB1C330CFB07F840EA03439845AE
:1003780062D9EB180CF1FF3004D2984502D9ACF1E0
:1003880002002B44A3EB0803A4B2B3FBFEFC0EFB54
:100398001C330CFB07F744EA0344A7424ED92C1937
:1003A8000CF1FF3304D2A74202D9ACF102032C446A
:1003B800E41B43EA0040C0E7C2F1200320FA03F13E
:1003C800954090402EFA03F303434FEA154EAFB21F
:1003D800B1FBFEFC0EFB1C10190C0CFB07F841EAE4
:1003E8000041884504FA02F422D969180CF1FF305B
:1003F80004D2884502D9ACF102002944A1EB0801D6
:100408009BB2B1FBFEFC0EFB1C110CFB07F743EA89
:1004180001439F420ED9EB180CF1FF3104D29F42E1
:1004280002D9ACF102012B44DB1B41EA004192E7FF
:100438006046E3E76146F7E76046A3E76346B7E748
:10044800834206D916B9002108467BE7C6E900E0D1
:10045800F9E7B3FA83F78FB9834201D3724508D815
:10046800BEEB020460EB030301209C461EB9002189
:1004780068E73846FAE7C6E9004CF8E7C7F1200C08
:10048800BB4022FA0CF41C432EFA0CF120FA0CF3B0
:10049800B84001434FEA14490EFA07F5B3FBF9F8DF
:1004A8001FFA84FE09FB18300B0C08FB0EFA43EA0E
:1004B80000439A4502FA07F240D9E31808F1FF30E1
:1004C80004D29A4502D9A8F102002344A3EB0A03F7
:1004D80089B2B3FBF9F809FB183308FB0EFE41EAB1
:1004E80003418E452CD9611808F1FF3304D28E459B
:1004F80002D9A8F10203214443EA0040A0FB029874
:10050800A1EB0E014145CE46434602D306D14D45E7
:1005180004D2B9EB020E68EB04030138002EA6D012
:10052800B5EB0E0261EB030101FA0CFC22FA07F3AA
:100538004CEA0303F940C6E9003198E74046C5E7AD
:100548004346D9E710F8012B11F8013B012A28BFCF
:100558009A42F7D0D01A7047034611F8012B03F8D6
:10056800012B002AF9D17047034613F8012B002A02
:10057800FBD1181A013870472DE9F04704468AB0B4
:100588008846174608F043FEB8F1010F06460D46A7
:1005980008D1CDE900012A4A0821204607F05AF976
:1005A800002012E07F6827483946FFF7CBFF78B173
:1005B80025483946FFF7C6FF50B12046234A3B4637
:1005C800012107F047F96FF004000AB0BDE8F08791
:1005D8003046294618A3D3E90023FFF7F9FD06465C
:1005E8000D46104619461A4A0023FFF7F1FD8046CA
:1005F8000F46104619464EF660220023FFF7E8FD25
:1006080082468946104619464FF47A720023FFF74E
:10061800DFFDCDE904A9CDE90601CDE90823CDE93F
:100628000287CDE900650B4A0821204607F012F938
:10063800B6E700BFAFF30080005C260500000000AD
:1006480036AB000847AB00084AAB000853AB0008BC
:1006580080EE36006AAB000873B50E4C0E4D0F4E97
:10066800C82200236946204607F029FF10B1002060
:1006780002B070BD002301A900984FF47A7207F008
:100688000AFF0199CB0754BF3046284606F02EFED4
:10069800E6E700BF8001002052A9000824A900084D
:1006A80010B5084C084821680131216006F01EFE8B
:1006B80021460648BDE810404FF47A72002307F03F
:1006C800B9BE00BF9C06002083A90008389E000818
:1006D8002DE9F04104460E46006808F04CFB30B99D
:1006E800236819481968BDE8F04106F0FFBD4FF4CA
:1006F8000031204606F0E3FD0546D0B926EAE67645
:100708004FF00108F717206821790269126808FA82
:1007180001F105F00103114218BF83F0010383B111
:100728008368DB68984701353046394604F0D4FFC2
:10073800E9E7237A22790146BDE8F041034806F04B
:10074800D5BD83681B69EDE787A90008A6A900083D
:10075800024800224FF47A71FFF7BABFBCA1000823
:1007680010B5FFF7F5FFBDE8104003484FF47A7263
:10077800002304F0C5BC00BF1000002070B5254C54
:10078800204608F0F8FA28B92168234806F0AEFD9B
:10079800002070BD4FF48031204806F090FD0146DE
:1007A80028B122681E480D2306F0A0FDF0E7A568D1
:1007B8002369AE699EB11B6813F4005F4FF00D0109
:1007C80014BF4FF000734FF080634FF0A0722046C3
:1007D800B047014630B1226812480D23E4E76FF0B4
:1007E8005701F8E71049114B4B604FF400538B60E9
:1007F800EB6913B10122204698470D4821680D2264
:1008080006F074FD0B4806F071FD0021642004F029
:1008180063FFFAE7749A0008D7A90008B4A1000892
:10082800FDA9000826AA0008A0060020A9060008BD
:100838005CAA00087FAA00080149024808F065BBC5
:100848005907000810000020074808B506F04EFDBB
:10085800FFF7F2FF054804F0E7FB4FF0FF314FF0D8
:10086800FF3004F039FFF8E7ABAA000800000020C9
:100878002DE9F04107460E46154600F08FF8C3688B
:1008880004461BB943691A78002A41D10023E36062
:100898006368BB4256F8232008DB324B636120466D
:1008A80000F062F84FF0FF30BDE8F081511C616143
:1008B80092F80080B8F12D0FEFD1911C6161517849
:1008C800A1602D2904D192786AB901336360E4E705
:1008D80049B9244B63614146284608F078FE002850
:1008E800DDD0C4F80880D4F808802846414608F0CE
:1008F8006EFEB8F13A0F636900D070B91B7813B96E
:10090800636801336360204600F02EF83F20CBE790
:100918005A1C42611B788360E5E742783A2A0BD07B
:10092800002222611B7813B9636801336360204693
:1009380000F01AF8A068B7E718786268094928B97A
:1009480001329742626004DD56F82230C4E904316E
:10095800EAE761612D783A2D2046D5D100F004F8F8
:100968002846A1E7E0AC0008074B02681A60074B6D
:1009780042681A60064B82681A60064BC2681A60A1
:10098800054B02691A6070475C000020580000207F
:10099800B4060020B0060020AC06002000487047CE
:1009A80040000020014B1B68184700BF6000002072
:1009B800014B1860704700BF6000002030B585B05B
:1009C80004460D4610220021684608F09AFF0223CB
:1009D8008DF802302A46044B01932146684605F0FB
:1009E80015FB05B030BD00BFAD09000880B5054650
:1009F8000E461746984604F083FE034608F092FF19
:100A0800DFF81890044649F8003042463046394627
:100A1800A84754F8090002F0E7FB00BF08000000EF
:100A28000D4B0E4A1A600E4A536843F00103536097
:100A38000C4B9A6D42F080529A659B6D0A4A82B0BF
:100A480003F080530193019B9368002043F4804393
:100A5800936002B0704700BF000100200024F4003A
:100A6800002004E00010024000700040034A536870
:100A780023F0020353600020704700BF002004E009
:100A8800014B036000207047C8A1000813B5044655
:100A980004F042F8C0F307230193C0F3074300931F
:100AA800044A030E0821204606F0D4FE002002B0B6
:100AB80010BD00BF1DAB000810B5044603F080FC54
:100AC800084A03460821204606F0C4FE064A204686
:100AD800082106F0BFFE0548214603F08BFE0020E2
:100AE80010BD00BFB8AB0008D7AB0008F90A000872
:100AF800F0B59BB004460D46D0F8AC6008F05CF940
:100B0800024608F00FFF374B1958374B002A18BF19
:100B18001346CDE90043354A354B28468C4218BF69
:100B28001346344A082106F095FED4E90A23CDE994
:100B3800022394F90E300093237B2F4A082128467C
:100B480006F088FE202212A9204603F0A1FE626F5B
:100B58000092034608212846284A06F07BFE06A98B
:100B6800204608F040F918BB0CA808F046F910BB5D
:100B7800069FDDF81CE06421A7FB010CDDE90C23CE
:100B880001FB0EC1FFF774FB1D4A00903B4608218C
:100B9800284606F05FFE05A9204608F01DF9034621
:100BA80078B1184A0821284606F054FE1BB0F0BD5B
:100BB8000CA808F022F9144A0821284606F04AFE33
:100BC800E9E7059A6423B11ACDE900214B430F4A9E
:100BD800B3FBF6F30821CDE902632846334606F055
:100BE80039FEE3E708000000E3AB000860B4000842
:100BF800E1AB0008E6AB0008F2AB00081EAC000849
:100C080035AC00087DAC00085AAC0008AAAC000856
:100C1800F0B5002593B0044629460AAF1C220BA85C
:100C280008F06FFE144E1A222021384608F069FE9B
:100C38002146124803F0DEFD09AA4FF40061304650
:100C480008F0BEF809996422C1F5006042434FF4E8
:100C58000063D20ACDE90403CDE9023106922046A9
:100C6800CDE90057064AA6F14003082106F0F2FD37
:100C7800284613B0F0BD00BF00200020E50C000896
:100C8800E1AC000810B5044603F0BAFB034A03467A
:100C98000821204606F0DEFD002010BD2AAD000820
:100CA80037B5134600220192054601AA58680A2161
:100CB80001F0CAFB019C3CB920EAE070C11704F0BE
:100CC8000BFD204603B030BD2346034A01212846C8
:100CD80006F0C0FD019CF4E740AD0008F0B50446FD
:100CE800D0F8AC6089B00D4607A908F075F803463E
:100CF80030B1104A0821284606F0ACFD09B0F0BD15
:100D0800204608F059F80C4F079A002818BF0746E4
:100D1800B11A6423CDE902214B43CDE90076B3FB38
:100D2800F6F3064ACDE9046308212346284606F06F
:100D380091FDE3E77DAC0008E3AB000860AD000877
:100D48002DE9F04387B00546684603F023FC009E72
:100D5800184A194FDFF86480DFF86490142303FB06
:100D680000660821284606F075FD009CB44203D3AE
:100D7800002007B0BDE8F08323680BB11A7832B9B8
:100D880023463A46142101A804F0A4FF01AB4246C9
:100D98000821284606F05EFD204607F0ECFF094BC7
:100DA800094A002808BF4B460821284606F052FD8C
:100DB8001434DBE782AE00088CAE000891AE000860
:100DC80079AE000873AE0008E7B400088B1E022B4A
:100DD8002DE9F04107468846144637D86068102246
:100DE800002105F013F8B8F1020F064607D1264A8C
:100DF80020230821384606F02DFD336816E00A2224
:100E08000021A06805F002F8C5B21F4A2B46082148
:100E1800384606F01FFDB8F1040F1AD0102D0DD07A
:100E2800202DEAD0082D0CD13378DBB2174A0821DF
:100E3800384606F00FFD0020BDE8F08133889BB2EC
:100E4800F4E7134A0821384606F004FD6FF0150050
:100E5800F2E7E0681022002104F0D8FF0D4A0346AB
:100E680004460821384606F0F5FC102D06D0202D42
:100E780007D0082DE5D1E4B23470DCE7A4B23480A1
:100E8800D9E73460D7E700BFCAAE0008F5AE00085E
:100E9800DFAE000806AF00082DE9F04F584BDFF829
:100EA80064A191464FF0FF35012285B00746884678
:100EB8001A6020262C46494652464046FFF7D8FC81
:100EC800411C07D16A1C52D14F4A0121384606F00D
:100ED800C1FC1DE0732820D0772833D0612817D1B2
:100EE800DFF828B11022DBF80000002104F08EFFA3
:100EF80005460028DFD108F015FD454B1B58162B79
:100F0800D9D1DBF80030434A0121384606F0A2FC6B
:100F18006FF0150005B0BDE8F08FDFF8F0B00022E3
:100F2800DBF80000114604F071FF04460028C2D126
:100F380008F0F8FC364B1B58162BBCD1DBF80030F8
:100F4800354AE1E7DFF8C4B00022DBF800001146BB
:100F580004F05CFF06460028ADD108F0E3FC2C4BFA
:100F68001B58162BA7D1DBF800302C4ACCE7631CA2
:100F780001D12B4AA9E75FFA86F8C6F3C406002C0C
:100F88003CD06B4629461A46A6EB050C0CE0B8F196
:100F9800100F1DD0B8F1200F20D0B8F1080F2AD1BA
:100FA8000878187031443344A64203D80CEB01008A
:100FB8001028ECD9102CA14628BF4FF0100929465B
:100FC8004B46384601F034F81035A4EB0904D6E74F
:100FD800088880B21870000A5870E3E7086818702B
:100FE8004FEA102E83F801E04FEA104E000E83F806
:100FF80002E0D870D6E70B4A082167E7204689E760
:101008005800002054AF00085BAF0008AC06002071
:101018000C0000001AAF00082DAF000840AF000810
:1010280078AF0008DFAE000870B5104E044633787C
:101038000D4681B12BB1BDE870400D4A012106F083
:1010480009BC012333700B4A0821204606F002FC34
:101058000123337004E083F001033370002BF2D1D5
:1010680029462046BDE8704006F019BC140B002044
:1010780092AF0008CDAF000870B504463C4803782D
:10108800182B02D10B78112B31D0013A0B468D1851
:10109800AB4225D18B5C0A780370A2F13003092B8F
:1010A800344C04D922F02003413B052B04D8236893
:1010B8003149CA54013323602368022B34D11022EA
:1010C8002D48002104F0A2FE2C4A136803F8010BF6
:1010D80013602B4A1368013313600023236023E055
:1010E80013F8016B182ED3D11E78112ED0D1244DB0
:1010F800244A2B680821204606F0ACFB2046002134
:10110800FFF792FF204B187870B9204A2B681168B6
:10111800042B0ADC08B111602B6013F003010BD11A
:10112800126813681BBA136070BD086800BA41F8EA
:10113800040B043B0120EBE75B4203F0030358BFB9
:101148005942022904D1126813885BBA9BB2EAE7B4
:101158000329E9D1106802681104C2F3074301F4B6
:101168007F010B4302F47F4213430360DCE700BFB7
:10117800150B0020B8060020170B0020C40600201D
:10118800BC060020F7AF0008160B0020C0060020A0
:101198002DE9F84F0C462B49DFF8AC80DFF8AC900E
:1011A800DFF8ACB000230B602A4988F80030064607
:1011B8000B601546012C2F4655F804AF1ED90222A4
:1011C8004946504608F010FA80B99AF80220003AC9
:1011D80018BF0122924420490222504608F004FA1E
:1011E80030B9012388F80030013CE3E70022F1E739
:1011F80049465046FFF7A6F9A8B904370022114618
:10120800786804F093FD154B002211461860786841
:1012180004F08CFD124B134918603046FFF704FFA9
:101228000020BDE8F88F9AF800202D2AE6D19AF818
:101238000120002AE2D053465A460821304606F0DB
:1012480009FBD1E7B8060020160B002011B00008F2
:1012580017B00008BC06002014B00008C40600201F
:10126800C00600208110000813B5094807F083FD67
:1012780058B1084A06491268074800240094012317
:1012880000F0BAFD204602B010BD6FF01200FAE778
:10129800B09A000800A30008589E000810B54468DA
:1012A800C4E90012A36042684023D364114B13635E
:1012B80000230821C2E90E33C2E91133C2E906331B
:1012C800C2E90933D16214680B495363136411618D
:1012D80053611362C2F88830A36823B19B6C13B1C1
:1012E800064920469847A3689B6A0BB12046984751
:1012F800002010BD1854002010540020ED7500087F
:1013080010B581680446083101F076FBA168034AEC
:1013180020460831BDE8104001F014BB8DB100082B
:1013280038B58368D3F86432DB0704461AD44068BA
:1013380003685B689847054620B9E06806F02BFE0D
:10134800A3681D71A3685B6B13B1294620469847B3
:10135800A36808F0E7FA0022C3F80C23034B1858D7
:1013680001F042FF6FF00F05ECE700BF0800000036
:10137800014906F0EBB900BFDFAC0008F7B5044639
:101388008068D0F864325A070D4605D5002106F06A
:1013980001FAE06806F0D1FDE368DB6873B9002D57
:1013A80039D0A66806F14207384606F0C9F9002880
:1013B80033D0394606F5A170FFF7CEF8A268E06889
:1013C8000DF106034232294606F0BAFD58B9A06865
:1013D80000F5A1714230FFF7BFF8A068423006F06F
:1013E800AFF9ADF80600204606F0CBFBA368D3F8AA
:1013F80060329B0603D50A49606906F0A7F92046C2
:1014080001F0C6F8A268BDF80630D387A268204666
:10141800938706F060FB03B0F0BD86F84201CDE784
:10142800D09E00082DE9F04F9FB0044634220021D9
:1014380011A808F066FA0023CDE90533A368204611
:101448004233029306F0A3FB204606F02DFB10B9A9
:101458006069FFF78DFFA06814220021083008F0AA
:1014680050FA204600F0B8FFA168E0688A8F423140
:10147800002606F09CFD204606F01BFE4FF0FF37C5
:10148800B24603960DF14408B3463546B146DDE948
:101498000532012A6CD00B2B6DD857BBBBF1000F5E
:1014A80009D0204606F025FEA2680C23423211A975
:1014B80005A800F045FEB9F1000F0CD099F81130DD
:1014C800FE2B08D1059B1EAA02EB830252F8342C8E
:1014D8000AB101330593A068059D4369002B40F0CC
:1014E800B680CEB1C3689E422DD00D9600F1080596
:1014F80024E0029A0223414606A800F021FE06993C
:10150800D8F804200292034631B101290AD148B122
:101518006C4A204606F0E3FB6FF0070528461FB02B
:10152800BDE8F08F059B002B34D0D8F8000001F0FF
:1015380083FA98B166B1A5680D9608350CAE0FCE42
:101548000FC533682B602046FFF7DAFE0125E5E773
:101558005D4A0121204606F0C2FBDDE7059BCBB1C1
:10156800D8F800202946204601F018FC022809D1A5
:10157800059B0B2B92D9069B022B8FD1534B544AB8
:101588000121C6E7032805D0059B013305934FF0D9
:10159800010B7CE7039B33B9D8F8001007AA48462B
:1015A80006F00AFA054608F10408013F9DB3EB6806
:1015B800BBF1000F08D0F3B1204606F0E8FA204648
:1015C80006F089FA434AC4E7ABB1A368DDF814A072
:1015D800AE4603F1080CBEE80F00ACE80F00DEF8D9
:1015E8000030CCF80030AB682BB96B7CFE2B04BF05
:1015F8002F7C07F1FF37D5F804C0BCF1000F08D0E5
:10160800AE46BEE80F000CAE0FC6DEF80030336001
:101618006646A94603E0059B53B101230393069B45
:1016280017B9022B7FF433AF059B013305932EE7DF
:10163800A368DB6913B1DB68002BEED1264B00935E
:10164800264A119B0121204606F049FBE5E7037E67
:10165800A5EB0A05B3B1417E4FF6FF72FF2918BF0B
:101668000A469D4202D313449D420BD983681C4A03
:101678000121204606F033FB2046FFF741FE6FF0BC
:1016880015054BE7012106F07AF8A06800F53E70D1
:1016980006F099F8A36811AA294602EB8A025B6949
:1016A800204698470546A0684FF0FF324FF0FF33B9
:1016B80000F53E7006F057F8A068002106F05FF8C4
:1016C8002CE700BF9BB10008AFB1000810B20008BA
:1016D80066AB0008CDB10008FCB10008FFB40008F3
:1016E80034B2000810B5836802221A7183689B6BB4
:1016F8000446BBB905F0E7FF8368D3F86432DB041E
:101708000BD50321084B094A06F0E9FAA0686FF4E3
:10171800805100F5197005F0EEFF2046BDE8104035
:1017280001F080B810BD00BF4FB2000893AE0008AA
:101738002DE9F04F04468068A9B0012100F5197021
:1017480005F0CAFFA3681B79022B20D10023099357
:10175800A36860689E6B03681D6909AB0EB310220D
:101768001BA9A847099B93B1A068012106F007F8B7
:10177800099A1BA92046B047A068002105F0FFFF81
:10178800A3689B6B002BE3D12046FFF7ABFFA06853
:101798006FF0010100F5197029B0BDE8F04F05F0B0
:1017A800AABF01220DF12301A847099B002BEED007
:1017B8009DF923109DF82330A2680029C8DB5179D0
:1017C800032900F20A83DFE811F004008902A1026C
:1017D80008030D2B55D00A2B32D0B2F864126FF3E0
:1017E800CA01A2F86412092BA0685FD013D8002B95
:1017F800AED0082B00F0D7815A1C8949A068D2B214
:101808008A5C12F0970F00F0DA81012105F0C2FF1F
:101818009DF82310FAE01B2B45D07F2BECD1D0F894
:1018280060329D0794D5012105F0B4FFA368D3F871
:101838006032190700F1BF81204606F092FA87E767
:10184800D2F86412C1F3C70129B1D2F86412C1F306
:10185800C7010A29D0D1B2F8641263F3CA01A2F809
:101868006412A568A98FC1B9284605F093FFE068FE
:1018780006F063FB6069FFF77BFD2046FFF732FF48
:1018880066E7D2F86412C1F3C7010029E3D0D2F8A1
:101898006412C1F3C7010D29DCE72046FFF7C2FD3A
:1018A800C5F81003E9E70123437151E7D0F8603226
:1018B8009A077FF54DAF012105F06CFFA068838F73
:1018C800FF2B3FF445AFC28F00F1420100F5A17034
:1018D80007F0EFFFA368DA8F1344002583F842511D
:1018E800A2681BA90C2302F5A1720BA800F028FC22
:1018F8000B990C293FF62CAF28AB03EB8103DFF8DB
:1019080024A143F8345CA368DA8F134493F8413078
:101918001AF8033019B11B0752D401294FD10025F9
:101928000A950A9B28AA02EB8303002653F834BCC5
:10193800584605F005FF374681460496B04616AA74
:101948004146284600F0D8FC0346002844D1012E21
:10195800D4F8088068D10A9B28AA02EB830353F8BD
:10196800340C05F0EDFE08F1080206463946284613
:1019780000F0C2FC0568284605F0E2FE864205D064
:10198800821B92B2A919204606F0E9F9A068C38F14
:10199800034493F842301AF8031011F0080139D1C2
:1019A800D0F86032DF0730D505F0FEFE2021204652
:1019B80000F002FFA068012105F0F6FEC8E6013933
:1019C80000200CAB009301900AAB1BAA06F01FF88D
:1019D80005460028A5D1BBE61B6803934A4659462D
:1019E800184607F001FE68B9039B1846FEF7BCFDD0
:1019F800049B834238BF03469BB2002E08BF47466C
:101A08000493013608F1010899E72021204600F0E7
:101A1800D3FE9DE60121204606F08FF898E600BF28
:101A2800FABB0008FBBB000805907FF691AE0A9A46
:101A380028AB03EB8202B94652F8343C03931846AC
:101A480005F07EFE059B0690A8F830300596A26842
:101A580049460832284600F04FFC039BD0F800B0F6
:101A680009F101094BB1BBF1000F06D0069A1946DE
:101A7800584607F0B9FD0028E9D1D4F808A0BBF111
:101A8800000F4ED1AAF830B0059B013B0593DED17B
:101A98006069FFF76DFC204600F0C4FE0A9B28AA87
:101AA80002EB830307F1010953F8340C05F048FEF3
:101AB800394611AA8046284600F01EFC0746A06851
:101AC8003968FF2200F5A17007F0A0FD3B68039379
:101AD8004FF6FF77BA4616AA4946284609F1010B80
:101AE80000F00AFC002852D0A168036801F24111F5
:101AF800002211F801EF985C704503D110B1013252
:101B08005245F6D1B8F1000F01D0424507DBBA4281
:101B180006F1FF36A8BF3A46012E97B237D0D9460C
:101B2800D9E7AF4805F00CFE049B00EB0308BAF8B0
:101B38002A301FFA88F81B1A584693FBF8F39BB211
:101B4800079305F0FDFDBAF83010079BB1FBF3F2DF
:101B5800A8EB0008481C03FB121189B21FFA88F889
:101B6800AAF8300061B99E4B9E4ACDF800B0062114
:101B7800204606F0B4F84146204600F0B7FC83E75B
:101B8800994A5B460621204606F0A9F8F3E7002F9C
:101B98003FF4DEAD0399A7EB080292B24144204618
:101BA80006F0DDF8D4E5D0F860329E077FF5D0ADB9
:101BB800012105F0EFFD204606F0EEF8C8E5D0F863
:101BC800602292077FF5C4AD013B162B3FF6C0ADEE
:101BD80001A252F823F000BFB51D00083D1C000803
:101BE800451C000841180008A91D0008631C0008CE
:101BF80059170008591700085917000859170008FD
:101C08006B1C0008731C0008591700089D1C00086D
:101C180059170008A71C0008591700085917000889
:101C28005917000859170008AB1C00085917000875
:101C3800D51C0008204605F0B1FF89E5204605F0CF
:101C4800A6FF204605F030FF10B96069FFF790FB4A
:101C5800A068012105F09EFD0FE6204605F0A6FFCD
:101C680076E5204605F0ABFF72E5D0F860329F06B6
:101C780003D55E49606905F069FDA368D3F8603251
:101C88009E0603D55A49606905F060FD204600F0BC
:101C9800C9FD5DE500212046FFF770FB58E50121ED
:101CA800F9E7204605F06DFF204605F00CFD0121FF
:101CB800A06805F06FFDA368D3F860329D067FF534
:101CC80047AD4C49606905F041FD41E5204600F00B
:101CD800D9FCA068012105F05DFD39E55B2B02D137
:101CE8000223537134E5D2F86022900706D5622B9F
:101CF80008D14FF0FF31204600F00EFCA368002207
:101D08005A7125E5662BF9D10121F4E700215171BB
:101D1800A268D2F8601289077FF51AAD313B1B2BF8
:101D28003FF616AD01A151F823F000BFB11D000820
:101D3800BD1D0008D11D0008A51D00085917000881
:101D480059170008591700085917000859170008AB
:101D5800591700085917000859170008591700089B
:101D6800591700085917000859170008A71C000838
:101D78009D1C0008631C00083D1C0008591700083A
:101D8800A91D000859170008B51D000859170008B3
:101D98005917000859170008C11D0008032353717B
:101DA800204605F0F4FED3E403235371204605F0E2
:101DB800E8FECDE403235371A068D0F8601201F067
:101DC800010181F00101F7E503235371A368D3F8FA
:101DD80060329B077FF5BCAC2EE5002381E700BF8E
:101DE8005FB4000893B2000893AE0008D59E0008BF
:101DF800DA9E0008D09E00082DE9F043044680686A
:101E08008846D0F80C1389B015461F46002967D1BB
:101E18004FF4457207F075FDA36822681A60E06800
:101E280006F02DF9A06800F53E7007F027F84FF48A
:101E38002A794FF41A76A068304407F093FBA0681B
:101E48000022831901214844103607F061FBB6F5DA
:101E58002A7F09F11409EED1A36900261E60A06843
:101E6800022100F5197005F037FCA36850225A8545
:101E7800A36818221A85D4F80890D9F8000005F04C
:101E88005FFC89F82C00A368174A66F38205C3F83B
:101E980060526068036841461D682346A8470546A6
:101EA800D0B9A36801221A71D4E9090100220023DC
:101EB800CDE906230E230393109B0495CDE9017306
:101EC80000940A4B4FF4805202F0A8FDA368C3F8AF
:101ED8000C03216A02F0CCFC284609B0BDE8F08367
:101EE8006FF07705F8E700BF737700084D1F00080B
:101EF80010B5044680680379012B1DD14FF0FF32DD
:101F08004FF0FF3300F53E7005F02DFC2046082108
:101F180000F07AFB206805F013FC18B108496069E5
:101F280005F014FC2046FFF7DDFBA06800F53E70C5
:101F380005F049FC002010BD6FF08500FBE700BFED
:101F4800DEAC0008F8B504464068036800219B68C9
:101F5800984700283FD12046FFF7CAFF00283AD10A
:101F68001D4E1E4FA06800F52A704FF0FF324FF04B
:101F7800FF33032103F036FD0546A0684FF0FF321A
:101F88004FF0FF3300F53E7075B105F0ECFB2046CD
:101F98002B46134A012105F0A2FEA068BDE8F840CF
:101FA80000F53E7005F00FBC05F0DDFB324602215E
:101FB800204605F0AFFB20463A46294605F0AAFB25
:101FC800606803685B6903B19847A06800F53E70D4
:101FD80005F0F9FBC6E7F8BD291300083917000812
:101FE80099B2000810B50D4A0446082105F032FCE4
:101FF80020460B4A082105F02DFC2046094A0821F5
:1020080005F028FC2046084A082105F023FC204654
:10201800064A002100F096FC002010BDB0B200086E
:10202800EEB200084DB30008A1B300083BB40008A5
:10203800F8B51E4617460B462F4A0821044605F0F8
:1020480009FC6EB33B782D4A0821204605F002FCB6
:1020580001256A0704D12A4A0821204605F0FAFB1F
:10206800AE4223D97B5D254A0821204605F0F2FBC4
:102078000135102DEDD1234A0821204605F0EAFB51
:10208800D6B91F4A0821204605F0E4FB0125AE42D7
:102098002B4613D81A4A0821204605F0DBFB19E025
:1020A800194A0821204605F0D5FB0125164A0821C2
:1020B800204605F0CFFBDBE700252B46FB5C134AE7
:1020C800D25C12F0970F08BF2E23114A0821204630
:1020D80005F0C0FB0135102D07D06B07D7D1084A92
:1020E8000821204605F0B6FBD1E72046094ABDE89D
:1020F800F840082105F0AEBB51B4000858B40008F8
:1021080060B4000862B400085EB40008FBBB0008B5
:1021180084B4000864B4000810B5044613460A469F
:102128000146064801F0C0FA23691B7923B120460D
:10213800BDE8104005F0B9BB10BD00BFCB78000862
:102148002DE9F04F85B00026DFF8A8A101910746D8
:10215800144699460660B3462378002B00F0C680E3
:102168001AF8033013F0080304D004F801BBF3E7AE
:102178000026F1E73A68511C3960019941F822407C
:102188003A684A4500F0B2801E4621780029E3D01B
:10219800A6B90E4623461C46272E04D05C2E20D016
:1021A800222E40F09780204605F0A9FB611C0246CC
:1021B800204607F08CFB21780029CDD0B142A046FB
:1021C80004F101041BD1404605F099FB2146024663
:1021D800404607F07CFB98F800604446002ED9D1B1
:1021E800BAE7204605F08BFB651C024629462046C7
:1021F80007F06DFB66782C46002ECDD1ACE75C2944
:1022080098F80110D8D1B1428C4608D1404605F063
:1022180076FB21460246404607F059FBB5E73029D0
:1022280025D10025022218F802C0ACF13000C0B256
:10223800072819D8ED000132EDB2052A45EA000554
:10224800F1D1511E414440460392029105F057FBDB
:10225800039A0299023A821A404607F038FB98F826
:10226800011088F80050A7E7D2B2022AE9D1BCF1E0
:10227800780F2AD10025022018F80020A2F1300C8E
:102288005FFA8CFCBCF1090F09D82D01EDB24CEABC
:102298000505022801D00422D3E70320ECE7A2F1C8
:1022A800610CBCF1050F05D82D01EDB2573A154365
:1022B800EDB2EEE7A2F1410CBCF1050F03D82D01F8
:1022C800EDB2373AF3E7022802D108F1010473E7C7
:1022D8000322B6E71AF806301B073FF549AF6678C0
:1022E800631C002E7FF457AF1C4635E7304605B017
:1022F800BDE8F08FFBBB000838B50B46154648B95A
:102308001449154A521AB3EB920F05D251F82350CB
:10231800284638BD84680CB90025F9E70F4A94426D
:102328000AD30F4A944207D2184622682946904792
:102338002B68002BECD1EFE70A4A944202D30A4AF1
:10234800944205D3246814225343E518E358F0E770
:102358000133F8E7849E0008B09E0008C49E000878
:10236800C49E0008B09E0008C49E00082DE9F843EA
:10237800074648B105F0C3FA0025DFF8589004462F
:102388002E46631E9D4201DBBDE8F88328460135D1
:102398003B5C19F803301B07ADB2F2D529468BB266
:1023A800A342EED27B5C19F8038018F0080803D02A
:1023B80001360131B6B2F2E7002EE2D08AB2A21A93
:1023C8000130A41B01323944384407F080FAA4B222
:1023D8004646D6E7FBBB0008F8B5846894F8423057
:1023E800054653B9AB689A8FDA87F8BD013A92B2BD
:1023F800A2872AB984F84220F4E7124E04F1420079
:10240800A28F831813F8013CF35C13F00803EDD195
:1024180083549AB210FA83F110F802C016F80CC06F
:102428001CF0080F1F4603F10103F2D1BFB2002FC1
:10243800D8D0A68F731C9A1AF61B07F048FAA687FD
:10244800D0E700BFFBBB0008F7B5164602780023AB
:102458002D2A0446019305D16FF01503336000203F
:1024680003B0F0BD07F05EFA0B4F0546C3510A46AC
:10247800204601A903F0CAFCEB59222B02D16FF0C8
:102488002103EBE7002BE7D1019BA342E4D01B78A3
:10249800002BE5D0E0E700BF0C0000008368D3F80C
:1024A80060329B0603D50249406905F0DEBA7047E1
:1024B800E09E0008014905F0D8BA00BFDFAC00086B
:1024C8000A1E0DDC0ED042238168D1F860128906FD
:1024D80008D5002A04494069B8BF524205F0C5BA78
:1024E8004123F1E7704700BF80B400080A1E0DDCE5
:1024F8000ED044238168D1F86012890608D5002AD5
:1025080004494069B8BF524205F0AFBA4323F1E726
:10251800704700BF80B400082DE9F0410C1E064644
:1025280031DA644224B24FF0FF35DFF86080A4B29C
:10253800AFB212E0B368DA8F03F1420C9B8F1146F9
:10254800002071B9B5F1FF3F00D073B9891A09B2FB
:10255800304605F0F2FA013CA4B2002CEAD1BDE8FD
:10256800F0818B4201D1012DF0D01CF801E018F860
:102578000EE01EF0070F04D10028E7D1394489B2D4
:10258800DFE70120FAE70125CFE700BFFBBB000822
:102598002DE9F0478568DFF86890044605F14200A8
:1025A800FDF7E2FF002395F82C7086B29846A268E2
:1025B800558DED1BB54209DB002E1FDD42336069E6
:1025C8001049BDE8F0471A4405F04FBA1D442A44A3
:1025D800423392F842A082F84280A26860691A44A5
:1025E800494605F042FAA3682B4483F842A0A36841
:1025F8005B8DDB1BF61A00272B46D8E7BDE8F08772
:1026080066AB000893AE000808290A4617D8836805
:1026180093F82E10914212D083F82E208368082A4E
:10262800D3F8603205D0990609D50549406905F007
:102638001CBA9B0603D50349406905F016BA7047D2
:1026480087B40008E59E000838B50D4609780446A9
:10265800FFF7DAFF6A78072A11D8A36893F82F10D2
:1026680091420CD083F82F20A368D3F860329B06E0
:1026780005D560690249BDE8384005F0F6B938BDAE
:1026880090B40008F8B583689A8F0446002A51D0A0
:10269800D98F00294ED0413103F142050B44184629
:1026A800A84206D3014611F80169202E39D0A84264
:1026B80039D286B29DB2AB1B9BB2591C471CD21AA9
:1026C8000144384607F003F9A268938F711B13FA87
:1026D80081F39387A3689A8F1344002283F84220DA
:1026E80009B2204605F029FAA368D3F860329A06A1
:1026F80003D51149606905F0B8F93B460F4A08212E
:10270800204605F0ECFA2046FFF7C8FEA368D3F888
:1027180060329B060ED560690949BDE8F84005F0AE
:10272800A4B90846BCE7014611F80169202EC0D0BB
:102738000846BCE7F8BD00BFEA9E000893AE000853
:10274800EE9E00082DE9F04104460D4617460AB1F1
:10275800FFF7A4FEA368DA8FD3F86012423213445D
:102768004A071FD51846FDF7FFFEDFF844800646E6
:1027780096B9A3689A8FDA87A06805F083F920B123
:1027880007B115B16069FFF795FE6942204609B2A5
:10279800BDE8F04105F0D1B96069414605F065F939
:1027A800013EE5E7034A0821204605F098FAE0E7EC
:1027B800E1AB000893AE000813B583688DF80710E5
:1027C800D3F860220446D00722D5D98F9A8F8A423F
:1027D8001ED0481CD8870B449DF8072083F8422058
:1027E800A368D3F86012890710D5D3F860326069FE
:1027F8000B4913F0040F18BF2A2205F036F92046BA
:1028080005F052F910B16069FFF754FE02B010BD2F
:1028180001220DF10701204605F06EFAF6E700BF28
:1028280084B4000810B58368094A1B68044602216D
:1028380005F055FAA368D3F860329B0707D5204600
:10284800FFF7A6FE2046BDE8104005F053B910BDBD
:1028580093AE0008014905F0B0BA00BFDFAC00082C
:102868002DE9F047054690460E46002965D0DFF869
:10287800D0900024335D19F803301A071ED430466F
:10288800FDF772FEAB685A8D80B2001BA2EB0803FD
:10289800984206EB040A13D95146002711F8010B98
:1028A80019F800C01CF0080F02D00A282DD03B46AA
:1028B80008EB0700824227D90137EFE70134D9E74F
:1028C80053460027B84214D013F8012B0A2A19D10D
:1028D800686904F0EAFF51463A46284605F094F93B
:1028E8006869FFF7B7FF0134414628463C44FFF7C3
:1028F800FDFD6869311905F060FA6869BDE8F047BF
:10290800FFF7A8BF0137DDE71F46686904F0CDFF70
:102918003A465146284605F077F93C44335D19F8A4
:1029280003301B0707D46869FFF794FF4146284620
:10293800FFF7DCFDA3E70134F0E7BDE8F08700BF4F
:10294800FBBB00082DE9F04F0E46002189B0044674
:1029580017460D4603AA304601F10108FFF7CCFCE3
:10296800B0B995B127B13A460821204605F0B7F924
:102978001E4FDFF87C90DFF87CA0002103AA3046C8
:1029880001F10108FFF7B8FC60B909B0BDE8F08FA4
:10299800006810B1FDF7E8FD80B2854238BF0546F2
:1029A8004146D7E703688BB11A787AB1D0F804B0FA
:1029B8004A46CDE9005308213B46204605F08FF9E9
:1029C800BBF1000F04D16069FFF744FF4146D5E72A
:1029D800524620463B46082105F081F96A1D92B20D
:1029E80059462046FFF73CFFF0E700BFB2B40008A5
:1029F80099B40008A0B40008F7B50F6805460E465C
:102A0800A7B13846FDF7B0FD84B2094B00932846BC
:102A1800084A3B46082105F062F9E21C716892B247
:102A2800284603B0BDE8F040FFF71ABF3C46ECE784
:102A3800AEB4000894B2000810B507490446FDF783
:102A480081FD38B105492046FDF77CFDB0FA80F0DC
:102A5800400910BD0120FCE7A4B40008A7B4000891
:102A680010B58368D3F860329B06044603D506493F
:102A7800406905F0B5F9A36850225A85A368182261
:102A88001A85002010BD00BFF29E000808B58369B2
:102A9800034A1B68082104F0DDFE002008BD00BFC2
:102AA800B5B400082DE9F3410F4A104C104EDFF879
:102AB80044800821054604F0CDFE0023B44203F10A
:102AC800010703D3002002B0BDE8F0812A6A019211
:102AD800A268126800929BB242460821284604F078
:102AE800B9FE2C343B46E9E7C5B40008589E0008F7
:102AF800849E0008DDB4000808B5024904F0B7FE5A
:102B0800002008BDE0AC00087FB50F4E0446002544
:102B1800A268E0680DF10E0302F5A172012105F02B
:102B28000FFABDF80E00A36850B103F5A173009326
:102B380032462B460821204604F08CFE0135E7E793
:102B480083F8420104B070BDEEB4000810B5044625
:102B580004F09DFE034A03460821204604F07AFE4D
:102B6800002010BD0DB00008022907B50DD153682B
:102B780001930E4B009313680D4A012104F06AFE7D
:102B88006FF0150003B05DF804FB8368094AD3F8B9
:102B9800603213F0020F4FF00801074B08BF1346CD
:102BA800064A04F057FE0020ECE700BF05B5000810
:102BB800FCB40008F8B4000857AE00081AB50008BD
:102BC80010B58368D3F860329A06044603D50749DE
:102BD800406905F005F9A368D3F860329B0603D570
:102BE8000349606905F0FCF8002010BDF99E000853
:102BF800FE9E0008F0B5012985B004460CD0536844
:102C08000193604B009313685F4A012104F022FE90
:102C18006FF0150005B0F0BD8368D3F860329906EF
:102C280003D55A49406905F0DBF86FF0F9012046F1
:102C3800FFF746FCFA212046FFF758FCA06800255C
:102C48004FF48072294600F5A1708DF80B5006F0FC
:102C580058FE4F49606905F0C3F8606904F025FE25
:102C68004FF47A766068036801221F690DF10B0141
:102C780003ABB847039BF3B9013E4FF47A70B6B281
:102C880001F070FC002EEDD1A368D3F860329B06EA
:102C980003D54049606905F0A3F8A36850225A8516
:102CA800A36818221A8520463B4A032104F0D2FD66
:102CB8006FF00700AEE79DF80B20A3681B2A53D0DE
:102CC80093F842111B29CDD1522A4DD15A1900230C
:102CD80082F84231A66896F843215B2A2BD106F286
:102CE8004310022510F8011F2A463B2905F101056A
:102CF800ADB223D1FF2AC7D002F5A17216FA82F12C
:102D0800002211F8010F18BB86F84201FA2AA168BF
:102D180028BFFA224A85FA2BA26828BFFA2313850E
:102D2800A368D3F860329A0603D51A49606905F09A
:102D380057F800206EE786F84231A5E703EB8303D6
:102D4800303901EB4301B5F5807F8BB2CAD19BE7DF
:102D5800013502EB8202ADB2303800EB4200B5F526
:102D6800807F82B2CDD18FE72B440135ADB2092DDA
:102D780083F842217FF676AFA368002283F84221C8
:102D880082E700BF05B50008FCB40008049F0008EE
:102D980065B50008089F00082BB500082DE9F04F1D
:102DA800074689B01546894621B1104605F06DF9E8
:102DB80000285BD1032455E05C463CE029460AF52F
:102DC800A17006F03FFC0646002854D0FDF7CCFB66
:102DD80082B2601C01323146304406F078FD22464A
:102DE8005946304606F065FD4FF020033355BAF8D2
:102DF800403001331C44AAF8404008F1010800247F
:102E080001994B1C03AA48460193FFF775FA064639
:102E1800E8B131680022284605F0F2FA0028EFD11F
:102E2800D6F800B0D7F808A0BBF1000FC4D05846B8
:102E3800FDF79AFB84B2BAF840302344FF2BBDDD7E
:102E48000E4A2B460321384604F049FF0124B8F105
:102E5800000F07D0B8682A4600F1400100F5A170BC
:102E680004F083FD204609B0BDE8F08F4FF000085C
:102E780041460224C5E70224E9E700BF2DBA00084D
:102E880030BFFFF7FDBF00BF124B134A2DE9F041D9
:102E9800D518DFF84880013DB5FBF3F55D43104BCD
:102EA80008EB0304013CB4FBF3F403FB04540E1BCE
:102EB80007460C49304606F0FCFC701942460021D2
:102EC800083E06F01EFDC7F8B86004F10800BDE82A
:102ED800F08100BF010000000000000008000000B1
:102EE80004000000C49E0008044B9968D869884211
:102EF80003D003494FF080520A6070475005002004
:102F080004ED00E070B5264B15469A6A12F0100FD2
:102F18009A6A14BF1124102412F0080F9A6A18BF75
:102F28001224920706460AD5586B9A6A140634D5B5
:102F380019B19A6A22F080029A62132401E06FF0B4
:102F48001500174B9A6A12F0010F9A6A18BF1424D9
:102F580012F0200F9A6A18BF1524D20602D49B6A71
:102F68009B070AD50E4B5B68190506D5314600F05C
:102F78001FFA10B180F309880224094B9A6A920655
:102F880042BF5A6A22F400525A629A6A42F0FF0219
:102F98009A6200232B70204670BD6FF01500CCE7B5
:102FA80000ED00E0134B9A6A12F0007F9A6A14BF92
:102FB8001E201D2012F0807F9A6A18BF1F2012F46D
:102FC800002F9A6A18BF212012F4802F9A6A18BF1E
:102FD800222012F4003F9A6A18BF232012F4803F7F
:102FE8009A6A6FEA02426FEA12429A6218BF242074
:102FF800704700BF00ED00E010B5194B0246986A13
:103008009C6A10F4805F14BF1720162014F4006F18
:103018009C6A18BF1820A40509D5986B986A000403
:1030280004D51AB19A6A22F400429A6219200C4B0C
:103038009A6A12F4806F9A6A18BF1A20D2050CD4C3
:103048009B6A13F4005F18BF1C20054A936A43F477
:103058007F43936200230B7010BD1B20F5E700BF70
:1030680000ED00E0F0B5484B5B688BB00446C3F355
:103078000803002585F31188BFF36F8F02F07F40A6
:10308800B0F17F4F11D102F00C0008280DD01007C5
:103098004CBF0C4601250022033B8DF80720032B6B
:1030A80005D8DFE803F0246367602C46F3E70023C4
:1030B8009DF80720CAB902AE04F1200720686168AC
:1030C800324603C20834BC421646F7D1099A002D8D
:1030D80054D0C2F3080121B96FEA52226FEA4222A2
:1030E800099202A9184605F013F80BB0F0BD264B5B
:1030F800DA6A9107DBD4DA6A002AD8DBDA6A520086
:10310800D5D55A69A16942F480725A61BFF34F8FCD
:10311800BFF36F8F5A6931F8021C22F480725A612A
:10312800BFF34F8FBFF36F8F4DF6027291420AD0F3
:103138009A6AD2B24AB10DF1070201212046FFF77F
:10314800E1FE0346B4E72368B2E79A6A12F47F4FB8
:1031580005D00DF107010120FFF74EFFF1E79B6A4B
:10316800B3F5803FA3D3FFF71DFFEAE70DF1070290
:103178000021E3E70DF107010020EDE722F4FF72DB
:1031880022F00102ACE700BF00ED00E0024A5369FB
:1031980043F010035361704700ED00E0EFF308803F
:1031A800EFF3098101B57246FFF75CFF01BD00BF6F
:1031B800102080F311880B484FF0AA014FF40462E5
:1031C80005F0F0FD07484FF40461401880F30988C2
:1031D800EFF314800221084380F31488BFF36F8F44
:1031E80000F0A6F8C01F0020084B9B6883420BD153
:1031F800EFF3058343B1064B5A6842F080525A6098
:103208005A6A22F400425A6205F0A2BF5005002013
:1032180000ED00E00A4A93686FF00A01C3F8C01095
:103228000849C3F8BC004B6843F080534B60002347
:1032380083F31188BFF36F8F9368D3F8C00070478A
:103248005005002000ED00E001B505F0CAFDBDE81D
:10325800014019498A684FF040001044EFF3098C87
:1032680080E8F01F102080F31288BFF36F8F134F90
:103278004FF00066CA698A603E604FF0B8041419BE
:1032880020680F4C2060D2F8BC000023C2F8BC3084
:1032980080F3118804B5104600F002F9BDE8044037
:1032A80002F1400090E8F01F8CF3098801B501F0A5
:1032B8002DFCBDE8014070475005002004ED00E0FA
:1032C800E00900201EF0040F0CBFEFF30880EFF3B5
:1032D8000980816911F8021C0229FFD001B504F0A8
:1032E80019FF01BD40B2002807DB044A4109012348
:1032F80000F01F00834042F82130704700E100E0F1
:1033080040B20028A8BF00F1604001F10101B8BF38
:10331800064B4FEA0111ACBF00F5614000F00F0009
:10332800C9B2B4BF195480F80013704714ED00E017
:103338000F4A08B50F4B22F07F029A60BFF34F8FF8
:10334800BFF36F8FD3F8882022F47002C3F8882067
:10335800EFF3148323F0040383F31488BFF36F8F10
:1033680001F07AF902F0E4F900F06EF801F0D4F90E
:103378000000000800ED00E042F8203C009B42F805
:103388001C3C0A49019B42F8183C029B42F8143C39
:1033980021F001014FF0807342F8043C42F8081C08
:1033A8000023203A0266C0F8BC307047F5090008CF
:1033B8000A4A0346906878B113F1160FD0F8A800AE
:1033C80005D0A0F140029A4205D8834203D2814237
:1033D80028BF002070470020704700BF500500201C
:1033E80008B50D4B98600D4B04461546D0F8B8202B
:1033F8001A600E4601F08AFB204600F051F8284674
:1034080086F30988002163B681F31188BFF36F8FB3
:1034180000220023FDF7EAFA50050020E009002009
:10342800014910220A60704710ED00E072B6404072
:1034380080F31188BFF36F8FBFF34F8F30BF62B631
:10344800BFF36F8F704700BF044800231021C218D4
:103458000133662B82F80013F9D1704700E100E0D0
:1034680001B5EFF30580A0F110004FEAC000044950
:10347800014409C99847BDE80140024908470000CE
:10348800D89A0008F12E0008024B034A034801218C
:1034980000F042B800000220000000200CA600083E
:1034A800D0F8A820054B403A1A60054A4021C3E9E4
:1034B80001121846012100F039B800BFE4090020C4
:1034C80000000B15084AC2F898000B6823F01F0388
:1034D800034343F01003C2F89C308B6843F00103A8
:1034E800C2F8A030704700BF00ED00E0044B052291
:1034F800C3F89420BFF34F8FBFF36F8F704700BF9F
:1035080000ED00E0BFF35F8F024B0022C3F8942068
:10351800704700BF00ED00E010B5034C012322788E
:1035280004F017FE207010BD370B002008B5094ABB
:103538000023127804F00DFE10F1160F03D0064B8D
:103548000022072800DD08BDC3F89800C3F8A020B2
:103558000130F6E7370B002000ED00E0F0B5454DEF
:103568002C68082C85B000F28280FFF7CBFF002082
:103578000C2684420DD1404D404F2C706846FDF713
:103588007FFA00240646A6420AD1FFF7AFFF0020C3
:103598001CE0696806FB0011FFF794FF0130E8E7BB
:1035A800009800EB04114FEA041CCB683B40B3F5CC
:1035B800000F4AD00CD8B3F5001F30D0B3F5800FF8
:1035C80038D0B3F5801F12D06FF0150005B0F0BDEC
:1035D800B3F1807F42D0B3F1007FF5D150F80C30C1
:1035E80088684A6804F0A5FD40F4802009E050F896
:1035F8000C3088684A6804F09CFD40F0885040F41C
:103608003020039028780728CDE90123DCD801A9C8
:10361800FFF758FF2B7801332B700134B3E750F8CC
:103628000C3088684A6804F084FD40F0885040F403
:103638000020E6E750F80C3088684A6804F079FD05
:1036480040F0E06040F40030DBE750F80C30886868
:103658004A6804F06EFD40F08270D2E750F80C30F2
:1036680088684A6804F065FD40F08870C9E74FF043
:10367800FF30ABE718A60008370B00200000F0FF6A
:1036880008B5024B1B689847002008BDF0090020C8
:10369800034B044A1860937843F002039370704711
:1036A800F0090020A4000020F0B587B007460E46B8
:1036B80014460021102268461D4606F022F902230E
:1036C8008DF802302A46054B019321466846CDE91C
:1036D800047602F09BFC07B0F0BD00BFB78100087C
:1036E80008B50649064821F00701C1F1005202F564
:1036F800003203F034FE002008BD00BF5F540020F4
:10370800F40900200B0706D5034B1B5C03F00303E9
:10371800012B08BF20307047FBBB00082DE9F84F8C
:1037280099464369DFF87CB0B3F902A0B3F90060A9
:1037380005469046002733B29A4515DC6B699B69AC
:103748006BB31E683C462BB359684B792BB1424684
:103758004B46284604F057FE00B92046EEB13268C1
:10376800334604461646EEE70F4B53F836104B79AE
:103778004BB11BF8063033B942464B46284604F095
:1037880042FE044618B93C4601362746D3E710F1F5
:103798000C0FF9D12046BDE8F88F3246E0E73C46E9
:1037A800F8E700BF8C010020549E000870B5164948
:1037B800164C0023A14206D3154C164E0025B442E0
:1037C80019D3002070BD0A68934204D050694BB9E0
:1037D800038050694380506943880133438008312E
:1037E8001346E7E75D69B5F9025005805B695069E2
:1037F800B3F90230EEE76069043005F03FFB636916
:103808001834C3E90655DAE7509E0008589E0008A8
:10381800389E0008509E00082DE9F0410F4E104FC9
:10382800054600244FF001082B7853FA84F01F282E
:103838000DDC726908FA00F333EA020207D17361FA
:1038480057F830301BB107EBC002516898476A78C7
:103858000134E3B29A42E7D2BDE8F08100040140A6
:10386800000A0020044B184400230133994200F851
:10387800012BFADC704700BF1401002010B4064B7E
:10388800064902460C6818560123934023430B60EF
:1038980010BCFFF727BD00BF140100200004014041
:1038A8001F2806DC034901220B68824023EA020331
:1038B8000B6070470004014003292AD8DFE801F0B3
:1038C800020E141F134B01229968824021EA02015B
:1038D8009960D96821EA0202DA6070470D4B01222B
:1038E800996882401143F3E70A4B0122D968824064
:1038F8001143D960996821EA02029A60704701234E
:1039080003FA00F0034B9A6802439A60DA6810439E
:10391800D86070470004014030B50A4B53F8304076
:103928008C4204D103EBC0056D68954205D034B9CB
:1039380043F8301003EBC0035A60002030BD6FF02D
:103948000F00FBE7000A0020034B002243F8302059
:1039580003EBC0035A607047000A002010B5214BE2
:1039680018680B68082B144616D00B2B0BD89BB184
:10397800013B0A2B10D8DFE803F0163331162E1658
:10398800170F1A252500582B0ED008D84C2B0BD012
:10399800502B09D0482B07D06FF0850006E05C2B30
:1039A80002D0602BF7E700202060002010BD00F057
:1039B800BDF80623B0FBF3F0552358430723B0FBAB
:1039C800F3F0F1E700F0B2F80623B0FBF3F055236B
:1039D80058434008E8E74FF4FA40E5E70248E3E7D0
:1039E8000248E1E70001002000366E01006CDC02AD
:1039F800F8B54A4C4A4F00F0B7F800F017FDA36835
:103A0800484AC3F303131578D35C05F01F0503F088
:103A18001F0320FA03F647FA05F5AE4202D22846FC
:103A280000F03AFD236823F480232360236843F4DD
:103A38008033236023689A03FCD5D4F8943043F08C
:103A48000103C4F89430D4F894309B07FBD5D4F81C
:103A5800983043F00103C4F89830D4F898309807A8
:103A6800FBD5A36803F00C030C2B18D12368590568
:103A780006D4236843F48073236023685A05FCD571
:103A8800A36823F0030343F00103A360A36803F0D2
:103A98000C03042BFAD1A36823F0F003A360236876
:103AA80023F080732360E36823F0605323F400332A
:103AB80043F06053E360E36843F48033E360E36812
:103AC80023F4C003E360E36843F48013E36000F089
:103AD80031F8236843F08073236023689B01FCD589
:103AE800A36823F0F003A360A36843F00303A36073
:103AF800A36803F00C030C2BFAD1AE4202D328467C
:103B080000F0CAFC084B1F60A36823F4E063A360BD
:103B1800A36823F46053A3600020F8BD001002409E
:103B280080FE210A5ABB00080001002000487047A7
:103B380000366E010A4AD2F8803023F48073C2F846
:103B4800803002F5D032074BD1680B4043F4AA43CA
:103B580043F05303D360D36843F08073D360704756
:103B6800007000400C80FFF9064B9A6D42F08052BD
:103B78009A659B6D82B003F080530193019B02B05C
:103B8800704700BF0010024008B5074805F0F3F879
:103B980038B10648FFF77CFD0448FCF709FF002010
:103BA80008BD6FF01200FBE7B09A0008B93B0008A7
:103BB8000A2838B5074D044604D1AB680D215B6867
:103BC80028469847AB6803485B68E1B298472046A7
:103BD80038BD00BFB09A000838B50369044658607C
:103BE800084D284605F0C7F840B16168AB680C314C
:103BF8001B682846984700EAE07038BD6FF012004D
:103C0800FBE700BFE8990008F7B51746B7F5001FAE
:103C1800466802690C461D4628D101F003030433A7
:103C28009B000F229A4042EA910202F003030233FA
:103C3800354951F82310130C93FAA3F3B3FA83F31D
:103C480001EA124203F01F0322FA03F3B2689A4210
:103C580009D12046FFF724FE2046FFF775FE002114
:103C68002046FFF729FE002003B0F0BDB7F5800F0E
:103C780044D026492046FFF74FFE002841D1244A68
:103C8800B66892E803006B4683E80300214882681F
:103C9800194612689047D8B904F0030304339B000F
:103CA8000F21994041EA940101F003039B0003F1BD
:103CB800804303F580330A0C986892FAA2F2B2FAAC
:103CC80082F202F01F0220EA114196400E439E60E4
:103CD800B5F1806F0ED0B5F1C06F0DD005F17E4300
:103CE8005942594149002046FFF7E6FD2046FFF7B3
:103CF800C5FDB8E70121F6E70321F4E76FF0850079
:103D0800B2E76FF00F00AFE70000014043880008FA
:103D1800C89E0008E89900082DE9F0471E4F0446A0
:103D280000EBC1060025B44201D1002014E0206850
:103D3800C30600F01F0911D4656845F02005C0F3DB
:103D4800471AC0F343200A2823D857F82080B8F12F
:103D5800000F0DD16FF01200BDE8F087B9F1100F18
:103D680004D0B9F1110FEAD16568E8E73025E6E734
:103D7800404605F000F80028ECD04B462A460AF0E9
:103D88000F01404604F070FD002804F10804CADA67
:103D9800E2E76FF01500DFE7E8A60008012912D076
:103DA800022907D089B90068094BC01A18BF012039
:103DB800000370470068064B984214BF4FF4405008
:103DC8004FF400507047002070474FF40050704780
:103DD800008000404268116801F1080353E8003F81
:103DE80043F0010301F1080C4CE800300028F3D13E
:103DF800136810498B420FD0A1F574418B420BD048
:103E080001F580618B4207D001F580618B4203D0B8
:103E180001F580618B4203D1596841F04001596036
:103E2800126852E8003F43F4807342E800310029E9
:103E3800F7D17047003801404268116801F1080362
:103E480053E8003F23F0010301F1080C4CE800306F
:103E58000028F3D1136810498B420FD0A1F57441A3
:103E68008B420BD001F580618B4207D001F5806150
:103E78008B4203D001F580618B4203D1596821F050
:103E880040015960126852E8003F23F4807342E809
:103E980000310029F7D170470038014070B51D4640
:103EA800094B002633F812203346FCF7E1F90902E2
:103EB80041EA10616C08000220182A46334641F195
:103EC8000001FCF7D5F970BD0CA900082DE9F341F4
:103ED8000369466818688368DB680C46F168C3B1F3
:103EE80001AA9847002814DB3368244A934235D145
:103EF800019FDFF88C8000252346AAB238460021AE
:103F0800FFF7CCFFA0F54070404505D901350C2DD1
:103F1800F2D102B0BDE8F081184AD36A23F00F034A
:103F28002B43D3623668002CF3D0164B33F8152098
:103F3800002319463846FCF79BF9090241EA10614B
:103F480063080002C01822464FF0000341F1000147
:103F5800FCF78EF9C0F31300F060DAE71A6822F470
:103F680000421A603268019B002CD2D003EB540344
:103F7800B3FBF4F39BB2D360CBE700BF00800040F3
:103F8800FFFC0F000CA900082DE9F8430A79036922
:103F980045685F68012A06460C465CD0931ED3F13B
:103FA800000848EB03084FEA882861792846FFF79C
:103FB800F5FE94F80690B9F1020F03464ED0B9F118
:103FC800040F4FD0002A57D0033A012A4CD94FF496
:103FD8008050B3F5805F51D0B3F5405F50D0002BCF
:103FE8000CBF0123032399423ED1414604F09CFCB7
:103FF800814539D1E379CBB1012B43D12B68234AD1
:10400800934213D0A2F5744293420FD002F5806216
:1040180093420BD002F58062934207D002F580628A
:10402800934203D002F5405293421DD12A68136887
:1040380023F0010313602146304604F000FE2A688D
:10404800136843F00103136094E8030087E8030052
:104058000020BDE8F8834FF4C068A6E73AB94FF0EE
:104068008050B6E7002AB2D06FF08500F1E7033A36
:10407800012AF9D90020ACE71046AAE70023B2E7E5
:104088000223B0E7032BB9D0EEE700BF00380140A8
:10409800F7B50469466805465348206004F06BFE8E
:1040A80018B96FF0120003B0F0BD2068F16883689A
:1040B8001B6898470028F6DBF06901AA002104F084
:1040C800E8FB0028EFDB019B002219791868FFF74D
:1040D80023FE0028E7DB6C682B6922685F68136899
:1040E80023F001031360606804F045FE0028D8D06F
:1040F800D4E901018368DB6803B19847226852E874
:10410800003F43F00C0342E800310029F7D139465B
:10411800284604F094FD237D23B12268936843F078
:1041280008039360637D23B12268536843F4004316
:104138005360A37D23B12268536843F480335360EE
:10414800E37D23B12268536843F400335360227E31
:104158002368002A33D0254A934213D0A2F574422B
:1041680093420FD002F5806293420BD002F5806231
:10417800934207D002F58062934203D002F5405281
:1041880093422DD16B681A68936843F48043936017
:104198002268617E136823F0787343EA4153136001
:1041A8002268A17E136823F4F81343EA01431360DD
:1041B800E37E23B12268936843F400439360226846
:1041C800136843F0010313602368DA699102FCD590
:1041D800DA695202FCD52846336A9847002062E71C
:1041E8006FF015005FE700BFE8990008003801404C
:1041F80010B54FF0E0230F499C691A6908689B695C
:104208000D4902F4803234B993B903464AB90A68B1
:104218001044C01A10BD002B08BF03460AB9A342B8
:10422800F5D90A6802440A604FF0E0221269EEE705
:104238000446F3E7F40A0020F00A00200A4B102293
:1042480083F82320094B02F526321A60084B002018
:1042580018604FF0E023013A5A6198611A6942F0F8
:1042680007021A61704700BF00ED00E0F40A002061
:10427800F00A002010B5FFF7BBFF0F4B0F49D3E939
:1042880000420868001942F10002C3E900020C4A22
:1042980000230B60D2E900410A4B001BB0FBF3F08E
:1042A80043431B1941F10001C2E9003101F016FB3B
:1042B800BDE81040FEF718BEB8030020F00A002041
:1042C800B0030020109802002DE9F041DFF8D880F3
:1042D80099B1421C0BD14FF0E022136923F001037E
:1042E80013614FF07F43C8F80030BDE8F081D8F87B
:1042F8000060012806DC002708E0431CD8F80060AD
:10430800F7D161206228A8BF6220471E4FF0100332
:10431800EFF3118583F31288BFF36F8FFFF768FF00
:10432800224C4FF0E0239969D4E90023801843F127
:104338000003C4E900031E4B00221A601D4B1A68D3
:10434800831A2ED4DFF870C00CFB073303F526332D
:104358000F33B3FBFCF7131A0CFB073342F6811239
:10436800934238BF1346154A934228BF13464FF06D
:10437800E022C8F80030013B906953610023936143
:104388008142A1EB0003D4E9001238BF9B195B18E6
:1043980042F10002C4E9003285F31188BFF36F8F40
:1043A800A3E742F68113E2E7F40A0020B8030020ED
:1043B800F00A0020B003002010980200109EFB00B5
:1043C80038B54FF01003EFF3118583F31288BFF36C
:1043D8006F8F084B1C68084B1B68E41AFFF708FF2F
:1043E80085F31188BFF36F8F044B2044B0FBF3F0C3
:1043F80038BD00BFB8030020B003002010980200A9
:1044080038B54FF01003EFF3118583F31288BFF32B
:104418006F8F054B1C68FFF7EBFE85F31188BFF320
:104428006F8F204438BD00BFB8030020174B9A682F
:1044380002F00C02042A23D09A6802F00C02082A1F
:1044480020D09A6802F00C020C2A1DD1D968DA68CB
:10445800D868DB6801F00301C3F341630329C2F3A1
:104468000312C0F3062003F101030CBF08490949F0
:104478005B000132B1FBF2F25043B0FBF3F070473E
:1044880004487047024870470020704700100240F7
:1044980000366E010024F400254B421E9A4245D88E
:1044A800244B1B6803F4C063B3F5007F2BD1224B68
:1044B80098422DD8214B98422CD8214B98422BD882
:1044C800204B98422AD8204B984229D81F4B984213
:1044D80028D81F4B984227D81E4B984294BF0020DB
:1044E80001201D4A136823F00F0303431360136868
:1044F80003F00F0398421CBF136803F00F03C01AA0
:1045080018BF01207047154B98420DD8144BE4E7AB
:104518000820E6E70720E4E70620E2E70520E0E7D1
:104528000420DEE70320DCE70220DAE701207047F9
:104538007FFE210A0070004000688909003B580886
:10454800000E270700E1F50500B4C40400879303B3
:10455800005A6202002D3101002002400024F400BC
:1045680000127A0038B5044678B1FFF749FF0546CE
:104578000648074AA4FB00010023FBF779FE04461E
:10458800FFF73EFF431BA342FAD338BD80FE210A42
:1045980040420F00034A044B02609B1A1420B3FBED
:1045A800F0F07047E8990008D89A000838B54FF03D
:1045B8001003EFF3118583F31288BFF36F8F064B57
:1045C8009C6804F0ECFB85F31188BFF36F8F2046DD
:1045D800BDE83840FEF708BE50050020104B70B506
:1045E80053F82040013053F82060A64200D870BD2F
:1045F800D4E9003595B153B12846984738B1002819
:10460800B8BF4042EB68FF28A8BFFF201870EA68CF
:10461800537843F0010353700834E6E79847FBE703
:104628000CA8000808B50A4B012203201A70FFF7EE
:10463800D5FF01F01DFB0420FFF7D0FF00F01AFAA8
:10464800FCF702F9034A137B23F00103137308BD37
:10465800380B00208804002008B50348034A0021CD
:10466800121A04F09FFB08BD900100203C0B0020AB
:104678002DE9F041214E224F224986B0C82303FB81
:104688000066214B05934FF001080F231C2505FBFD
:1046980000750446CDE903384FF4C0700023CDE916
:1046A80001334FF4A072194B009500FB04113046FA
:1046B80000F036F9737B164AEE6023F00403737337
:1046C8004FF4046304FB033313446B60E31C07EBF0
:1046D800031307EB0417AB610E4B2C7487F8388073
:1046E800BFF35B8F53E8001F414443E80012002AE0
:1046F800F8D1BFF35B8F06B0BDE8F081C00300209E
:1047080050050020002800206ABB00085D8E0008C4
:10471800C01F0020F80A002080B50020B8B0FFF7BD
:104728005DFF2D4B83F308882C4D2D4E6B692D4F63
:1047380043F400736B610024F02385F82230EC7792
:104748002C766C76AC7685F820406B6A43F4E023CF
:104758006B62FEF71BFDFEF763FE4FF0FF33AB62A3
:10476800EB6206ADFEF7FAFEFEF78EFE40F201138D
:104778002846ADF82430CDE9304401F073FAB5602D
:1047880004F0F8FA0120FFF729FF0220164DFFF781
:1047980025FF00F017FF154BF56105930123144918
:1047A8000094CDE903434FF480623B46CDE90144D0
:1047B800284600F0B5F86A7B064622F0040228462F
:1047C8006A7304F013FC2046FFF752FF3A4631465D
:1047D8002846FEF705FE00BF0028002000ED00E097
:1047E800500500202D460008880400206FBB0008F3
:1047F80080290020F8B505460E464FF01003EFF368
:10480800118783F31288BFF36F8F074B9C6A24B913
:1048180087F31188BFF36F8FF8BD20463146A8474C
:10482800D4F88440F3E700BF500500204FF0100390
:10483800EFF3118183F31288BFF36F8F0B4A936AEA
:10484800834208D1D3F88430936281F31188BFF38F
:104858006F8F70471346002BF7D0D3F8842082421D
:10486800F8D1D0F88420C3F88420EEE75005002062
:1048780010B5044608B9054B9C681F2204F188004E
:1048880004F0C4FE002084F8A70010BD50050020E5
:104898002DE9F74F0C46D1B3CAB3477BDFF87480D4
:1048A800561E08466FB34FF000094D464FF0010AF7
:1048B8000AFA09FB17EA0B0F1DD0D8F80410721B6F
:1048C8008A4228BF0A46D8F80010019204F0F1FF86
:1048D800019A37EA0B07154404EB050011D0A6EB43
:1048E800050BBBF1010F28BF4FF0010B0A495A46CF
:1048F80004F0DFFF5D4409F1010908F108086019B7
:10490800D6E700230370204603B0BDE8F08F0348C4
:10491800FAE700BF24A8000874BB0008E0AC000850
:104928002DE9F04F85B0984600F16803C0E91A33C5
:104938000732129B037322F0070A0423002601F1B1
:10494800400B43730AF14005119B8373044652469A
:10495800C0E906660F468660C6730D445846AA210C
:10496800DDF84C9004F0CDFF29462046FEF78CFA7E
:104978000730109B20F00700C4F8B000C4E92ABA39
:1049880002930F9B01932D1A0E9B00932A464346D0
:1049980039462046FEF7F0FC0E9BA3670F9BE367A2
:1049A800109B6666C4F87480C4F880304FF010021B
:1049B800EFF3118382F31288BFF36F8F164FBA6A31
:1049C800C4F88420BC6283F31188BFF36F8FB9F1F8
:1049D800000F0FD01F22494604F1880004F016FE8C
:1049E80084F8A760BB6843B9C4F8B430284605B05A
:1049F800BDE8F08F84F88890F4E7D3F8B430C4F8B1
:104A0800B4301022002104F1300004F07AFF0123B1
:104A180084F83830EAE700BF50050020F0B587B0C9
:104A280000250595109D04950F9D03950E9D0295F3
:104A3800DDE912760D9D01950C9D00950446FFF762
:104A48006FFFB6F1FF3F08BFB7F1FF3F05D056EA49
:104A5800070305D1204600F067FD204607B0F0BDEA
:104A680003493A46334604F1180000F0C1FEF4E762
:104A78008F90000870B5224C224D86B02646AE4273
:104A880004F130040AD300F06DFD1D4C1E4EAC42FB
:104A980020D306B0BDE8704000F078BD54F80C3C57
:104AA800059354F8103C049354F8143C039354F8B9
:104AB800183C029354F81C3C019354F8203C009392
:104AC80054E90A2354E90C01FFF72AFF54F8303C53
:104AD8005E66D3E7D4E90A23B3F1FF3F08BFB2F11A
:104AE800FF3F05D052EA0301206803D100F01CFD06
:104AF8003034CCE73146183000F07AFEF8E700BFD2
:104B0800089E0008389E00088F900008014B98689E
:104B180000F0ECBF50050020004870470063050313
:104B28002DE9F34104460E4600F108084FF0100144
:104B3800EFF3118781F31288BFF36F8F056AC1689D
:104B48008D4230D204F0BAFAA2680546314680B1E7
:104B58000024406904F0ADFE2846C5F8C04004F0C2
:104B680045FA4046394600F0CDFC204602B0BDE883
:104B7800F081E06904F09DFEE369A268134462696C
:104B8800E361934204BF2369E361236A013304F1BB
:104B980024002362102104F0CAFC002087F3118846
:104BA800BFF36F8FE2E752EA03010AD0064989682A
:104BB8004E61CDE9002339460246404600F03EFCEE
:104BC800D4E76FF02200E9E750050020F7B5044666
:104BD80004F1080708464FF01001EFF3118681F33E
:104BE8001288BFF36F8F216A002932D0A268A169A9
:104BF80004F05FFEA369A26813446269A36193424B
:104C080004BF2369A361236A013B2362204604F0A1
:104C180055FA054668B34169A268E06904F049FE9F
:104C2800E369A26813446269E361934204BF23699C
:104C3800E361236A0133236200242846C5F8C04093
:104C480004F0D4F93846314600F05CFC204603B045
:104C5800F0BD52EA03010AD0084989684861CDE9E4
:104C6800002331462246384600F0E8FBEFE76FF0B4
:104C7800220086F31188BFF36F8FE8E75005002004
:104C88002DE9F341044617461E464FF01003EFF393
:104C9800118883F31288BFF36F8FC368334A7BB1DF
:104CA80080689168884219D057EA060318D188F3BA
:104CB8001188BFF36F8F6FF00F0002B0BDE8F0816D
:104CC800916891F90E1021610133E3609368A36044
:104CD80088F31188BFF36F8F0020EEE72169F2E7B0
:104CE80091F90E1090F90E309942A8BF19466FF04D
:104CF8007E029142B8BF11468B422EDD04F0B6F811
:104D08000546CDE900761A482246414600F096FB52
:104D18000028E1D04FF01003EFF3118683F31288D7
:104D2800BFF36F8FA068D0B1236821699C420AD075
:104D38004BB193F90E309942A8BF19466FF07E0324
:104D48009942B8BF194604F091F840B10848314675
:104D580000F0D8FB6FF00A00AFE70025D1E7002D7F
:104D6800F4D186F31188BFF36F8FF3E75005002065
:104D7800390B002038B58368044673B31A4A926821
:104D880093422DD1C368012B03D9013BC360002096
:104D980038BD4FF01003EFF3118583F31288BFF38A
:104DA8006F8F0169806804F061F8204604F086F985
:104DB800A06060B190F90E2022610022C0F8C020E6
:104DC80004F014F90948294600F09CFBDFE7E0608D
:104DD80085F31188BFF36F8FD9E76FF01500D7E718
:104DE8004FF0FF30D4E700BF50050020390B0020FA
:104DF80038B504464FF01003EFF3118583F312889A
:104E0800BFF36F8F04F05AF950B10022C0F8C020E8
:104E180004F0ECF829460848BDE8384000F072BBB9
:104E2800D4E902329A4218BF0133A360022104F187
:104E3800100004F07CFBEDE7390B00202DE9F04F62
:104E48004A4E85B004464FF0FF384FF0FF394FF017
:104E58001003EFF3118783F31288BFF36F8FD4F831
:104E6800C8508DB9022104F1E00004F00EF80028C2
:104E780043D10023CDE90089029304F1D0023946D9
:104E88003B4800F043FCE2E7D4F8CC202B68C4F898
:104E9800C830954208BFC4F8CC30D4F8E03043F0AD
:104EA8000203C4F8E030EB6823F0040343F0010385
:104EB800EB606B6887F31188BFF36F8F28469847BC
:104EC8004FF01003EFF3118B83F31288BFF36F8F4A
:104ED800EB68990723F0010219D4EA60D4F8E030AE
:104EE80023F00203C4F8E0308BF31188BFF36F8F0F
:104EF800DB05ACD400F06EFBA9E704F1D80500226D
:104F08000121284604F045F90028F8D1B1E73068B6
:104F180023F00303EB600028E0D00027D0F800A0BE
:104F28003B460028DAD04268954201460CD1016818
:104F38009FB972683160824200D1716040F8083BC5
:104F4800FFF756FF39460023BAF1000F0BD0DAF805
:104F5800002050460F469246E3E739607268824265
:104F680008BF7760EAE75246F3E700BFFC0A002073
:104F7800390B0020F8B5C3689A0704460F46C3F3F7
:104F880040062CD45B071AD40B680BB983680B60F6
:104F9800E368DD0744BFA3683B603D684CBF022659
:104FA8000126002D3AD01F4B9B68AB420AD0D5F89A
:104FB800E030D807C3F3800214D46FF01206002340
:104FC8003B6025E003F0F2FED5F8E0300028F0D190
:104FD800D907C3F3C002F0D552B15B0708D46FF00C
:104FE8000F06ECE7002AFAD1C3F3C003002BF6D171
:104FF80000232360D5F8CC3063B9C5E9324428468C
:1050080003F05DFFE36843F00403E3603B68A360DB
:105018003046F8BD1C60C5F8CC40F0E76FF01506C7
:10502800CDE700BF500500200146014803F08ABFC4
:10503800B0050020F0B589B004460020C4E932006C
:105048000E9D04F1D000C4E9340004F1D800C4E98D
:1050580036001DB32879002840F2011008BF01204E
:10506800C4F8E00000204FF0FF364FF0FF37CDE9DD
:105078000330CDE90100CDE90667094B00942046CD
:10508800FFF7CCFC25B1296811B12046FFF7F0FBEA
:10509800204609B0BDE8F04003F090BE0120DFE7EC
:1050A800454E0008F7B50C46019016461D464FF0D0
:1050B8001003EFF3118783F31288BFF36F8F08464D
:1050C80003F0EEFE55EA060309D101A92046FFF7D1
:1050D80051FF87F31188BFF36F8F03B0F0BDE3680A
:1050E800064943F00803E360019BA36204F1100042
:1050F80032462B4600F07CFB0120EAE7D58E0008FB
:1051080001460148FFF7CEBFB0050020C3897F2BB9
:1051180012D80A4B1B6863B1094B90F90E201B6823
:105128009A4209DB437BDB0606D1064BC31A18BF3C
:10513800012303F0010070470023FAE70C0B00205D
:10514800080B0020C0030020044BC01A044BC010F9
:105158005843044B01221A54704700BF90050020A1
:10516800ABAAAAAA390B002070B50E4B0E4C1E7CB8
:1051780006EB460304EBC3040546204604F02DF86D
:105188000A4B002228469A55FFF7C0FF48B1084B42
:1051980008491A68013A2046D317BDE8704000F064
:1051A80027BB70BD5005002090050020390B00205A
:1051B8000C0B00205151000838B50D4D2B4653F803
:1051C800204F9C4200D004B9EC68AB6838B95A7BD0
:1051D800D20604D1A26912B9DA897F2A05D89C427D
:1051E80002D02046FFF7C0FF2346EB6138BD00BF61
:1051F8005005002070B590F90D20437B002A014628
:1052080004DA03F07F03437303F0ADFE4B7B154ACA
:1052180063F07F0310464B7350F8203F546A834273
:1052280008BF002323B9C1E90004216051620CE0E2
:1052380091F90E5093F90E60B5420ED0AE420CDDD6
:105248005868C1E90030016059609068431A5842B3
:10525800BDE870405841FFF7AFBF9C42E3D01B68E0
:10526800E0E700BF5005002070B490F90D30427B94
:10527800002B29DBD30627D183692BBB134962F0A6
:105288007F0242730A4652F8204F944218BF2346C1
:105298004C6A23B9C0E90024206048620CE090F908
:1052A8000E5093F90E60B5420AD0AE4208DD5A6836
:1052B800C0E900321060586070BC0020FFF77CBF66
:1052C800A342E7D01B68E4E770BC70475005002094
:1052D80008B590F90D20437B002A014604DA03F053
:1052E8007F03437303F03FFE044B9868431A584208
:1052F8005841BDE80840FFF75FBF00BF50050020D8
:1053080070B515461C46064603F048FEB4F1FF3F4B
:1053180008BFB5F1FF3F08D02A46234606F118001A
:105328000249BDE8704000F063BA70BD8F90000874
:105338002DE9F041002A437B0E460CBF10210821BD
:10534800194204460AD10B43DD0903F09F0211D12B
:105358004273082914D00120FFF72EFF1E4B9B68CB
:10536800A34232D1EFF305837BBB3046BDE8F04161
:10537800FDF750BF03F01F03437303F0F4FDE8E7A4
:10538800A36813B1204603F0F6FD04F1180003F0FA
:1053980024FF04F168074FF00008A56EBD4200D055
:1053A80035B90120FFF708FF2046FFF73FFAD5E798
:1053B800284603F0E0FD05F1180003F00EFFC5F8DC
:1053C800C0802846FFF750FFE7E786F31188BFF350
:1053D8006F8FBDE8F08100BF5005002038B54FF051
:1053E8001003EFF3118583F31288BFF36F8F104B0F
:1053F800104A9C681068A04206D1FFF7B5FE85F3F5
:105408001188BFF36F8F38BD00211B7C11600A4AD9
:10541800D35C002BF3D02046FFF778FE0028EED0AF
:10542800637BDB0602D12046FFF7E4FE2046E4E773
:1054380050050020040B0020390B002070B50C48E3
:105448000C4D86682E600C461146DDE904234FF0AA
:105458001006EFF3118586F31288BFF36F8F80680B
:10546800FFF74EFF2046BDE87040FDF7D3BE00BFF2
:1054780050050020040B0020F8B504464FF0100337
:10548800EFF3118683F31288BFF36F8F437BDA063D
:1054980049B219D18569BDB903F07F03437303F09D
:1054A80062FD437B164A817363F07F03437313469F
:1054B80053F8200F984218BF0546506A5DB9C4E9F1
:1054C80000300460546211E0A173002086F3118853
:1054D800BFF36F8FF8BD95F90E70B9420BD08F42AC
:1054E80009DD6B68C4E900531C606C600120FFF79C
:1054F80063FE0120EAE7A842E1D02D68DEE700BF9D
:105508005005002049B9EFF3058030B9054BDA6939
:105518009B689A4201D0FDF77DBE81F31188BFF3E5
:105528006F8F70475005002010B54FF01002EFF351
:10553800118482F31288BFF36F8F427B510704D422
:1055480084F31188BFF36F8F10BD22F004024273F9
:10555800FFF78AFE21460248BDE81040FFF7D2BF98
:105568003A0B00204FF01003EFF3118183F31288F8
:10557800BFF36F8F044B9A68D37B013BD37381F3DE
:105588001188BFF36F8F70475005002010B54FF09A
:105598001003EFF3118483F31288BFF36F8F084B66
:1055A8009A68D37B0133D3730020FFF705FE84F399
:1055B8001188BFF36F8FBDE8104003F0BFBD00BF77
:1055C80050050020024B03F12002C3E9082270476E
:1055D80050050020F8B54FF01003EFF3118583F361
:1055E8001288BFF36F8F19498868437B03F07F03E4
:1055F800437303F0B8FC8B685A7B084662F07F025D
:105608005A7350F8202F4C6A824208BF002222B9F0
:10561800C3E9000423604B620CE093F90E6092F931
:105628000E70BE420ED0B7420CDD5168C3E90021AE
:105638000B6053600120FFF7BFFD2846BDE8F84026
:10564800FDF7E8BDA242E3D01268E0E7500500206C
:1056580050EA01032DE9F04105460E4603D1FFF754
:10566800B9FF00202CE0831C71F1FF332ADB03F023
:10567800CAFD2C184FF01003EFF3118883F312883A
:10568800BFF36F8F114F124BB8681860FFF720FEF9
:10569800B86810492A463346183000F0A9F8BA68A5
:1056A800537B43F0100353734046FDF7B3FD03F0FB
:1056B800AAFD201A63EB0303012873F10003D0DB72
:1056C800BDE8F0816FF00104241AD3E750050020EB
:1056D800040B00208F900008B1F1FF3F08BFB0F124
:1056E800FF3F08B503D0BDE80840FFF7B1BF034B43
:1056F800986803F08BFC4FF0FF3008BD5005002080
:10570800014B9868704700BF50050020D3B5DDE90C
:105718000667089CCDE90067FFF790FE1CB1034BB4
:105728009B685B69236002B0D0BD00BF50050020B4
:1057380008B50648064A0749121A03F035FBBDE8C2
:105748000840054A0549064803F02EBB0000002022
:105758008D0100200CBD0008000000000CBD0008F1
:1057680000000020034B1B680BB9FEF729BE002080
:10577800704700BF100B002010B50E4B1C689C42F0
:1057880004D1FFF7EFFF6FF0004010BDFFF7EAFF0D
:10579800002CF8D0D4E904321B1A62EBE072B3F1A2
:1057A800004F72F10001EEDA002AACBF1846002063
:1057B800EBE700BF0401002030B570B10B4B5B680C
:1057C80098420AD0036843B1D3E90421D0E90445DB
:1057D800121941EB0501C3E90421D0E90032136035
:1057E8005A600023C0E9003330BD00BF0401002027
:1057F800B3F1FF3F08BFB2F1FF3FF8B504461D46BD
:1058080016465CD081604FF01003EFF3118783F3E5
:105818001288BFF36F8F013275F1FF3324DA2D49F7
:10582800D1E900206FF001039B1A4FF0FF3262EBC1
:1058380000009E1B60EB0500012E70F1000301DAE9
:1058480001260020C4E90460234ED6F800C075681C
:10585800B44508BF4FF0000CBCF1000F0DD1C4E9EE
:1058680000652C6074601CE0FFF77CFF013645F191
:105878000005361845EBE070E4E7DCE90420D4E9DC
:105888000431934271EB000E1ADAD21ADCF80430B4
:1058980060EB0100CCE90420C4E900C31C60CCF82B
:1058A80004403368B34206D09C4204D1FFF764FF3A
:1058B8000021FEF709FD87F31188BFF36F8FF8BD4C
:1058C8009B1A61EB0001AC45C4E90431C7D0DCF890
:1058D80000C0C1E7A8050020040100202DE9F84F09
:1058E8004FF01003EFF3118C83F31288BFF36F8F1F
:1058F800DFF8B0A0DFF8B0902C4FC9F80000DAF854
:1059080000000024504508BF00200025D7E90021E9
:10591800D9F80030E04680B3D0E9046C4FEAE37E62
:10592800B3427EEB0C0B05DAF61A6CEB0E04C0E9F9
:10593800046422E0B21841EBE671C0E90445C7E906
:105948000021FFF739FF88F31188BFF36F8F836851
:1059580098474FF01003EFF3118883F31288BFF3D1
:105968006F8FD9F80030DAF800009B1B5045C44609
:10597800C9F80030CAD1D7E900219A1841EBE3737E
:105988000024C7E90023C9F80040FFF7F5FE2146C7
:10599800FEF79AFC88F31188BFF36F8FBDE8F84FC4
:1059A800FFF71CBD04010020100B0020A8050020F3
:1059B80010B54FF01003EFF3118483F31288BFF38F
:1059C8006F8FFFF7CFFE064A0346D2E90001181889
:1059D80041EBE37184F31188BFF36F8F10BD00BFF3
:1059E800A80500202DE9F3471D46294B9F68012390
:1059F80087F8703087F8713052EA050316460CBFF5
:105A08000123002307F17002804603F0C4FC81469D
:105A18004FF01003EFF3118A83F31288BFF36F8FEF
:105A280097F8704064B901465246404603F053FC6B
:105A38008AF31188BFF36F8F204602B0BDE8F08764
:105A4800002387F8703056EA050306D18AF31188D7
:105A5800BFF36F8F6FF00A04EEE7CDE900650D4ADA
:105A68000D485146FFF7EAFC04464FF01003EFF3E8
:105A7800118583F31288BFF36F8F2A464946404643
:105A880003F029FC85F31188BFF36F8FD4E700BFBB
:105A9800500500200C0100203A0B002038B50346C1
:105AA8004FF01002EFF3118582F31288BFF36F8F66
:105AB800C160012181600068834206D185F31188A5
:105AC800BFF36F8F0024204638BDD0E90032136041
