:020000040800F2
:10000000804B0020C57B00081D180108B17B00084B
:10001000B17B0008B17B0008B17B00080000000044
:10002000000000000000000000000000057D000846
:10003000B17B0008000000005D7C0008798D00089D
:10004000CD7F0008CD7F0008CD7F0008CD7F000860
:10005000CD7F0008CD7F0008CD7F0008CD7F000850
:10006000CD7F0008CD7F0008CD7F0008CD7F000840
:10007000CD7F0008CD7F0008CD7F0008CD7F000830
:10008000CD7F0008CD7F0008CD7F0008CD7F000820
:10009000CD7F0008CD7F0008CD7F0008CD7F000810
:1000A000CD7F0008CD7F0008CD7F0008CD7F000800
:1000B000CD7F0008CD7F0008CD7F0008CD7F0008F0
:1000C000CD7F0008CD7F0008CD7F0008CD7F0008E0
:1000D000CD7F0008CD7F0008CD7F0008CD7F0008D0
:1000E000CD7F0008CD7F0008CD7F0008CD7F0008C0
:1000F000CD7F0008CD7F0008CD7F0008CD7F0008B0
:10010000CD7F0008CD7F0008CD7F0008CD7F00089F
:10011000CD7F0008CD7F0008CD7F0008CD7F00088F
:10012000CD7F0008CD7F0008CD7F0008CD7F00087F
:10013000CD7F0008CD7F0008CD7F0008CD7F00086F
:10014000CD7F0008CD7F0008CD7F0008CD7F00085F
:10015000CD7F0008CD7F0008CD7F0008CD7F00084F
:10016000CD7F0008CD7F0008CD7F0008CD7F00083F
:10017000CD7F0008CD7F0008CD7F0008CD7F00082F
:10018000CD7F0008CD7F0008CD7F0008CD7F00081F
:10019000CD7F0008CD7F0008CD7F0008CD7F00080F
:1001A000CD7F0008CD7F0008CD7F0008CD7F0008FF
:1001B000CD7F0008CD7F0008CD7F0008CD7F0008EF
:1001C000CD7F0008CD7F0008CD7F0008CD7F0008DF
:0801D000CD7F0008CD7F00087F
:1001D800FFFFFFFFFFFFFFFFFFFFFFFFFFFFFFFF27
:1001E800FFFFFFFFFFFFFFFFFFFFFFFFFFFFFFFF17
:0801F800FFFFFFFFFFFFFFFF07
:1002000090F800F06DE9024520F007016FF0000C56
:1002100010F0070491F820F040F049804FF00004FE
:100220006FF00700D1E9002391F840F000F10800D9
:1002300082FA4CF2A4FA8CF283FA4CF3A2FA8CF311
:100240004BBBD1E9022382FA4CF200F10800A4FA78
:100250008CF283FA4CF3A2FA8CF3E3B9D1E90423CC
:1002600082FA4CF200F10800A4FA8CF283FA4CF303
:10027000A2FA8CF37BB9D1E9062301F1200182FABD
:100280004CF200F10800A4FA8CF283FA4CF3A2FAC3
:100290008CF3002BC6D0002A04BF04301A4612BAD1
:1002A000B2FA82F2FDE8024500EBD2007047D1E9D4
:1002B000002304F00305C4F100004FEAC50514F063
:1002C000040F91F840F00CFA05F562EA05021CBF34
:1002D00063EA050362464FF00004A9E7000000004E
:1002E000A2EB0300704700BF02780B78012A28BFF9
:1002F0009A42F5D16DE9044540EA0104CDE902676F
:100300006FF0000C4FEA447212B380EA010414F05B
:10031000070F6AD100F0070420F0070004F003057E
:1003200021F007014FEAC505F0E8042314F0040F9B
:10033000F1E804670CFA05F462EA040266EA0406CE
:100340000AD063EA0403624667EA0407664603E0EC
:10035000F0E80423F1E8046782FA4CF582EA060427
:10036000A4FA8CF46CBB83FA4CF583EA0705A5FA72
:100370008CF595B950E9022351E9026782FA4CF5F0
:1003800082EA0604A4FA8CF483FA4CF583EA0705A2
:10039000A5FA8CF52543DBD09CB92DBAB5FA85F4C6
:1003A00024F0070427FA04F1DDE9026723FA04F3D5
:1003B00003F0FF0001F0FF01FDE80445A0EB0100A0
:1003C000704724BAB4FA84F424F0070426FA04F13E
:1003D000DDE9026722FA04F202F0FF0001F0FF01FA
:1003E000FDE80445A0EB0100704714F0030F3CD179
:1003F00010F0030428D150F8082B51F8083B82FA7A
:100400004CF582EA0305A5FA8CF55DB950F8042C89
:1004100051F8043C82FA4CF582EA0305A5FA8CF502
:10042000002DE8D02DBAB5FA85F424F0070423FA9C
:1004300004F122FA04F202F0FF0001F0FF01FDE8EE
:100440000445A0EB010070474FEAC40420F003000C
:1004500050F8082B21F0030151F8083B0CFA04F482
:1004600062EA040263EA0403C9E710F003041AD045
:10047000A1EB040120F00300E40750F8042B06D0A0
:100480000FD28B785FFAA2F4E41A06D12BB1CB78A5
:100490005FFAB2F4E41A00D11BB920465DF8104BA4
:1004A000704701F1040150F8042BCC0721F003013F
:1004B00051F8043B48D824D222F07F4482FA4CF50C
:1004C00094EA1325A5FA8CF50AD165B951F8043BD5
:1004D00084EA0204B4EB036F0ED150F8042BEBE76F
:1004E0004FEA132355E035F07F454DD10878FDE8FC
:1004F0000445C0F1000070474FEA126203F0FF03A9
:1005000047E002EA1C4482FA4CF594EA1345A5FA46
:100510008CF50AD165B951F8043B84EA0204B4EBC6
:10052000034F0CD150F8042BEBE74FEA134330E0B4
:1005300015EA1C4528D10B884FEA124229E04FEA00
:10054000124203EA1C4324E002F0FF0482FA4CF555
:1005500094EA1365A5FA8CF50AD165B951F8043B04
:1005600084EA0204B4EB032F09D150F8042BEBE723
:100570004FEA13630DE015F0FF0F05D10B684FEA4A
:10058000122223F07F4304E04FF00000FDE8044511
:10059000704712BA1BBA82FA4CF482EA0304A4FA36
:1005A0008CF5B5FA85F402FA04F203FA04F34FEA83
:1005B0001260FDE80445A0EB1360704700000000E6
:1005C00001F0FF01102A2BDB10F0070F08D010F804
:1005D000013B013A8B422DD010F0070F42B3F6D108
:1005E000F0B441EA012141EA014122F007047FF021
:1005F00000070023F0E80256083C85EA010586EA78
:10060000010685FA47F5A3FA87F586FA47F6A5FAB3
:1006100087F68EB9EED1F0BC01F0FF0102F00702BF
:1006200032B110F8013B013A83EA010313B1F8D16A
:100630000020704701387047002D06BF354603384B
:10064000073815F0010F07D1013015F4807F02BF84
:10065000013015F4C03F0130F0BC0138704700BFD5
:1006600081F0004102E000BF83F0004330B54FEA63
:1006700041044FEA430594EA050F08BF90EA020FD0
:100680001FBF54EA000C55EA020C7FEA645C7FEA63
:10069000655C00F0E2804FEA5454D4EB5555B8BF86
:1006A0006D420CDD2C4480EA020281EA030382EAF7
:1006B000000083EA010180EA020281EA0303362D89
:1006C00088BF30BD11F0004F4FEA01314FF4801C5C
:1006D0004CEA113102D0404261EB410113F0004F6E
:1006E0004FEA03334CEA133302D0524263EB430325
:1006F00094EA050F00F0A780A4F10104D5F1200EC3
:100700000DDB02FA0EFC22FA05F2801841F100011D
:1007100003FA0EF2801843FA05F359410EE0A5F1F1
:1007200020050EF1200E012A03FA0EFC28BF4CF022
:10073000020C43FA05F3C01851EBE37101F00045D8
:1007400007D54FF0000EDCF1000C7EEB00006EEBE5
:100750000101B1F5801F1BD3B1F5001F0CD349086F
:100760005FEA30004FEA3C0C04F101044FEA4452C6
:1007700012F5800F80F09A80BCF1004F08BF5FEA4D
:10078000500C50F1000041EB045141EA050130BD2D
:100790005FEA4C0C404141EB0101013C28BFB1F53F
:1007A000801FE9D291F0000F04BF01460020B1FA8A
:1007B00081F308BF2033A3F10B03B3F120020CDA5D
:1007C0000C3208DD02F1140CC2F10C0201FA0CF03B
:1007D00021FA02F10CE002F11402D8BFC2F1200CA0
:1007E00001FA02F120FA0CFCDCBF41EA0C01904056
:1007F000E41AA2BF01EB0451294330BD6FEA04049F
:100800001F3C1CDA0C340EDC04F11404C4F1200289
:1008100020FA04F001FA02F340EA030021FA04F39B
:1008200045EA030130BDC4F10C04C4F1200220FAF2
:1008300002F001FA04F340EA0300294630BD21FA30
:1008400004F0294630BD94F0000F83F4801306BFF6
:1008500081F480110134013D4EE77FEA645C18BFEA
:100860007FEA655C29D094EA050F08BF90EA020F81
:1008700005D054EA000C04BF1946104630BD91EA79
:10088000030F1EBF0021002030BD5FEA545C05D17C
:100890004000494128BF41F0004130BD14F58004BB
:1008A0003CBF01F5801130BD01F0004545F0FE412F
:1008B00041F470014FF0000030BD7FEA645C1ABF64
:1008C000194610467FEA655C1CBF0B46024650EA9B
:1008D000013406BF52EA033591EA030F41F40021C7
:1008E00030BD00BF90F0000F04BF0021704730B54D
:1008F0004FF4806404F132044FF000054FF0000122
:1009000050E700BF90F0000F04BF0021704730B5E2
:100910004FF4806404F1320410F0004548BF4042B7
:100920004FF000013EE700BF42004FEAE2014FEA0C
:1009300031014FEA02701FBF12F07F4393F07F4FE7
:1009400081F06051704732F07F4208BF704793F0EA
:100950007F4F04BF41F40021704730B54FF46074FD
:1009600001F0004521F000411CE700BF50EA010200
:1009700008BF704730B54FF000050AE050EA0102A9
:1009800008BF704730B511F0004502D5404261EB19
:1009900041014FF4806404F132045FEA915C3FF45A
:1009A000D8AE4FF003025FEADC0C18BF03325FEAF7
:1009B000DC0C18BF033202EBDC02C2F1200300FAA8
:1009C00003FC20FA02F001FA03FE40EA0E0021FACD
:1009D00002F11444BDE600BF70B54FF0FF0C4CF4BB
:1009E000E06C1CEA11541DBF1CEA135594EA0C0F6D
:1009F00095EA0C0F00F0DEF82C4481EA030621EAA8
:100A00004C5123EA4C5350EA013518BF52EA0335E2
:100A100041F4801143F4801338D0A0FB02CE4FF094
:100A20000005E1FB02E506F00042E0FB03E54FF0C4
:100A30000006E1FB03569CF0000F18BF4EF0010EBC
:100A4000A4F1FF04B6F5007F64F5407404D25FEAB8
:100A50004E0E6D4146EB060642EAC62141EA55516B
:100A60004FEAC52040EA5E504FEACE2EB4F1FD0CAD
:100A700088BFBCF5E06F1ED8BEF1004F08BF5FEA2B
:100A8000500E50F1000041EB045170BD06F00046DD
:100A900046EA010140EA020081EA0301B4EB5C048A
:100AA000C2BFD4EB0C0541EA045170BD41F4801182
:100AB0004FF0000E013C00F3AB8014F1360FDEBFA7
:100AC000002001F0004170BDC4F10004203C35DA83
:100AD0000C341BDC04F11404C4F1200500FA05F306
:100AE00020FA04F001FA05F240EA020001F00042A7
:100AF00021F0004110EBD37021FA04F642EB06011D
:100B00005EEA430E08BF20EAD37070BDC4F10C0446
:100B1000C4F1200500FA04F320FA05F001FA04F20A
:100B200040EA020001F0004110EBD37041F10001F6
:100B30005EEA430E08BF20EAD37070BDC4F1200501
:100B400000FA05F24EEA020E20FA04F301FA05F269
:100B500043EA020321FA04F001F0004121FA04F211
:100B600020EA020000EBD3705EEA430E08BF20EAE1
:100B7000D37070BD94F0000F0FD101F0004640001B
:100B800041EB010111F4801F08BF013CF7D041EA9D
:100B9000060195F0000F18BF704703F000465200A1
:100BA00043EB030313F4801F08BF013DF7D043EA72
:100BB0000603704794EA0C0F0CEA135518BF95EA28
:100BC0000C0F0CD050EA410618BF52EA4306D1D1AF
:100BD00081EA030101F000414FF0000070BD50EACE
:100BE000410606BF1046194652EA430619D094EA58
:100BF0000C0F02D150EA013613D195EA0C0F05D142
:100C000052EA03361CBF104619460AD181EA030195
:100C100001F0004141F0FE4141F470014FF000004D
:100C200070BD41F0FE4141F4780170BD70B54FF0E8
:100C3000FF0C4CF4E06C1CEA11541DBF1CEA135568
:100C400094EA0C0F95EA0C0F00F0A7F8A4EB05044A
:100C500081EA030E52EA03354FEA013100F0888041
:100C60004FEA03334FF0805545EA131343EA12630A
:100C70004FEA022245EA111545EA10654FEA0026BF
:100C80000EF000419D4208BF964244F1FD0404F578
:100C9000407402D25B084FEA3202B61A65EB0305D4
:100CA0005B084FEA32024FF480104FF4002CB6EB91
:100CB000020E75EB030E22BFB61A754640EA0C0011
:100CC0005B084FEA3202B6EB020E75EB030E22BF51
:100CD000B61A754640EA5C005B084FEA3202B6EB92
:100CE000020E75EB030E22BFB61A754640EA9C0051
:100CF0005B084FEA3202B6EB020E75EB030E22BF21
:100D0000B61A754640EADC0055EA060E18D04FEADE
:100D1000051545EA16754FEA06164FEAC30343EA7E
:100D200052734FEAC2025FEA1C1CC0D111F4801F4B
:100D30000BD141EA00014FF000004FF0004CB6E744
:100D400011F4801F04BF01430020B4F1FD0C88BFE3
:100D5000BCF5E06F3FF6AFAEB5EB030C04BFB6EBEE
:100D6000020C5FEA500C50F1000041EB045170BDE1
:100D70000EF0004E4EEA113114EB5C04C2BFD4EB0E
:100D80000C0541EA045170BD41F480114FF0000E92
:100D9000013C90E645EA060E8DE60CEA135594EA0E
:100DA0000C0F08BF95EA0C0F3FF43BAF94EA0C0F11
:100DB0000AD150EA01347FF434AF95EA0C0F7FF486
:100DC00025AF104619462CE795EA0C0F06D152EADA
:100DD00003353FF4FDAE1046194622E750EA4106BE
:100DE00018BF52EA43067FF4C5AE50EA41047FF4CF
:100DF0000DAF52EA43057FF4EBAE12E74FF0FF3C34
:100E000006E000BF4FF0010C02E000BF4FF0010C04
:100E10004DF804CD4FEA410C7FEA6C5C4FEA430C7D
:100E200018BF7FEA6C5C1BD001B050EA410C0CBFCC
:100E300052EA430C91EA030F02BF90EA020F00202E
:100E4000704710F1000F91EA030F58BF994208BF95
:100E500090422CBFD8176FEAE37040F00100704752
:100E60004FEA410C7FEA6C5C02D150EA013C07D1A9
:100E70004FEA430C7FEA6C5CD6D152EA033CD3D0F4
:100E80005DF8040B704700BF8446104662468C46EE
:100E90001946634600E000BF01B5FFF7B7FF002821
:100EA00048BF10F1000F01BD4DF808EDFFF7F4FF4A
:100EB0000CBF012000205DF808FB00BF4DF808EDD5
:100EC000FFF7EAFF34BF012000205DF808FB00BFF8
:100ED0004DF808EDFFF7E0FF94BF012000205DF81A
:100EE00008FB00BF4DF808EDFFF7CEFF94BF0120CF
:100EF00000205DF808FB00BF4DF808EDFFF7C4FFC8
:100F000034BF012000205DF808FB00BF4FEA41021A
:100F100012F5001215D211D56FF47873B3EB62524B
:100F200012D94FEAC12343F0004343EA505311F072
:100F3000004F23FA02F018BF404270474FF0000004
:100F4000704750EA013005D111F0004008BF6FF042
:100F5000004070474FF00000704700BF4FEA410269
:100F6000B2F1E04324BFB3F5001CDCF1FE5C0DD907
:100F700001F0004C4FEAC0024CEA5070B2F1004F51
:100F800040EB830008BF20F00100704711F0804F54
:100F900021D113F13872BCBF01F00040704741F419
:100FA00080114FEA5252C2F11802C2F1200C10FA1D
:100FB0000CF320FA02F018BF40F001004FEAC12301
:100FC0004FEAD32303FA0CFC40EA0C0023FA02F3A5
:100FD0004FEA4303CCE77FEA625307D150EA01337B
:100FE0001EBF4FF0FE4040F44000704701F000404B
:100FF00040F0FE4040F40000704700BF7BB972B97A
:101000000029BEBF00204FF0004106E008BF0028C5
:101010001CBF6FF000414FF0FF3000F057B8ADF14A
:10102000080C6DE904CE002909DB002B1ADB00F067
:10103000FFF8DDF804E0DDE9022304B07047404228
:1010400061EB4101002B1BDB00F0F2F8DDF804E05E
:10105000DDE9022304B0404261EB4101524263EBFF
:1010600043037047524263EB430300F0E1F8DDF8BD
:1010700004E0DDE9022304B0404261EB4101704726
:10108000524263EB430300F0D3F8DDF804E0DDE9FE
:10109000022304B0524263EB4303704753B94AB989
:1010A000002908BF00281CBF4FF0FF314FF0FF3070
:1010B00000F00CB8ADF1080C6DE904CE00F0B8F802
:1010C000DDF804E0DDE9022304B07047704700BF9B
:1010D000844641EA000313F003036DD1403A41D343
:1010E00051F8043B40F8043B51F8043B40F8043B02
:1010F00051F8043B40F8043B51F8043B40F8043BF2
:1011000051F8043B40F8043B51F8043B40F8043BE1
:1011100051F8043B40F8043B51F8043B40F8043BD1
:1011200051F8043B40F8043B51F8043B40F8043BC1
:1011300051F8043B40F8043B51F8043B40F8043BB1
:1011400051F8043B40F8043B51F8043B40F8043BA1
:1011500051F8043B40F8043B51F8043B40F8043B91
:10116000403ABDD2303211D351F8043B40F8043B31
:1011700051F8043B40F8043B51F8043B40F8043B71
:1011800051F8043B40F8043B103AEDD20C3205D341
:1011900051F8043B40F8043B043AF9D2043208D039
:1011A000D2071CBF11F8013B00F8013B01D30B88AB
:1011B00003806046704700BF082A13D38B078DD089
:1011C00010F003038AD0C3F10403D21ADB071CBF5B
:1011D00011F8013B00F8013B80D331F8023B20F8C5
:1011E000023B7BE7043AD9D3013A11F8013B00F8FE
:1011F000013BF9D20B7803704B7843708B78837086
:10120000604670474FEA410C7FEA6C5C02D150EABD
:10121000013C0AD14FEA430C7FEA6C5C02D152EAEE
:10122000033C02D14FF0000070474FF001007047BF
:101230002DE9F04786468C460846089E15467446BA
:101240001946002B40F0C2808542B2FA82F245D99D
:101250004AB1C2F1200300FA02FC2EFA03F39540D2
:1012600043EA0C0C94404FEA154EA8B2BCFBFEF8C2
:10127000230C0EFB18CC08FB00F943EA0C439945FC
:1012800028D9EB1808F1FF3704D2994502D9A8F103
:1012900002072B44A3EB0903A4B2B3FBFEFC0EFB35
:1012A0001C330CFB00F044EA0344A04214D92C196F
:1012B0000CF1FF3304D2A04202D9ACF102032C445A
:1012C000241A43EA07401EB1D440002334607360FF
:1012D000BDE8F0874746DDE76346F1E792BB431B75
:1012E00001214FEA154EAFB2B3FBFEFC200C0EFB02
:1012F0001C330CFB07F840EA0343984562D9EB180E
:101300000CF1FF3004D2984502D9ACF102002B4415
:10131000A3EB0803A4B2B3FBFEFC0EFB1C330CFBD7
:1013200007F744EA0344A7424ED92C190CF1FF33C6
:1013300004D2A74202D9ACF102032C44E41B43EAD5
:101340000040C0E7C2F1200320FA03F1954090402D
:101350002EFA03F303434FEA154EAFB2B1FBFEFC86
:101360000EFB1C10190C0CFB07F841EA00418845E4
:1013700004FA02F422D969180CF1FF3004D288452E
:1013800002D9ACF102002944A1EB08019BB2B1FBE8
:10139000FEFC0EFB1C110CFB07F743EA01439F42C6
:1013A0000ED9EB180CF1FF3104D29F4202D9ACF1F7
:1013B00002012B44DB1B41EA004192E76046E3E770
:1013C0006146F7E76046A3E76346B7E7834206D97D
:1013D00016B9002108467BE7C6E900E0F9E7B3FA51
:1013E00083F78FB9834201D3724508D8BEEB02045C
:1013F00060EB030301209C461EB9002168E73846D4
:10140000FAE7C6E9004CF8E7C7F1200CBB4022FA26
:101410000CF41C432EFA0CF120FA0CF3B8400143F3
:101420004FEA14490EFA07F5B3FBF9F81FFA84FEE8
:1014300009FB18300B0C08FB0EFA43EA00439A45EF
:1014400002FA07F240D9E31808F1FF3004D29A45B6
:1014500002D9A8F102002344A3EB0A0389B2B3FB2B
:10146000F9F809FB183308FB0EFE41EA03418E45EB
:101470002CD9611808F1FF3304D28E4502D9A8F1A6
:101480000203214443EA0040A0FB0298A1EB0E01B5
:101490004145CE46434602D306D14D4504D2B9EB71
:1014A000020E68EB04030138002EA6D0B5EB0E0245
:1014B00061EB030101FA0CFC22FA07F34CEA030387
:1014C000F940C6E9003198E74046C5E74346D9E709
:1014D0002DE9F04F2DED028BCD4D99B010F094FF1A
:1014E0000FF0A7F9142200210CA80CF043F8EB6CC4
:1014F000C84843F01003EB64EB6C03F01003049353
:10150000049BEB6C43F00403EB64EB6C03F004030B
:101510000593059BEB6C43F02003EB64EB6C03F04D
:1015200020030693069BEB6C43F00103EB64EB6C2A
:1015300003F001030793079BEB6C43F00203EB649A
:10154000EB6C03F00203089300224FF608710024AD
:10155000089B11F037F937224FF49013AD480E94E1
:101560000CA9CDE90C23012609F0E2FD4FF6087322
:10157000A8480CA90227CDE90C36CDE90E4409F0A4
:10158000D7FD0CA94FF090404FF00509CDE90C6450
:101590000E9709F0CDFDE0230CA94FF09040CDE966
:1015A0000C37CDF84090CDE90E4409F0C1FD4FF461
:1015B000C053CDE90C370CA90E234FF09040CDE974
:1015C0000E47109309F0B4FD1223C0214FF0040818
:1015D000CDE90C139048CDF840800CA9CDE90E441C
:1015E00009F0A6FDAB6C3B43AB64AB6C3B40029394
:1015F000029BAB6C3343AB64AB6C884D33404946C4
:10160000039322460B20039B06F09AFB4946224691
:101610003A2006F095FB224621460B2009F042FBBA
:101620000B2009F071FB224621463A2009F03AFBD3
:101630004FF020093A2009F067FB4A4621460CA8E2
:10164000CDE909440B940BF095FF4FF0A0404FF407
:1016500040334FF49C6CC5E900034FF48063284687
:10166000C5E90BC3C5F818802E6285F83860C5E956
:101670000244C5E90444AC8385F82440EC6385F852
:10168000404008F079FE09A92846099409F04EFA6D
:10169000DFF8B4E10E940623CDE90CE30CA97F2317
:1016A0002846CDE90F381194DFF8A08108F08EFFAD
:1016B000302221460DEB02000BF05CFF584BC8F8BE
:1016C0000030404610F018FF222322460CA9404665
:1016D000CDE90F34CDE911460C97524EADF83440A8
:1016E0000E94139409F0AEFB102221460CA80BF0C7
:1016F00041FF4FF08043C6E900344FF0800B40F2C9
:10170000A3633046C6E903344FF4805AB460C6F888
:1017100018B0CDE909440B9411F06DF80CA93046CE
:10172000CDF830A009F064FE09A9304609940B9465
:1017300009F032FF102221460CA80BF01BFF3A4F94
:101740003A4BBC60C7E90034384642F63B33C7E940
:101750000334C7F818B0CDE909440B9411F04BF8E5
:101760000CA93846CDF830A009F042FE09A9384648
:101770002F4ECDF824900B9409F00EFF2146102235
:101780000CA80BF0F7FE2B4AB46042F63B33304610
:10179000C6E90334C6E90024C6E9054BCDE909448E
:1017A0000B9411F028F80CA93046CDF830A009F0C0
:1017B0001FFE09A93046CDE909940B9409F0ECFE0F
:1017C0001D49DFF87C904FF48072284609F026F915
:1017D0001A4A00944FF480732146404609F0B6FA45
:1017E000304609F073FD384609F070FD06A7D7E9C9
:1017F0000067DFF85C80124CDFF83CB09FED118A87
:101800000025A24626E000BF6666666666664A3F19
:10181000001002400010004800040048501500204D
:101820000008005030140020E413002000040040A1
:1018300098130020003401404C260020E4080020CA
:10184000BC1900200000000002003004DC1400205D
:10185000BC1500203BF8020B07EE900AF8EE677A01
:10186000013517EE900AFFF75FF832463B46FFF767
:10187000B3F8FFF773FBB5F5807F206084ED018A34
:1018800004F10804E6D1012349461948002208F072
:101890006BF92A464146484607F054FB80224146F0
:1018A00014489FED150A07F043FBDAED020A9AEDA2
:1018B000030A0BF05BF9DFED117A60EE277A17EE81
:1018C000900AFFF731F808A3D3E90023FFF7AEF938
:1018D000FFF744FB0C900C9B00214FF4FA700AF0C8
:1018E000B9FD88E7AFF300804AD8124DFB210940CB
:1018F00048480108BC1500200000003C00003443AB
:101900002DE9F04F9FB08246039116461C460025F4
:10191000307810B9284600F085BD731C2528069341
:1019200006D00399D0470028C0F27C8501351BE220
:101930001822002110A80BF01DFE7378252B00F053
:10194000BA800023711C98469E469C4618460F4656
:1019500011F8012B2B2A00F0DD8000F2D480202A20
:1019600000F0DB80232A00F0DB802BB19DF84830AB
:1019700043F040038DF84830B8F1000F05D09DF8D2
:10198000483043F020038DF84830BEF1000F05D0F9
:101990009DF8483043F010038DF84830BCF1000F3B
:1019A00005D09DF8483043F008038DF8483028B141
:1019B0009DF8483043F004038DF848309DF84830D6
:1019C00003F04401442903D16FF386138DF84830A6
:1019D0009DF848300E9743F080032A2A8DF848304E
:1019E00040F0A3809DF8493043F001038DF8493061
:1019F0007B1C1A782E2A9DF849200CBF012100215A
:101A000061F341028DF849200CD15A1C0E925A788C
:101A10002A2A40F09A809DF8492042F004028DF86D
:101A2000492002331A786C2A00F0BB8000F29D80B6
:101A3000682A00F0A3806A2A00F0BC804C2A00F0DB
:101A4000C18013F8012B0693782A8DF84B2000F201
:101A500001816D2A00F2C380692A00F2FB80572AB7
:101A600000F2DA80412A04D0A2F14503022B00F2F1
:101A7000F1809DF84A3002F0DF020421A2F1410713
:101A800061F302037A429DF849108DF84A307A4199
:101A900062F3C7110A068DF84910CBB200F1198123
:101AA00003F07802182A40F003816FF3C6038DF823
:101AB00049300023F2E0B21C06928DF84B309DF8BD
:101AC0004930D90740F1078154F8042B0492002AC9
:101AD00008DA9DF8482042F004028DF84820049A64
:101AE000524204925A0740F1FE8054F8047B002FC2
:101AF00080F2FD809DF849306FF341038DF8493045
:101B00004FF0FF37F3E02D2A0DD0302A7FF42DAFB0
:101B100001231CE74FF0010C19E74FF0010E16E707
:101B20004FF0010813E7012011E70EA803F092FC23
:101B30000E9BBB423FF45DAF9DF848201390C00F51
:101B400060F341028DF8482053E70EA803F082FCB1
:101B50009DF848301490C3F3400242EAD07262F319
:101B600041038DF848300E9B5CE7742A26D07A2A10
:101B70007FF467AF9DF8492006210CE05A78682A67
:101B80009DF8492006D1012161F3C6028DF8492054
:101B9000023356E7022161F3C6028DF84920013372
:101BA0004FE75A786C2A9DF8492001D10421EBE7D0
:101BB0000321F0E79DF849200521ECE79DF8492035
:101BC0000721E8E7BDF8482022F4F04222F00202A3
:101BD00042F4804242F00202ADF84820DFE76E3A5C
:101BE000D3B201229A4040F282431A429DF8493012
:101BF00037D112F0240F5FD1D1072BD59DF84A20A1
:101C000003F07803A3F14000032161F30202434291
:101C10008DF84A20434141E0A2F15801C9B20120A8
:101C200000FA01F111F4624F7FF423AF40F6010393
:101C300019429DF849301AD111F4043F0AD09DF899
:101C40004A2060F3020203F07803402B8DF84A200B
:101C50007FF42FAF9DF8483043F001038DF84830F2
:101C600027E79DF84A20022161F30202EBE79DF885
:101C70004A10022003F0780360F30201402B8DF834
:101C80004A1002BF9DF8481041F001018DF848103C
:101C9000632A7FF40EAF003B18BF01239DF8482054
:101CA000C2F340010B4363F341028DF8482006E77D
:101CB00013F0380FCED1FCE69DF84A20032113F033
:101CC000780F61F302028DF84A2014BF012300232C
:101CD000E4E70123E2E79DF94820002AB4BF139A04
:101CE0004FF0FF32FDE69F077FF50AAF149F9DF886
:101CF0004A200023CDE9133302F00703042B9DF89B
:101D0000493007D1980705D49DF949100029ACBF87
:101D100006270D2702F00702012AC3F3C30333D1BC
:101D2000DA1E042A04D8DFE802F021464621210009
:101D30002268012B4FEAE271CDE910211CD19DF9F7
:101D40004020D117CDE9102104349DF84820079296
:101D5000910750D0069B0399324650460EF048FE3C
:101D60000028C0F25F830544069ED1E554F8042B99
:101D7000D117CDE91021E8E7022BE5D111B242F3EA
:101D8000C032CDE91012DFE7022A24D1DA1E042A7C
:101D900004D8DFE802F0181010181800012B54F8CE
:101DA000042B4FF0000114D0022BCDE91021CCD12F
:101DB00092B21092C9E7073424F00704F4E8020154
:101DC000CDE91001C1E754F8042B109200221192C2
:101DD000BBE7D2B2CDE7042A08D1073424F00704C8
:101DE000D4E900010834CDE91001AEE7032AACD1F3
:101DF00054F8042BDDE79DF84BB0BBF1780FB3D856
:101E0000BBF1570F49D8BBF1250F00F09180BBF112
:101E1000240FA9D9BBF1410F03D0ABF14503022B2D
:101E2000A2D8DDE91013002BC0F23781079A1607FC
:101E300000F13681C2F300194FEA4919C3F30A5081
:101E4000C3F31303002840F02E8151EA030614BFA8
:101E500001260026DB0243EA5153C902BBF1460FBB
:101E600040EA010E43EAE07C08BF4FF0660B5EEAF1
:101E70000C0CCDE90C1300F09D81002E40F04A813E
:101E80000D9B43F00043A0F2FE380D930020DDE9E6
:101E90000C1306464FF0050C56E1ABF15801202912
:101EA0003FF662AF01A050F821F000BF39200008D2
:101EB000691D0008691D0008691D0008691D0008EA
:101EC000691D0008691D0008691D0008691D0008DA
:101ED000231E0008691D0008BD1F0008D11F00084F
:101EE000231E0008231E0008231E0008691D000889
:101EF000D11F0008691D0008691D0008691D000840
:101F0000691D000873200008392000083F200008E0
:101F1000691D0008691D0008371F0008691D0008B9
:101F200039200008691D0008691D000839200008D3
:101F300003995846F6E4002F109E3BDB39463046A5
:101F40000BF008FD002E3FF40FAF3718BB1B4FF00E
:101F500000099DF84A2012F01001059100F0578207
:101F6000023312F04002DDF84C80089218BF149A38
:101F7000CDF81C80434418BF9B18049A002A40F3F4
:101F80006182D31A04939DF848305807C3F3800B3D
:101F900000F15882590640F14882B9F1000F07D08C
:101FA00003994846D0470028C0F23C820135D94603
:101FB00030233BE23046FEF723F9C6E7109B8DF84D
:101FC0005C304FF000090DF15D0717AE0123C0E74B
:101FD000079B1A0758BFC3F30019DDE9102354BF4C
:101FE0004FEA49194FF02B09002B06DA524263EBF6
:101FF0004303CDE910234FF02D090DF17503009334
:10200000DDE9100117AB12AA03F03AFA0646002FD9
:102010000CDB9DF848200DF175039B1B6FF38612B6
:102020009F428DF8482001D9FB1A1393002E3FF4EC
:102030009BAE0DF175075BE04FF00009DDE71098EE
:10204000002800F0DF810DF17503009312AA17AB91
:10205000002103F015FABDF84A3003F0EF0343F412
:10206000F04343F010030646ADF84A304FF0000944
:10207000CDE7109A072B3FF677AEDFE803F00C04AC
:10208000060C08080C0C15706EE615806CE6EB1754
:10209000C2E9005368E6156066E64FF02D09CDE60B
:1020A0004FF02B09CAE640F2FF76B0422FD10BF178
:1020B00001029F48D2B20B43825C02F003021ED1A0
:1020C000012A0BBF492369234E216E210CBF4622F2
:1020D00066228DF85C309DF848308DF85D106FF306
:1020E00086138DF85E208DF848300DF15F0717AE2E
:1020F000BB1BB9F1000F3FF42CAF013329E7012AD4
:1021000015BF6E234E23612141211A46E1E70026C7
:10211000A0E6013849185B41002BFADACDE90C132F
:10212000AEE6490841EAC3715B08B3F1333F40466C
:1021300008F10108F5D20CFB03FEA1FB0C1300F122
:1021400002087344013E012018F1020FE9DB08B1D7
:10215000CDE90C13B8F1000FDDE90C312DDCC8F12D
:102160000400A0F1200C08F11C08C34001FA08F893
:1021700021FA0CFCC1400BF0DF0043EA08034728BA
:1021800043EA0C033AD1F01C01DBB7422BDAABF186
:102190000202002F5FFA82FB7DDD9DF84800820677
:1021A00007F1FF3777D43A1E18BF0122059207F1D5
:1021B00001082DE04FF0000868E6023341F100010C
:1021C0000CA8CDE90C310EF0E4FBDDE90C3108F18F
:1021D000FF380136DB184941002908F1FF38F9DAE8
:1021E000CDE90C31B6E79DF848209006A7EB06072D
:1021F0004FD43A1E18BF0122059204E00022BBF121
:10220000660F0592D3D117EB06084FF0660B44D446
:10221000B8F1100FA8BF4FF010089FED437B8DED74
:102220000E7B10200B90DDE90E02B8F1000F37D1C4
:10223000C01842EB0103B3F1805F41D2CDE90C033A
:10224000079BBBF1660F03F0200340F0BA80002E1D
:1022500041DC30218DF85C10002B6BD1002F40F356
:10226000B4812E238DF85D3086B17342BB42A8BF86
:102270003B469DF84A101393002BA7EB0307D4BFEE
:102280000023012363F345118DF84A100DF15E0818
:1022900039E00022B0E7002288E74FF00008BCE7F1
:1022A000400840EAC2705208CDE90E020EA8CDE9FE
:1022B000083108F1FF380EF06CFBDDE90831B2E7B8
:1022C000400840EAC3705B08CDE90C030CA80EF08F
:1022D00060FB0136B4E70DF15C080B99002909DDBC
:1022E0000BA90CA807930EF06CFB013E08F8010B3C
:1022F000079BF2D113969BB9002F40F364812E21E6
:1023000008F8011B0026002F1DDD0B9B002B1ADD9A
:102310000BA90CA80EF055FB013F08F8010BF2E7E2
:102320002E2308F8013BEDE7000000000000000844
:10233000E84801082E238DF85D30002EA6D0002F2E
:1023400093DC0DF15E08059B002B4ED11497474698
:102350000BF0DF03452B23D1002EBABF76422D238D
:102360002B23632EC8BF64217B70D1BFBA1CB6FB80
:10237000F1F3FA1C03F13000C8BF01FB13664FF004
:102380000A01C8BFB87087F800B0B6FBF1F3174672
:1023900003F1300001FB1363303307F8020B537075
:1023A000139B002B2CDC149B002BD4BF0023012398
:1023B0009DF84A2063F3861200238DF84A203B7073
:1023C00095E60BA90CA807930EF0FBFA079B8DF876
:1023D0005C00302818BF06F1FF3613B9002F40F318
:1023E000F4802E238DF85D3050E7474608F1FF3822
:1023F00017F8013C302BF8D02E2B08BF4746A7E733
:102400000123D5E7724F81467E1F0523A1E5110701
:1024100048BF0133A5E5184609930399D047002822
:10242000099B05DA1FB0BDE8F08F2023DDF810B05E
:102430005A46002A0BF1FF3BEDDC049BCDF810B0AF
:102440002B449D1AB9F1000F05D003994846D04797
:102450000028E7DB0135089B002B79D09DF9493036
:10246000002B29DBDFF86C913346187819F800202F
:1024700052079B4603F101033FD49DF84A30AE1B3F
:1024800098065E4407D44246002A08F1FF383BDC38
:10249000079B33449E1A9BF800002E280AD103990B
:1024A000D0470028BEDBB8F1000F06F1010631DC91
:1024B0000BF1010B5D4638E0B14699F80000702839
:1024C000C84609F1010913D1AE1B149D4644354499
:1024D000AB1B002B34DC03993B46424650460EF0C2
:1024E00087FA00289EDB3044049E0546064465E0DA
:1024F0000399D0470028E0DA94E705930399D04781
:102500000028059BB1DA8DE703993020D0470028D9
:10251000B9DA87E703993020D04708F1FF38C0E7E0
:102520000399D0470028FFF67DAF287819F80030CE
:102530005907A84605F10105F2D4A6EB0B06C4E73E
:1025400003993020D0470028FFF66CAF0136BFE773
:102550009DF84A30DA0601D41B0706D503993020CE
:10256000D0470028FFF65EAF0135059B3BB10399CC
:102570009DF84B00D0470028FFF654AF0135A84422
:1025800006E003993020D0470028FFF64BAF013515
:10259000A8EB0503002BF4DC03993B46324650467A
:1025A0000EF026FA0028FFF63DAF28449CE7039979
:1025B0002020D0470028FFF635AF0135731B002BD4
:1025C000F5DCFFF7D1BB1E46BDE60DF15D08BAE6AE
:1025D000794C0108E94801082DE9F04704468AB022
:1025E0008846174610F020FBB8F1010F06460D464D
:1025F00008D1CDE900012A4A082120460EF07DFCD1
:10260000002012E07F6827483946FDF76DFE78B15B
:1026100025483946FDF768FE50B12046234A3B461F
:1026200001210EF06AFC6FF004000AB0BDE8F087EB
:102630003046294618A3D3E90023FEF7DFFC0646FF
:102640000D46104619461A4A0023FEF7D7FC80466D
:102650000F46104619464EF660220023FEF7CEFCC8
:1026600082468946104619464FF47A720023FEF7D7
:10267000C5FCCDE904A9CDE90601CDE90823CDE9E2
:102680000287CDE900650B4A082120460EF035FC93
:10269000B6E700BFAFF30080005C26050000000035
:1026A000934C0108A44C0108A74C0108B04C010848
:1026B00080EE3600C74C01082DE9F0472DED028B66
:1026C0009FED498B4A4E84B004464FF01003EFF360
:1026D000118783F31288BFF36F8FD4F808518DB937
:1026E000022104F5907010F02EFC002843D1002345
:1026F0008DED008B029304F5887239463D4809F050
:10270000C3FEE2E7D4F80C212B68C4F808319542E7
:1027100008BFC4F80C31D4F8203143F00203C4F8E8
:102720002031EB6823F0040343F00103EB606B6896
:1027300087F31188BFF36F8F284698474FF0100337
:10274000EFF3118983F31288BFF36F8FEB6899075A
:1027500023F0010219D4EA60D4F8203123F00203F7
:10276000C4F8203189F31188BFF36F8FDB05ACD437
:1027700009F0EEFDA9E704F58C7500220121284639
:1027800010F014FA0028F8D1B1E7306823F0030301
:10279000EB600028E0D00027D0F80080BA4600287F
:1027A000DAD04268954201460BD1016897B9726848
:1027B0003160824200D1716040F808AB09F03CFB07
:1027C0003946B8F1000F0BD0D8F8002040460F462C
:1027D0009046E4E739607268824208BF7760EBE7B1
:1027E0004246F3E7AFF30080FFFFFFFFFFFFFFFF6D
:1027F0000C260020722800202DE9F04F2DED028BD1
:10280000D3B00C46CDE9080192460B930BF0EEFDD8
:10281000036813931846FDF7F3FCA38912901D0675
:1028200003D52369002B00F08A870023CDF810A080
:10283000CDE92733CDE91533CDE917330E93149342
:102840000793049B9FEDA27B1B7829AA8DED107B3B
:1028500026929346002B00F0EB81DDF810A004E0F7
:102860001AF8013F002B00F01C81252BF8D1049BA6
:10287000BAEB030540F01A819AF80030002B00F003
:10288000D78100239AF801508DF87B3006930AF126
:10289000010A4FF0FF3903930AF1010AA5F1200361
:1028A0005A2B00F23B81DFE813F0A5023901390110
:1028B0009E023901390139016A0039013901660284
:1028C000780239017102850239017E025B005B00EA
:1028D0005B005B005B005B005B005B005B00390141
:1028E000390139013901390139013901CF01390182
:1028F00034028700CF01CF01CF01390139013901FD
:102900003901C20239013901B500390139013901F2
:102910003E023901B002390139010107390139019B
:10292000390139013901390139013901CF01390141
:1029300034028B00CF01CF01CF01F2028B00800067
:102940003901E8023901DA02B900C902800039010F
:102950003E027D00250739013901280739017D0034
:10296000A5F1300300221AF8015B02EB820203EBAF
:102970004202A5F13003092BF5D906928EE7089D96
:1029800028460BF033FD436817931846FDF738FCD3
:102990001890044628460BF029FD83681593002CF7
:1029A00040F070869AF8005076E7039B9AF8005042
:1029B00043F0200303936FE7039B43F0100303935B
:1029C000039B9C0640F194810B9B073323F0070384
:1029D0001A46596852F8083B0B920A460029C0F281
:1029E000BB85B9F1FF3F00F0F587039921F0800620
:1029F00053EA020100F05A850A2B72F1000180F0BF
:102A00007C8730338DF847310DF2471303960493DA
:102A1000012634E0039B43F010030393039B13F060
:102A2000200200F054810B9B073323F00703194663
:102A30005A6851F8083B0B91039921F480660021F4
:102A40000020B9F1FF3F8DF87B0000F0938226F063
:102A50008000039053EA020040F08B82B9F1000F2E
:102A600040F0C187002940F0268516F001061BBF03
:102A700030238DF8473152AB0DF2471304930023F6
:102A8000B145CDE90C3349469DF87B200A93B8BF88
:102A9000314605910F93002A52D0059B01330593CF
:102AA0004EE0049BBAEB030500F0C280049B289F14
:102AB000CBE90035279B01332F44072B2897279319
:102AC0000ADC0BF1080B079B2B440793D4E600BFED
:102AD0000000000000000000DDE9080126AA0CF05B
:102AE00079F880B90DF1A40BEDE7DDE9080126AA1C
:102AF0000CF070F8002800F08A800A9B1BB10A993C
:102B000008980BF075FB099B9B89590601F1E5823A
:102B1000079853B0BDEC028BBDE8F08F002D00F09C
:102B2000878000228DF8E4508DF87B200123CDE9C9
:102B30000C2205931E4639AB0A9291460F920493DC
:102B4000039B13F0020302D005990231059103990A
:102B500011F0840405D1DDE905010F1A002F00F3FF
:102B60004183289F8AB1279A0DF17B0101320137F9
:102B7000CBF80010072A4FF0010128972792CBF8D5
:102B8000041000F387830BF1080B83B1279B1FAA66
:102B900001330237CBF80020072B4FF002022897B1
:102BA0002793CBF8042000F383830BF1080B802CD0
:102BB00000F0FC81A9EB0608B8F1000F00F3428297
:102BC000039BDA0500F16D81049BCBF80030279B55
:102BD000CBF804600133F519072B2895279300F3F0
:102BE000AA820BF1080B039B580705D5DDE90523E5
:102BF0009C1A002C00F36E83DDE9062305998A42B6
:102C0000ACBF9B185B180793002D7FF46EAF0023B9
:102C100027930A9B1BB10A9908980BF0E9FA0DF16A
:102C2000A40BCDF810A0049B1B78002B7FF415AEED
:102C3000289B002B3FF467AF099C089826AA2146E1
:102C40000BF0C8FFA38960E70B9B073323F0070352
:102C5000B3EC027B57EC176B0B9327F000431B93ED
:102C60008DED1A7ADDE91A01AE4B4FF0FF328DED92
:102C7000107BFEF7C7FA002840F09B84DDE91A01BB
:102C8000A84B4FF0FF32FEF723F9002840F0918463
:102C90000022002330463946FEF710F9002840F0A4
:102CA0005B879DF87B20039B9F4C23F0800303935D
:102CB0009E4B472DC8BF1C4603210023CDE90C3392
:102CC00004940A9305910E4699460F93E3E60B99F7
:102CD00051F8043B0B91039911F010017FF4ACAE55
:102CE000039A12F0400000F019879BB20A46A3E64F
:102CF0000B9A52F8043B0B92039AD00600F15584CC
:102D0000039A510640F14D8443F3C03211461BB281
:102D100064E60B9B002253F8041B8DF87B208DF892
:102D2000E4100B9302E70B9F57F8043B0493002633
:102D30008DF87B60002B00F09E86B9F1FF3F00F01C
:102D40000D8504984A463146FDF73AFC0A90002862
:102D500001F025810A9B049A0B97B1469E1A26EA38
:102D6000E673CDE90C999DF87B200593CDF828906A
:102D7000CDF83C908FE60B9B53F8042B0692002A6B
:102D800080F20A84069A0B9352420692039B9AF8A9
:102D9000005043F0040303937EE52B239AF8005080
:102DA0008DF87B3078E5039B9AF8005043F0800360
:102DB000039371E5524612F8015B2A2D01F0198246
:102DC000A5F13003092B92464FF000093FF666AD9E
:102DD0001AF8015B09EB890903EB4909A5F13003F6
:102DE000092BF5D95AE5039B9AF8005043F00103EB
:102DF000039351E59DF87B309AF80050002B7FF447
:102E00004BAD20238DF87B3046E5039B43F0100645
:102E100016F0200200F089830B9B073323F0070391
:102E200019465A6851F8083B0B91012108E6039BAB
:102E30009AF8005043F0080303932DE50B9A039B87
:102E400043F0020652F8043B0B9247F63002ADF80D
:102E50007C20374A1492022100227825F0E5039B5A
:102E60009E0640F1FD830B9B079A1B681A60D217E0
:102E70005A600B9B04330B93D3E69AF80050039BE4
:102E80006C2D00F0538443F01003039304E59AF88B
:102E90000050039B682D00F0408443F040030393EF
:102EA000FAE4652D40F35381DDE91001002200238F
:102EB000FDF7FAFF002800F04982279B1D4ACBF856
:102EC0000020013301370122072B28972793CBF8E5
:102ED000042000F38E850BF1080B209B0E9A934281
:102EE00004DB039BDB0701D43D467CE6129B139A6F
:102EF000DD19CBE90023279B28950133072B279366
:102F000000F3FE830BF1080B0E9B5C1E002C7FF779
:102F10006AAE102C279B084F40F37885DDE90889BD
:102F2000102611E0FFFFEF7FEC490108F04901088E
:102F3000FC4901082C4A0108304A01080BF1080B32
:102F4000103C102C40F3628501331035072BCBE980
:102F50000076CDE92735F1DD26AA494640460BF03B
:102F600039FE00287FF4C9ADDDE927350DF1A40B4A
:102F7000E6E7039E01293FF43FAD022900F0768188
:102F800052AC03F00701DB0843EA4273D208303148
:102F900053EA0207204604F8011DF2D1F707049412
:102FA00000F1768252AB03961E1B68E5DDE905232E
:102FB000A3EB0208B8F1000F7FF7FCADB8F1100FDA
:102FC0003A46279BC04F29DD19951C961024DDE950
:102FD0000865194606E0A8F11008B8F1100F0BF1CA
:102FE000080B18DD013110320729CBE90074CDE957
:102FF0002712F0DD26AA294630460DF1A40B0BF06E
:10300000E9FD00287FF479ADA8F11008B8F1100FA0
:10301000DDE92712E6DC199D1C9E0B460133CBF837
:103020000070072B08EB0207CDE92737CBF80480A7
:1030300000F30E85A9EB0608B8F1000F0BF1080BA1
:103040007FF7BEADB8F1100F3A46279B9E4F2EDD9D
:103050005946089CC3464FF01009B84637462E46DD
:10306000099D06E0ABF1100BBBF1100F01F1080157
:1030700018DD013394481032072BC1E90009CDE96E
:103080002732EFDD26AA294620460BF0A3FD0028B3
:103090007FF433ADABF1100BBBF1100FDDE927323C
:1030A00029A9E6DC35463E464746D8468B460133DD
:1030B000CBF80070072B08EB0207CDE92737CBF8D8
:1030C000048000F325820BF1080B79E5279B7F49EB
:1030D000CBF8001001337D1C0121072B2895279385
:1030E000CBF8041000F34A850BF1080B002A40F0DE
:1030F000E084039B0E9A03F0010313433FF473AD86
:10310000129B139A5919CBE90023279B289101336D
:10311000072B279300F3EF850BF1080B049ACBF8EC
:1031200000200E9ACBF8042001335518072BCDE967
:1031300027357FF756ADDDE9080126AA0BF04AFDD9
:1031400000287FF4DAAC289D0DF1A40B4BE50E9B13
:10315000012B0BF1080640F37A81049BCBF8003079
:10316000279B013301370122072B28972793CBF8A0
:10317000042000F3F981129A03F10108139BD51979
:10318000B8F1070FC6E90032CDE9278500F3F881D1
:1031900008360E9BDDE9100103F1FF390022002300
:1031A000FDF782FE002840F08B81049CC6F8049055
:1031B00008F1010801344D44B8F1070FCDE9278526
:1031C000346000F359810836169A726008F10103E1
:1031D0001544072B22AACDE927353260ABDC06F176
:1031E000080B00E5102FDDE92721DFF8E4802DDD55
:1031F00019934346CDE91C45B046DDE908451E4616
:1032000004E0103F102F0BF1080B19DD01321031D3
:103210001023072ACDE92721CBF80060CBF8043032
:10322000EFDD26AA294620460DF1A40B0BF0D2FCB7
:1032300000287FF462AC103F102FDDE92721E5DC88
:10324000DDE91C453046199B46468046013239442B
:10325000072ACBF80080CBF804702891279200F35E
:10326000A9839DF87B200BF1080B7AE4149C52A9EA
:1032700003F00F001B09205C01F8010D43EA027303
:10328000120953EA0200F3D152ABCDE903615E1A91
:10329000FFF7F5BBDDE9080126AA19930BF09AFCAC
:1032A00000287FF42AAC289F199B0DF1A40B6CE435
:1032B000DDE9080126AA0BF08DFC00287FF41DAC87
:1032C000289F0DF1A40B72E4304A01082C4A010832
:1032D000404A0108102C279BDFF8CC8323DD4746AA
:1032E000DDF82490DDF82080102604E0103C102C3E
:1032F0000BF1080B16DD01331035072BCBE90076F7
:10330000CDE92735F2DD26AA494640460DF1A40B4A
:103310000BF060FC00287FF4F0AB103C102CDDE9D2
:103320002735E8DCB84601332544072BCBE9008478
:10333000CDE927357FF760ACDDE9080126AA0BF05F
:1033400049FC00287FF4D9AB289D55E4209A002A37
:103350007FF7BCAE0C9E0E9B049A9E42A8BF1E46F1
:10336000002E134419930BDD279B01333744072BA1
:10337000CBE900262897279300F39F850BF1080BD4
:103380000C9D002EA8BFAD1B002D00F3EF81049B08
:103390000C9A13449946039B5E0500F10C82209C15
:1033A0000E9B9C4203DB039AD50740F18E84129B4F
:1033B000139ADD19CBE90023279B28950133072BAE
:1033C000279300F3DE850BF1080B0E9B1C1B199B4A
:1033D000A3EB0906A642A8BF2646002E0DDD279BBB
:1033E000CBF8009001333544072BCBF804602895C7
:1033F000279300F3E0850BF1080B002EA8BFA41B58
:10340000002C7FF7F0AB102C279BA64F40F3FE82D9
:10341000DDE90889102605E00BF1080B103C102CA3
:1034200040F3F48201331035072BCBE90076CDE968
:103430002735F1DD26AA494640460BF0CBFB002894
:103440007FF45BABDDE927350DF1A40BE6E7039BC9
:10345000DC073FF582AE049BCBF80030279B03F1DD
:1034600001087D1C0123B8F1070F2895CDF89C8039
:10347000CBF804307FF7A8AEDDE9080126AA0BF0EF
:10348000A9FB00287FF439ABDDE9278529AE9BE64F
:10349000302900F0C882049A03963023023802F8DB
:1034A000013C52AB1E1A0490FFF7E9BAB9F1000FC4
:1034B0007FF4A7AA039652AB4E460493FFF7DFBAF8
:1034C0000E9B012B7FF780AE112B764F40F3E482E9
:1034D00043461024DDE9088B06E00836A9F11009FF
:1034E000B9F1100F40F3D78201331035072BC6E92D
:1034F0000074CDE92735F0DD26AA594640460BF089
:1035000069FB00287FF4F9AADDE9273529AEE5E754
:10351000DDE9080126AA0BF05DFB00287FF4EDAA87
:10352000289F0DF1A40BFFF74BBB0B9951F8043BFF
:103530000B9116F010010CD116F0400004D00A4691
:103540009BB20121FFF77CBA16F400721CBFDBB2FC
:1035500002460121FFF774BA5B42039E62EB42020E
:103560002D200121FFF76DBADDE9080126AA0BF035
:1035700031FB00287FF4C1AADDE9273729AEFAE53F
:10358000DDE9080126AA0BF025FB00287FF4B5AA87
:10359000DDE9278529AEFCE59AF800500B93FFF78B
:1035A0007BB9039A920500F1A083DA171146FFF761
:1035B00015BADDE9100102460B46FDF723FE00288F
:1035C00040F0CC85612D00F09584412D00F00385FD
:1035D000B9F1FF3F00F0AA8325F02003472B04D167
:1035E000B9F1000F08BF4FF00109DDE91001039C9C
:1035F000002944F480720592C0F2B584002341ECA6
:10360000180B19930A93A5F14103252B00F2C482EC
:10361000DFE813F09603C202C202C2028F039303D3
:10362000C202C202C202C202C202C202C202C2027A
:10363000C202C202C202C202C202C202C202C2026A
:10364000C202C202C202C202C202C202C202C2025A
:10365000C202C202C202C202C202C2028F039303AA
:10366000039BDD0600F10182039B5C0600F13783BA
:10367000039B980540F1F9810B9B079A1B681A7010
:10368000FFF7F7BB159B9AF80050002B3FF404A9F5
:103690001B78002B3FF400A9039B43F48063039342
:1036A000FFF7FAB8304A0108404A0108BD4B1493AD
:1036B000039B13F0200200F002810B9B073323F0E1
:1036C000070319465A6851F8083B0B910398C10744
:1036D0000AD553EA020107D040F0020103913021DC
:1036E0008DF87D508DF87C10039921F480660221BD
:1036F000FFF7A6B9039EFFF78BBBAB4B1493D7E73D
:10370000DDE9080126AA0BF065FA00287FF4F5A987
:10371000289D0DF1A40BFFF7F7BB43F400739AF853
:10372000015003930AF1010AFFF7B6B843F02003F2
:103730009AF8015003930AF1010AFFF7ADB808980F
:10374000402109F0ABFB099B18601861002800F0CC
:10375000C184099A40235361FFF767B804980B9717
:10376000FCF74EFDB1460646FFF7F9BA102D3A4672
:10377000279B8E4F40F3E181DDE90848102605E0E4
:103780000BF1080B103D102D40F3D781013310329F
:10379000072BCBE90076CDE92732F1DD26AA414699
:1037A00020460BF017FA00287FF4A7A9DDE927329D
:1037B0000DF1A40BE6E70D99CDF870A05A463846F6
:1037C0007A4EDDF854A0189BDDF824B04F464FF038
:1037D0001008DDF83C9081B3B9F1000F00F0FD80D6
:1037E00009F1FF391799C2E90013279901311844EB
:1037F00007292890279173DC0832199C9AF8001049
:10380000E51B8D42A8BF0D46002D0CDD2799013127
:1038100028440729C2E900752890279100F30981FF
:103820009AF800100832002DACBF4C1B0C46002C3F
:1038300012DC0F440D990029CED1B9F1000FCFD180
:10384000199BCDF854A0B9469945DDF870A0934670
:10385000074628BF9946A2E5102C279940F390848B
:10386000089D04930C9604E0103C102C02F1080211
:1038700015DD013110300729C2E90068CDE92710B4
:10388000F2DD26AA594628460BF0A4F900287FF459
:1038900034A9103C102CDDE9271029AAE9DC049B8F
:1038A0000C9D1560013120440729CDE92710546093
:1038B00000F310839AF8001008320F44BAE70B990E
:1038C00051F8043B0B91039911F010017FF4FEAE07
:1038D000039A12F0400000F029819BB20A46F5E6F7
:1038E0000898049326AA59460BF074F900287FF42F
:1038F00004A92898049B29AA7FE70021CDE9045652
:1039000006F48067DFF8A880159ECDF80CA052ACB5
:103910008C4605E00A2B72F1000235D353462A4645
:10392000991841F10001A8FB010525F0030000EB07
:103930009500091A581A4FF0CC3562F1000E05FBBC
:1039400000F508FB0E55A0FB08A005440AF0010E87
:103950000520AEFB000E40184FEA5A0A303004F83A
:10396000010C4AEAC57A0CF1010C013C6D08002FEC
:10397000D0D031788C45CDD1BCF1FF0FCAD00A2B05
:1039800072F1000280F0ED801596DDE9045652AB2D
:10399000DDF80CA0CDF838C0CDE903641E1BFFF79D
:1039A0006EB800BF104A0108FC490108304A0108FE
:1039B000CDCCCCCCDDE9080126AA19930BF00AF98D
:1039C00000287FF49AA89DF87B20199B0DF1A40B89
:1039D000FFF7C7B8039EFFF70FB80D9901390AF139
:1039E000FF3A0D91FEE60129039E7FF4C6AAFFF778
:1039F00008B8DDE9080126AA0BF0ECF800287FF4EE
:103A00007CA8289F0DF1A40BFFF767BA013325446A
:103A1000072BCBF80070CBF80440CDE927357FF7B2
:103A2000E0A8FFF788BB049A039652AB9E1AFFF7F3
:103A300026B80898049326AA59460BF0CBF800281C
:103A40007FF45BA89AF800102898049B29AAEAE65C
:103A5000DDE9080126AA0BF0BDF800287FF44DA887
:103A6000289F0DF1A40BFFF7A5B80B9B079A1B68C5
:103A70001A60FFF7FEB94E46062E1A4628BF0626E4
:103A800099460A93C14B0596CDE90C220B970493F6
:103A90000F92FFF700B8984608F101084D44B8F1BD
:103AA000070FCDE927853760C6F804907FF78BAB09
:103AB000E2E4129B13985919CBE90003279B289144
:103AC0000133072B279300F316810BF1080B002A13
:103AD000BFF624AB56421032AD4F80F2D382DDE9FF
:103AE0000848102505E00BF1080B103E102E40F39E
:103AF000C98201331031072BCBE90075CDE927319D
:103B0000F1DD26AA414620460BF064F800287EF439
:103B1000F4AFDDE927310DF1A40BE6E7039A12F4C7
:103B200000721CBFDBB20246FEF786BF039A12F496
:103B300000721CBFDBB20246C8E50133CBF800704F
:103B4000072B05EB0207CDE92737CBF8045000F32C
:103B5000E0800BF1080B1AE42D228DF87B20FFF793
:103B6000A2B8189B1799E41A1A46204609F0BEFE1F
:103B7000737803B101364FF0000CCFE6DDE90801A0
:103B800026AA0BF027F800287EF4B7AF209A289DCC
:103B90000DF1A40BFFF7AABA4F46022124AB019303
:103BA00021AB00930898B0EE480AF0EE680A20AB0B
:103BB0003A4600F041FB672D049000F00E82472D3D
:103BC00000F09D82049B25F02008B8F1460F03EB1E
:103BD000070605D11B78302B00F0E482209F3E447D
:103BE00051EC180B00220023FDF75EF9002800F0CD
:103BF00040813346049A9B1A0E93209A0C92B8F196
:103C0000470F00F02481B8F1460F00F0FE81531EEB
:103C1000612D209300F0DE82412D40F02081502163
:103C20000120002BB6BFC2F101032B222D22092B4C
:103C30008DF888108DF8892040F33D820DF19706AC
:103C4000544F32461046A7FB0312D20802EB820102
:103C5000A3EB4101303100F8011C194663291346DA
:103C600000F1FF32EEDC303302F8013C831EB34238
:103C700080F0BC820DF1890213F8011B02F8011FCC
:103C8000B342F9D152AB181AA0F1AD0316930E9BB3
:103C9000169A012B03EB020640F32D82129B1E4461
:103CA00024F4806343F4807303930023CDE90C3341
:103CB00026EAE6720F930592199B002B40F0D28002
:103CC0009DF87B209946FEF7E6BE199A1C1BA2EBD5
:103CD0000906A6423D46A8BF2646FFF78EBB0B9BB2
:103CE000079A1B681A80FFF7C4B843F3C012114645
:103CF0005BB2FEF773BEDDE9080126AA0AF06AFF8F
:103D000000287EF4FAAEDDE92731209A0DF1A40BEC
:103D1000DDE6DDE9080126AA0AF05CFF00287EF452
:103D2000ECAE289F0DF1A40BFFF731BB4FF0060955
:103D30005BE409F10107022130E74F4603212DE73B
:103D400020A8B0EE480AF0EE680A0AF00FFF002241
:103D50004FF07F5351EC100BFCF73EFE0022002386
:103D600006460F46FDF7A0F8002840F0BB810A4B3D
:103D7000039309F1FF33CDE91C9B0D95CDE90E4A64
:103D8000DDF81080DDF80CB01D460DE0244A010876
:103D9000304A0108CDCCCCCC104A010800220023C7
:103DA000FDF782F8F0B94D46AD4B0022304639465A
:103DB000FCF712FE0F460646FDF7A8F80446FCF78E
:103DC000A1FD0B46024639463046FCF74DFC1BF878
:103DD0000430C24608F8013B6B1C05F1FF3906466A
:103DE0000F46DBD19F4B0C950022304639460D9D86
:103DF0000D94DDE91C9B0E9CCDF838A0DDF83CA0AD
:103E0000FDF77AF8002840F00E81964B304639468F
:103E10000022FDF749F818B10D9BDF0700F103817F
:103E20000C9B002BC0F21A810C9B013343443022BF
:103E300008F8012B4345FBD1049A9B1A0E9325F0F9
:103E40002008DAE6049A249B9B1A209A0E93D31C2E
:103E50000C9201DB914518DA531E023D2093E9B222
:103E60000020DEE62D228DF87B204FF00009FEF7C2
:103E700014BE249BB342BFF4BDAE30215A1C249221
:103E80001970249B9E42F9D8B4E60E9B934200F32E
:103E9000AB80E30740F16081129BD618670502D51D
:103EA000002A00F33381059B039326EAE67305930A
:103EB000672500230F930D93FEE6DDE9080126AA8E
:103EC0000AF088FE00287EF418AE289F0DF1A40B9E
:103ED000FFF756BA0898049326AA59460AF07AFEC4
:103EE00000287EF40AAE9AF800102898049B29AAAC
:103EF0000F449FE478238DF87D3030238DF87C309B
:103F0000039BB9F1630F43F0020400F3AF80002379
:103F10000A9339AB0493039B43F481730593119B7C
:103F2000002B23DB9DED108B00231993612D7FF473
:103F30006AABB0EE480AF0EE680A20A80AF016FE56
:103F400000224FF07F5351EC100BFCF745FD00228F
:103F5000002306460F46FCF7A7FF002840F0C2806A
:103F6000414B039305E70023039C0A93DDE91023EB
:103F700003F1004308EE903A2D2308EE102A19931E
:103F8000D4E7DDE9080126AA0AF024FE00287EF421
:103F9000B4AD209C289D0DF1A40BFFF716BA4E4638
:103FA000CDF81490CDE90C009DF87B200B9781464D
:103FB0000F90FEF770BDDDE9080126AA0AF00AFE9F
:103FC00000287EF49AAD209C0E9B289D1C1B0DF1B1
:103FD000A40BFFF712BA58238DE7E6077FF532AF3F
:103FE000C6194FF04708FBE50E9B129A9E180C9BD2
:103FF000002B40F3C8806725620500F18880059B8F
:10400000039326EAE673059353E70C9A04F0010341
:10401000002A43EA090340F3D580002B40F0BD801D
:104020000C9E6625E8E70E9B039A2493D17B18F833
:10403000013C8B42424609D1302002F8010C249AFF
:10404000531E249312F8013C9942F6D0392B0BBF32
:10405000039B01339B7ADBB202F8013C4346EBE65B
:10406000000030400000E03FFC490108089809F1D9
:10407000010108F013FF0490002800F0C980049BA0
:104080000A9348E701333144072BCDE92731CBF8B8
:104090000070CBF804607FF73FA8DDE9080126AA8D
:1040A0000AF098FD00287EF428ADDDE927310DF1F6
:1040B000A40BFFF733B8002840F0818030228DF840
:1040C0008A200DF18B02303302F8013B22ABD31A68
:1040D0001693DCE5089A0C2313604FF0FF33079327
:1040E000FEF716BD4E4B4F4A612D18BF1A460123ED
:1040F000039220933DE6E2077FF5D2ADCEE5E107DE
:104100007FF5A0AE049BA846DE1969E567251599E1
:104110000B78FF2B78D000240C9A204603E0013066
:104120000131FF2B08D0934206DAD21A4B78002BCC
:10413000F5D10B780134F4E715910D900F940C92A2
:10414000059B0D9A03930F9B1344189A02FB036679
:1041500026EAE6730593AFE516469FE6119B324CBF
:10416000002B039BA8BF9DF87B2023F08003B8BFE2
:104170002D220393B8BF8DF87B202C4BFEF799BD01
:104180002B4DFFF78EBBC3F101031E44059A03922A
:1041900026EAE673059367258BE6129BD6184E44F4
:1041A000662529E751EC180B00220023FCF77CFE62
:1041B00000287FF413ADC7F1010720970FE50DF13B
:1041C0008A0280E743B9059B039301230593662583
:1041D0001E466EE6702123E5059B0393129B5E1C31
:1041E0004E4426EAE6730593662562E6022316939B
:1041F0004DE50B9B9AF80150924653F8042B0B9314
:1042000042EAE279FEF748BB00230F930D9397E74C
:1042100009998B8943F0400213468A81FEF775BCE9
:10422000104A0108FC490108F4490108F84901084D
:10423000304A0108000000002DE9F04F9FB08DEDDD
:10424000040B0091016C289D029057EC106B0A92B0
:10425000089349B1426C4A600123934004468B6045
:104260000AF0EEF800232364B7F10009B4BF01237C
:1042700000232B60764BBCBF29F00049CDF8149089
:1042800033EA090300F0A8809DED047B002251EC85
:10429000170B00238DED067BFCF706FE804668B108
:1042A000089A01231360299B13B1299A694B136063
:1042B000694B039303981FB0BDE8F08F9DED060B8B
:1042C00002981CAA1DA90AF0F1FB5FEA1955824663
:1042D00040F09880DDE91C85454405F23243202BEF
:1042E00040F38483C3F1400309FA03F905F2124352
:1042F00026FA03F349EA0300FCF7F4FA0123013D2F
:104300001193A1F1F871554B0022FCF7ADF94AA3C6
:10431000D3E90023FCF760FB49A3D3E90023FCF7B2
:10432000A5F9064628460F46FCF7ECFA46A3D3E962
:104330000023FCF751FB02460B4630463946FCF79A
:1043400095F906460F46FCF7E1FD0022834600235F
:1043500030463946FCF7B2FD002840F01B83A8EB3D
:104360000508BBF1160F08F1FF3400F28D813C4DBA
:1043700005EBCB05D5E90023DDE90601FCF79EFD41
:10438000002873D00023002C0BF1FF3B1093C0F2E8
:10439000808100230B93BBF1000F6DDA0B9BA3EB25
:1043A0000B030B93CBF10003CDE90EB3009B092B5C
:1043B0004FF0000B68D8052B40F31D83043B00939E
:1043C0000025009B023B032B00F22486DFE813F05C
:1043D00060045D0455043904089AC9F3130942F2D4
:1043E0000F7359EA060913601CD1299B002B00F0BA
:1043F0002C861C4B03930833299A039813601FB033
:10440000BDE8F08FDDE90612C2F31303084643F05E
:104410007F51CDF84480A5F2FF35DDF8708041F47E
:10442000401170E7299B002B40F0E8830E4B03936B
:1044300040E700BFAFF3008061436F63A787D23FBF
:10444000B3C8608B288AC63FFB799F501344D33F83
:104450000000F07F2D4A01082C4A01080000F83FB7
:1044600078350108504A01085C4A0108B8F1000F8C
:1044700040F35D8410900B9000230F93009BCDF8C8
:1044800038B0092B5C4496D900234FF0FF32CDE9B8
:104490000923012500930C95029B00215964099B77
:1044A0001893029809F0A6FF0390002800F0BB853E
:1044B000DDE902321A64099B0E2B00F21481002DF3
:1044C00000F011810E9A002A40F33884B14D02F0B9
:1044D0000F0305EBC3031511D205D3E9008940F1A1
:1044E000F883AD4BDDE90601D3E90823FCF79EFB19
:1044F000CDE9120105F00F0503277DB1A64EEB07AC
:1045000008D540464946D6E90023FCF765FA01374D
:10451000804689466D1006F10806F0D142464B46AA
:10452000DDE91201FCF782FB80468946109B43B10E
:104530009A4B002240464946FCF7C0FC002840F058
:10454000F0843846FCF7DEF942464B46FCF744FA65
:10455000934B0022FCF78AF8099B0646A1F150779D
:10456000002B00F0A9800E9B1993099B1293039BCB
:10457000884D49464046CDE914675E1CFCF7C6FCF1
:10458000129905EBC10313ED027B07468DED167BF7
:10459000FCF7B8F902460B4640464946FCF764F87A
:1045A00089460C993037DDE916238046FFB2002991
:1045B00000F052847B490020FCF738FBDDE914232E
:1045C000FCF752F8039D02460B46CDE914232F70E9
:1045D00042464B46FCF790FC002840F09684CDE91B
:1045E0001AB4CDF858A0129DDDE914AB00272AE0DB
:1045F0000137AF4280F2DD846B4B504659460022B2
:10460000FCF7EAF9684B002282468B464046494651
:10461000FCF7E2F989468046FCF778FC0446FCF793
:1046200071F902460B4640464946FCF71DF8303406
:1046300006F8014B52465B4680468946FCF73EFC35
:10464000002840F0B38442464B4654490020FCF712
:104650000BF852465B46FCF731FC0028C8D0199B8A
:10466000DDF858A0039A374603F1010802E09742AB
:1046700000F07B843E4617F8013D392BF7D001331B
:10468000DBB23B70454674E10123002C1093BFF66A
:1046900080AEC8F101030B9300247CE63846FCF79A
:1046A00031F942464B46FCF797F93D4B0022FBF7A8
:1046B000DDFF0646A1F150773C4B404649460022BB
:1046C000FBF7D2FF32463B4680468946FCF714FC96
:1046D000002840F0598440464946324607F10043DD
:1046E000FCF7ECFB28BB1D9B002BC0F291800E9ABF
:1046F0000E2A00F38D80274D0E9B05EBC30595ED2B
:10470000007B0A9B002B8DED007B19DA099B002BA7
:1047100016DC0ED1254B0022DDE90001FCF75CF927
:1047200002460B46DDE90601FCF7D2FB002800F04B
:104730002B844FF00009039E4F460A9BDD4324E281
:10474000DDE90045DDE9068922462B46404649461B
:10475000FCF76CFAFCF7DAFB0646FCF7D3F82246C6
:104760002B46FCF739F9039F0B4602464946404663
:10477000FBF77AFF06F1300307F8013B099B012B99
:1047800000F010830125CDF810A09946DDE900ABBB
:10479000A8462BE078350108503501080000F03FAD
:1047A00000001C400000E03F0000244000001440D6
:1047B00052465B4620462946FCF738FAFCF7A6FB32
:1047C0000646FCF79FF852465B46FCF705F908F1F0
:1047D00001080B46024629462046FBF745FF06F135
:1047E0003003C84507F8013B00F0DA82B94B0022DC
:1047F000FCF7F2F80022002304460D46FCF754FBB8
:104800000028D5D00E9DDDF810A001353E46B0E061
:104810000C9A002A40F0D28000230F9E0B9D0C932F
:104820001F4655B1002C08DDA5420B9A2B46A8BFA8
:104830002346D21A0B92ED1AE41A0F9B53B10C9B2C
:1048400013B1002E40F0E78251460F9A029809F00A
:1048500087FF82460298012109F09EFE8146BBF146
:10486000000F40F0B681009B012B40F3CC8101206A
:10487000204410F01F0000F09A80C0F12003042BA8
:1048800040F3DA810B9BC0F11C0003440B930544F9
:1048900004440B9B002B05DD514602981A4609F093
:1048A000B9FF8246002C05DD49460298224609F0F0
:1048B000B1FF8146109B002B40F07081099B002BBB
:1048C00040F348810C9B002B40F0A4800E9D0135E5
:1048D000DDF80C80099CDDF808B0012607E05146A0
:1048E00000230A22584609F0B5FD013682464946A2
:1048F000504609F099FBA64200F1300308F8013B4D
:10490000EDDB099A002AC8BF1646039AD8BF0126D4
:1049100002EB060B0024514601220298009309F095
:1049200079FF4946824609F0EDFF002840F3E28115
:10493000039A02E05A4500F0E8815E460BF1FF3B26
:1049400016F8013C392BF5D001338BF80030DDF837
:1049500008804946404609F073FD57B12CB1BC426E
:1049600003D02146404609F06BFD0298394609F014
:1049700067FD0298514609F063FD00233370089BE0
:104980001D60299B002B3FF495AC03981E601FB05F
:10499000BDE8F08F5846FBF7B5FF32463B46FCF7C3
:1049A00083FA00287FF4DBAC0BF1FF3BD7E41C2338
:1049B0000B9A1A440B921D441C446AE7009A012A80
:1049C00040F3A881099B0F9A5E1EB242C0F26A8131
:1049D000002BA2EB060680F2DD820B9B099A9D1A42
:1049E0000298012109F0D8FD07461AE7C3F1200318
:1049F00006FA03F080E40125E3E439460023029837
:104A00000A2209F027FD189B002B074640F3EF828E
:104A10000E960993002D00F33E81BBF1000F40F08C
:104A2000DE81B846039E099C731E1C44049B03F060
:104A30000103CDE90B43029C4946504609F0F4FAC4
:104A400039468346504609F05DFF424649460546D1
:104A5000204609F079FFC26801460BF13003002AB5
:104A60003AD1CDE90903504609F04CFF0999069067
:104A7000204609F0E5FC069A0A9B002A5AD1009AC2
:104A80001AB90C9A002A00F09A82002D45DB0B9A85
:104A9000B346B2420BF8013B00F0B8815146002307
:104AA0000A22204609F0D6FC4745824639464FF097
:104AB00000034FF00A02204636D009F0CBFC4146F5
:104AC000074600230A22204609F0C4FC5E468046C1
:104AD000B2E700BF000024400298069309F0B0FC42
:104AE000002D069B06DB049A009902F001020D439B
:104AF0002A432AD1514601220298009309F08AFEE6
:104B00004946824609F0FEFE0028009B40F3E780FC
:104B1000392B00F02F820BF131030E9D06F8013B7B
:104B20003C460135474612E709F094FC5E460746CD
:104B3000804681E7002DC0F27D8200990D430C99DB
:104B40000D4300F07782002AA1DD392B00F012829C
:104B50000133E2E7009B022B7FF7B4AE099B002BE9
:104B600040F01C8149460522029809F073FC014679
:104B70008146504609F0C6FE002840F30F81039E8F
:104B80000E9D312306F8013B013502984946013557
:104B900009F056FC002F7FF4E8AEEAE6494650469D
:104BA00009F0B0FE0028BFF689AE514600230298F6
:104BB0000A2209F04FFC0E9B5E1E0C9B8246002BC6
:104BC0007FF41BAF189B002B40F3FF810E9D0993D0
:104BD0007EE601465A46029809F0C2FD009B012B71
:104BE00081466BDD4FF0000BD9F8103009EB8303E1
:104BF000186909F07FFCC0F1200039E6924B03935D
:104C00000333FFF7F9BB049B002B7FF430AEDDE9E3
:104C10000412C2F31303002B7FF429AE8B4B134015
:104C200023B10B9B01330B9301340123BBF1000F24
:104C300040F0AE819B461AE63FF42BAEC0F13C0338
:104C4000B6E601230C930A9B0E9A13441893013382
:104C5000012B1E460993B8BF0126172E40F3D581BC
:104C6000012204235B0003F11400B042114602F15B
:104C70000102F7D9029B596413E401230C930A9EA5
:104C8000002E32DD18960996E7E700230C93DAE749
:104C900000230C93F3E7394602982A4609F0BAFD3F
:104CA0000746BAE60F9B0B9A0F96F31A9B44099B93
:104CB00015461A441C440B92002691E6049B002BD7
:104CC00090D1DDE90401C1F313030A46002B89D119
:104CD000A4E79DED067B02278DED127B0DE47FF4AA
:104CE0001CAFDA077FF519AF12E70123CDE90933CD
:104CF000FFF7D2BB03D1009BDB073FF519AE5E4641
:104D00001BF8013D302BFAD021E6039A31230135FF
:104D100013701CE6119A002A00F0FA8003F2334364
:104D20000B9A0F9E15461A441C440B9258E6C8F184
:104D3000010304460B931090FFF79EBB00F0EC803C
:104D40000E9B434D5E4206F00F0305EBC303D3E910
:104D50000023DDE90601FBF73FFE3511CDE9120125
:104D600000F04E813B4E0023022780468946E8072B
:104D700009D5D6E9002340464946FBF72DFE013709
:104D80008046894601236D1006F10806EFD1002BFD
:104D90007FF4CCABDDE91289FFF7C8BB039ECCE4FE
:104DA000DDF810A00E9D02460B46FBF75FFC0246A5
:104DB0000B46CDE904230135DDE90023A846FCF7C5
:104DC0009BF840B9DDE90023DDE90401FCF76CF84C
:104DD00018B1F10701D5039A4CE43E46C9E579685C
:104DE000029809F007FB0546002800F027813B697F
:104DF00002339A0007F10C010C30FCF769F90298B4
:104E00002946012209F006FD80460BE60E9D3C4630
:104E1000013547467FE5DDF8088039463246404691
:104E200009F09EFC524601460746404609F0E2FB67
:104E300051468246404609F003FB0F9B9B1B0F9394
:104E40003FF408AD00E500BF5C4A01080000F07FB8
:104E50007835010850350108DDE91401FBF7BCFD88
:104E6000039B1F70129B012BCDE90C0100F0C68043
:104E7000129F039BCDF844B01F447C4B0022404658
:104E80004946FBF7A9FD89468046FCF73FF8834673
:104E9000FBF738FD0BF1300B02460B464046494606
:104EA000FBF7E2FB06F801BBB74280468946E4D136
:104EB000DDF844B06E4B0022DDE90C01FBF7D6FBB8
:104EC00002460B4640464946FCF716F8002867D1D3
:104ED000DDE90C2366490020FBF7C6FB02460B46C2
:104EE00040464946FBF7EAFF48B91D9B002BFFF6F9
:104EF00093AC0E9B0E2B3FF78FACFFF7FDBB3E46EE
:104F0000013F16F8013C302BF9D0199D013530E5F1
:104F10001C9BC3F1360303E7DDE906890227FFF78F
:104F200005BB099B002B3FF4B9AB189B002B7FF707
:104F3000DAAB0E9A1293013A4C4B1992404600227A
:104F40004946FBF749FD80468946781CFBF7DAFCA9
:104F500042464B46FBF740FD464B0022FBF786FBE3
:104F60000646A1F15077FFF702BB08F10108312393
:104F7000FFF787BB0E9D039AB34639233C460BF8D7
:104F8000013B01354746D8E44FF000094F46F6E5AE
:104F90009B4629E60B9A15461A441C440B921FE5C2
:104FA000199B039A03F10108FFF764BBDDF858A0D1
:104FB000ABE7DDE91AB4DDF858A0FFF794BB392B55
:104FC000D8D0002D3FF7A7ADA7E5009B022B0ADC48
:104FD000189B099349460E9D09F026F8039A00F1A3
:104FE000300313708DE4189B09930E96B6E5009B71
:104FF000022BF8DC189B0E9609930BE5374659E710
:10500000DDE912890227FFF791BA029B002159645A
:10501000FFF747BA029B00255D642946184609F050
:10502000E9F90390A8B9144B144800224FF4D57144
:1050300009F054FE002A7FF770AD5BE50E4B0F4878
:105040002A4640F2EA2109F049FE0D4B0393FFF78F
:1050500031B9DDE902321A644FF0FF3301220A95BB
:1050600018930C920993FFF73EBB00BF0000244049
:105070000000E03F00001C40604A0108744A01083B
:10508000504A010801480DF043BB00BFF014002056
:1050900001480DF03DBB00BF7C14002073B50D4DE1
:1050A0000D4E28460DF093FB0024002130460DF0F4
:1050B00036FA0A4A00944FF480732146304605F0D0
:1050C00045FE284606F002F905480BF0E2FB2046B3
:1050D00002B070BD30140020DC140020E40A00206F
:1050E000B84B010873B50D4D0D4E28460DF06FFB02
:1050F0000024002130460DF012FA0A4A00944FF4C1
:1051000080732146304605F021FE284606F0DEF881
:1051100005480BF0BEFB204602B070BD30140020E5
:10512000DC140020E4080020DE4B01080B4B1A6E53
:1051300042F001021A661A6E82B002F00102009279
:10514000009A9A6D42F080529A659B6D03F08053ED
:105150000193019B072002B005F092BD00100240B0
:1051600030B5054689B01422002103A808F002FAE0
:105170002B68B3F1A04F34D103F1704303F504332E
:10518000194CDA6C42F40052DA64DA6C02F4005220
:105190000192019ADA6C42F00102DA64DB6C03F0EE
:1051A000010302930222029B03A903234FF09040C4
:1051B000CDE9032305F0BCFF0C4B236080204FF4A6
:1051C0008072C4E9040200234FF4806C2022204640
:1051D000C4E90233C4E906C2236205F03BFF6C65F3
:1051E000A56209B030BD00BFF014002008000240E5
:1051F00070B5054688B01422002103A808F0BAF95A
:105200002A681D4B9A4234D103F1704303F50233EF
:105210001A4CDA6C42F48032DA64DA6C02F48032CE
:105220000192019ADA6C42F00102DA64DB6C03F05D
:1052300001030293029B1026032303A94FF0904021
:10524000CDE9036305F074FF0D4B2360802200233A
:10525000C4E903324FF480714FF48062C4E905124F
:1052600020462022C4E90723A66005F0F3FEAC60C7
:10527000A56208B070BD00BF000800507C1400207B
:10528000300402400368B3F1804F84B00CD103F5C1
:1052900004339A6D42F001029A659B6D03F001039D
:1052A0000193019B04B070470D4A93420AD10D4B04
:1052B0009A6D42F002029A659B6D03F0020302931D
:1052C000029BEFE7084A9342ECD1064B1A6E42F478
:1052D00000521A661B6E03F400530393039BE1E72D
:1052E0000004004000100240003401402DE9F0416C
:1052F00007460E46154600F08FF8C36804461BB9F2
:1053000043691A78002A41D10023E3606368BB42F5
:1053100056F8232008DB324B6361204600F062F828
:105320004FF0FF30BDE8F081511C616192F80080C0
:10533000B8F12D0FEFD1911C61615178A1602D2939
:1053400004D192786AB901336360E4E749B9244B28
:1053500063614146284608F0C1F90028DDD0C4F851
:105360000880D4F808802846414608F0B7F9B8F11B
:105370003A0F636900D070B91B7813B963680133C1
:105380006360204600F02EF83F20CBE75A1C4261B4
:105390001B788360E5E742783A2A0BD0002222612D
:1053A0001B7813B9636801336360204600F01AF874
:1053B000A068B7E718786268094928B901329742AE
:1053C000626004DD56F82230C4E90431EAE7616125
:1053D0002D783A2D2046D5D100F004F82846A1E7D3
:1053E0003D4E0108074B02681A60074B42681A607D
:1053F000064B82681A60064BC2681A60054B026948
:105400001A607047B4060020B0060020C4210020B6
:10541000C0210020BC2100200048704798060020D1
:10542000014B1B68184700BFB8060020014B1860ED
:10543000704700BFB806002007B50B4600210246A2
:1054400000910348FCF75CFA03B05DF804FB00BF71
:1054500021540008F0B5094E016802460A270020D1
:105460000B4601311C78355D6D0701D41360F0BD2A
:1054700007FB0043A3F13000F2E700BFE948010851
:105480002DE9F84F15469A46D378224A12F803B010
:105490006F2B80460F460BF0030B29D024D8582BD6
:1054A0000CBF10260A26DDF828903246002340461D
:1054B0003946FBF7F3FD092AD4B21ED83034B04583
:1054C000E4B277F1000709F8014D01D3D14511D8B5
:1054D0002B789B0605D5082E15D1AB7843F0080331
:1054E000AB704846BDE8F88F03F0F703702BD7E7A1
:1054F0000826D8E780460F46D7E7BBF1010F0CBF5F
:1055000037345734DBE7102EEBD1AB7843F0100380
:10551000E6E700BFE94801080D4B0E4A1A600E4A43
:10552000536843F0010353600C4B9A6D42F0805274
:105530009A659B6D0A4A82B003F080530193019BE8
:105540009368002043F48043936002B0704700BF2B
:10555000500700200024F400002004E00010024066
:1055600000700040034A536823F002035360002098
:10557000704700BF002004E0014B0360002070472B
:105580009436010813B5044606F09AFBC0F30723CE
:105590000193C0F307430093044A030E08212046F9
:1055A0000BF0ABFC002002B010BD00BF7A4C01082C
:1055B00010B5044603F086FC084A0346082120463D
:1055C0000BF09BFC064A204608210BF096FC054890
:1055D000214606F0EDF9002010BD00BF154D010871
:1055E000344D0108E95500082DE9F0419AB0D0F892
:1055F000B07004460D460DF05AF9064606F03EFF1F
:10560000364B374A002E08BF1E46364B08218442CF
:1056100018BF1346CDE90046334A28460BF06DFC0F
:10562000D4E90A23CDE9022394F90E300093237BB9
:105630002E4A082128460BF060FC202212A92046A1
:1056400006F004FA626F0092034608212846284AB1
:105650000BF053FC06A920460DF040F920BB0CA826
:105660000DF046F918BBDDF81880079E6421A8FBF1
:10567000010CDDE90C2301FB06C1FBF70FFD1D4A00
:1056800000904346082128460BF037FC05A9204628
:105690000DF01DF9034680B1174A082128460BF08A
:1056A0002CFC1AB0BDE8F0810CA80DF021F9134ACA
:1056B000082128460BF021FCE8E7059A6423B91A73
:1056C000CDE900214B430E4AB3FBF7F30821CDE9A6
:1056D000027328463B460BF010FCE2E7404D010800
:1056E000BD5501083E4D0108434D01084F4D0108CD
:1056F0007B4D0108924D0108DA4D0108B74D0108B4
:10570000074E0108F0B5002593B0044629460AAFBC
:105710001C220BA807F02EFF144E1A222021384617
:1057200007F028FF2146124806F042F909AA4FF473
:10573000046130460DF0BFF8099B0095C3F5046085
:105740004FF404616422CDE90330CDE90171424395
:10575000A6F140032046B2FBF1F2CDE90512054A5D
:1057600008210BF0CAFB284613B0F0BDC03D002055
:10577000D15700083E4E010810B5044603F0C2FBA5
:10578000034A0346082120460BF0B7FB002010BD5A
:10579000874E010837B5134600220192054601AA3B
:1057A00058680A210BF0B4FC019C3CB920EAE07077
:1057B000C11706F04FFE204603B030BD2346034A12
:1057C000012128460BF099FB019CF4E79D4E01084E
:1057D000F0B50446D0F8B06089B00D4607A90DF0C9
:1057E00076F8034630B1104A082128460BF085FBB5
:1057F00009B0F0BD20460DF05AF80C4F079A00286A
:1058000018BF0746B11A6423CDE902214B43CDE905
:105810000076B3FBF6F3064ACDE90463082123467C
:1058200028460BF06AFBE3E7DA4D0108404D01081A
:10583000BD4E01082DE9F04387B00546684605F0E6
:105840007DFF009E184A194FDFF86C80DFF86C90DE
:10585000142303FB0066082128460BF04EFB009C36
:10586000B44203D3002007B0BDE8F08323680BB136
:105870001A7832B923463A46142101A807F0EAFE05
:1058800001AB4246082128460BF037FB20460CF0BE
:10589000EDFF074B074A002808BF4B460821284662
:1058A0000BF02BFB1434DBE7DF4F0108E94F010855
:1058B000D04F01083D560108EE4F0108D64F0108B0
:1058C0008B1E022B2DE9F04107468846144637D837
:1058D00060681022002108F099FBB8F1020F06461B
:1058E00007D1264A2023082138460BF006FB3368EF
:1058F00016E00A220021A06808F088FBC5B21F4A02
:105900002B46082138460BF0F8FAB8F1040F1AD0EC
:10591000102D0DD0202DEAD0082D0CD13378DBB21C
:10592000174A082138460BF0E8FA0020BDE8F0815C
:1059300033889BB2F4E7134A082138460BF0DDFAAE
:105940006FF01500F2E7E0681022002108F05EFB1E
:105950000D4A03460446082138460BF0CEFA102DB6
:1059600006D0202D07D0082DE5D1E4B23470DCE755
:10597000A4B23480D9E73460D7E700BF27500108CC
:10598000525001083C500108635001082DE9F04FC6
:10599000574BDFF878A191464FF0FF35012285B0D3
:1059A000074688461A6020262C46494652464046FD
:1059B000FFF79CFC411C07D16A1C4FD14D4A0121C5
:1059C00038460BF09AFA1CE073281FD0772831D0A4
:1059D000612816D1DFF838B11022DBF80000002171
:1059E00008F014FB05460028DFD10BF092FF036896
:1059F000162BDAD1DBF800303F4A012138460BF094
:105A00007CFA6FF0150005B0BDE8F08FDFF800B14B
:105A10000022DBF80000114608F0F8FA04460028DE
:105A2000C3D10BF076FF0368162BBED1DBF8003034
:105A3000324AE2E7DFF8D8B00022DBF80000114676
:105A400008F0E4FA06460028AFD10BF062FF0368C5
:105A5000162BAAD1DBF80030294ACEE7631C01D10E
:105A6000284AACE75FFA86F8C6F3C406002C3CD09F
:105A70006B4629461A46A6EB050C0CE0B8F1100F50
:105A80001DD0B8F1200F20D0B8F1080F2AD1087826
:105A9000187031443344A64203D80CEB010010289F
:105AA000ECD9102CA14628BF4FF0100929464B46CF
:105AB000384601F00BF81035A4EB0904D6E7088846
:105AC00080B21870000A5870E3E7086818704FEA4F
